:400000000040002011000000D9030000D903000080B500AF00F0E4F980B500AF284B12221A6000F03DFC274B181C01F08DFA012000F046FC302000F085FA234B234A1A6033
:40004000234B8022D2051A60224B224A126802210A431A60204B214A1A60214B00221A60204B204A126808218A431A60FA23DB00181C00F0B3FA1C4B181C00F0B5FB1B4B61
:40008000E82252011A601A4B1A4A1A601A4B822212061A60194B8022D2021A60184B40221A60184B0820191C00F0E2FA082000F059FB074B8022D2051A60BD4680BDC04675
:4000C00030001040001BB70004010B40060000800C020B4078002E407C002E402D3E000064F02E406CF02E40DC050000000301400000014040FF008008010B4000010B40F3
:4001000018010140110A000080B582B000AF72B6384B00221A60FB1D00221A7023E0FB1D1A78131C5B009B185B00334A9B183B603B681A78597809020A43997809040A4350
:40014000DB781B061343191C3B681A795B791B0213439BB2081C191C00F0C6F9FB1D1A78FB1D01321A70FB1D1B78012BD7D9234BEE2212061A60224B992212041A60214B74
:40018000992212041A60204B992212041A601F4A1E4B1B78DBB202210B43DBB213701C4A1B4B1B78DBB23C218B43DBB214210B43DBB21370154A154B1B78DBB216210B4330
:4001C000DBB21370134BD82212041A60124B01221A60124B06221A60114B01221A60114B01221A60FFF718FF00F08EF9BD4602B080BDC0466CF02E4000180100000002407B
:4002000000500F4020500F4030500F4000700F4001700F40080004400002044008020440000304401803044010B5064C2378002B07D1054B002B02D0044800E000BF01237B
:40024000237010BDB803002000000000D817010008B5084B002B03D00748084900E000BF07480368002B00D108BD064B002BFBD09847F9E700000000D8170100BC030020B6
:40028000C80000200000000090B583B000AF62B6174B181C00F00EFE00F052FC00F05EFDBC1D00F039F8031C2380124B9B680222DA74104B9B68BA1D0021525E121292B200
:4002C000D2B2DA750B4B9B68BA1D1288D2B21A76084B9A68074BDB68101C191C03F06AFB02F0D8F8FA235B00181C00F059FAD7E7F90200001001002080B582B000AF786021
:4003000039607B68012B00D003E0002000F02AFEC046BD4602B080BD80B584B000AF0023BB600023FB6020E0002000F0E5FB8C235B00181C00F058FA002000F01DFD031CA5
:400340000020191C00F03AFD031C1A1CBB689B18BB60282000F048FA012000F0CDFB0A2000F01EFAFB680133FB60FB68092BDBDDBB68181C0A2101F0E3FA031CBB60B8684B
:4003800001F0D8FF031C181C104901F0CBFB031C181C0F4901F0FEFC031C181C0D4901F02BFE031C181C094901F0F4FC031C181C01F0A0FF031C9AB2BB1D1A80BB1D1B88F8
:4003C0001BB2181CBD4604B080BDC04600007A44C520303E5F98CC3D80B500AFFEE7C04680B586B000AF224B7B61224B3B61204B7B6135E03B691B68FB603B695B68BB6056
:400400003B699B683B6000237B600CE0FB681A68BB681A60BB680433BB60FB680433FB607B6804337B607A683B689A42EED13B69DB683B6000237B6008E0BB6800221A6068
:40044000BB680433BB607B6804337B607A683B689A42F2D13B6910333B617B69013B7B617B69002BC6D101F0CBFFFFF70DFFFEE7010000002C1D010080B582B000AF154B66
:40048000144A126801218A431A6000237B600FE07B68032B04D8104B7A689200D35800E00E4B0F4A796889008B507B6801337B607B682F2BECD9FFF727FE0A4B00221A6050
:4004C000044B044A126801210A431A60BD4602B080BDC0460000104000000000D903000000000020C000002080B582B000AF786039607A683B68101C00211A1C01F0BEFF9B
:40050000BD4602B080BDC04680B500AF084B03221A60084B03221A60074B802212061A60064B01221A60064B00221A60BD4680BD300030403000314000003A4000033A4022
:40054000000E3F4090B58BB000AF78602723FC1801F003F8031C2370184B1A680C23FB181A60174B1A680C23FB185A607B68033B144AD35C1A1C0C23FB189A60124B1A686B
:400580000C23FB18DA601C23FB18104A1A600C23FA181C23FB185A600D4B1C22BA181A600C4B0D4A1A600A4B1B682723FB181B78181C00F0D6FFBD460BB090BD08010B4022
:4005C00000010B400C18010030001040B6EA000008001040040010401700008080B584B000AF78600023FB60154B154A126801210A431A60134B144A1A60144B134A12682B
:40060000802109020A431A607B68002B12D01023FB600CE0012000F0E7F800F019F8031E02D00023FB6005E07B68013B7B607B68002BEFD1FB68181CBD4604B080BDC0463D
:4006400060F02E4078002E400220000010002E4080B582B000AF054B1B68012213407B607B68181CBD4602B080BDC0460C002E4080B584B000AF021C3960FB1D1A7080235F
:400680009B05FB60FB1D1B781F2B02D9002000F07DF8FB1D1B7810339B00FA68D3181B68BB60FB1D1B7810339B00FA68D3183A681A60BB68181CBD4604B080BD90B587B0BD
:4006C00000AF021CFB1D1A70BB1D0A1C1A70BB1D1B78032B02D9002000F058F8FB1D1B781F2B02D9002000F051F8FB1D1B7803221340DB0006337B611323FC1800F02DFF8D
:40070000031C2370FB1D1B789B08DBB29B00144A944663441B68FB607B6903229A40131CDA43FB681340FB60BB1D1A787B699A40131CFA681343FB60FB1D1B789B08DBB24F
:400740009B00074A94466344FA681A601323FB181B78181C00F005FFBD4607B090BDC04600E400E080B582B000AF021CFB1D1A70054BFA1D12781F210A40012191400A1CF1
:400780001A60BD4602B080BD00E100E080B582B000AF021CFB1D1A7001BEBD4602B080BD80B582B000AF786009E00C4B1B68181C00F0CAFE7B680A4A944663447B607A6873
:4007C00080231B029A42F0D8064B1B687A685343181C00F0B9FEBD4602B080BDD80000200080FFFFD000002080B582B000AF021CBB1D1A80BB1D1B88044A12785343181C53
:4008000000F0A2FEBD4602B080BDC046D400002080B500AF0E4B0E4A126801218A431A600B4B0B4A126802218A431A60094B094A126830218A4310210A431A60054B054A5F
:40084000126807218A4301210A431A60BD4680BD00F02E4000FF2E4080B500AF0E4B0E4A126802218A431A600C4B0C4A126807218A4302210A431A60084B084A1268302126
:400880008A4320210A431A60034B034A126801210A431A60BD4680BD00F02E4000FF2E4080B500AFFFF7B4FF044B044A1268802109060A431A60BD4680BDC04600F02E409B
:4008C00080B584B000AF78600C4B1B6801221340FB607B68002B02D0012B03D005E0FFF797FF06E0FFF7B8FF03E00020FFF74EFFC046FB68181CBD4604B080BD00F02E4045
:4009000090B583B000AFFC1D00F027FE031C2370074B074A1268C02109020A431A60FB1D1B78181C00F01DFEBD4603B090BDC04600010B4080B500AF054B1A68C0231B02EB
:40094000134001D0012300E00023181CBD4680BD00010B4090B583B000AFFC1D00F0FDFD031C23700C4B0C4A12680C490A408021C9010A431A60084B074A126807490A40E0
:40098000802109020A431A60FB1D1B78181C00F0E8FDBD4603B090BD00010B40FF3FFFFF90B585B000AF78600B23FC1800F0D5FD031C2370FFF7BEFF031E04D00123FB60A7
:4009C000FFF7C8FF01E00023FB607B680D4A13407B600D4B0C4A12680C4911407A680A431A60094B1B68FB68012B01D1FFF788FF0B23FB181B78181C00F0B3FDBD4605B0E7
:400A000090BDC0460404040010020B40FBFBFBFF80B500AF334B1B68042213401FD0324B1B680422134017D0304B1B6804221340DA432D4B1B681A402B4B1A602B4B1B688B
:400A4000042293431A1C294B1A60294B1B68002B02D0274B1B6898470420FFF7A1FF214B1A688023DB00134022D01F4B1A688023DB00134017D01D4B1A688023DB001340C4
:400A8000DA43194B1B681A40174B1A60174B1B68184A1A40154B1A60154B5B68002B02D0134B5B6898478023DB00181CFFF778FF0C4B1A688023DB02134011D00A4B1A68DE
:400AC0008023DB02134006D0094B9B68002B02D0074B9B6898478023DB02181CFFF760FFBD4680BD10020B40DC000020DC030020E0030020FFFBFFFF80B584B000AF021CF3
:400B0000FB1D1A700D4B1B68DAB20F23FB1801218A431A70FB1D1B7801221340D9B20F23FB180F22BA1812780A431A70034B0F22BA1812781A60BD4604B080BD000204400A
:400B400080B500AF064B1B78002B04D100F00AF8034B01221A7000F0E5F8BD4680BDC046F003002080B584B000AF0F200321FFF7A5FD534B0F20191CFFF77AFD514B012269
:400B80001A60514B1B68002B01DA504900E05049504B504A12680A431A604F4B4F4A1A604F4B504A1A60504B00221A604F4B504A1A60504B4E4A1A604F4B4F4A12688021D3
:400BC00049020A431A604D4B00221A604C4B00221A604C4B01221A604B4B1B687B607B684A4A13407B607B688022920513437B607B68012293437B60434B7A681A6000239E
:400C0000FB6057E00022DC239B0113407B60FB689B003F4A944663447A681A6000220123134009D0354B354A1268F96801208840011C89B20A431A6000220223134009D00C
:400C40002F4B2F4A1268F96801208840011C89B20A431A60002280239B00134003D080235B00BB6002E080235B01BB60002280235B00134005D1274BFA6852000021D15250
:400C800004E0244BFA6852000021D152BB68224A5343224A94466344181C1F4900F050FE031C9BB219B21E4BFA689200D150FB680133FB60FB68002BA4D0BD4604B080BD60
:400CC000610E000020003A4080033A40700210537002005300003A4004003A40BC00008018003A400000FF071C003A4010003A400200020014003A4000033A4028023A40B5
:400D000038023A4018023A4030003A40FFFFFFDF80003A40B41200201027000088130000B012002080B500AF0A4B1B68002B0EDBC046094B1B68002BFBDB064B054A126889
:400D4000802109060A431A600A20FFF74DFDBD4680BDC04600003A4008023A4080B500AF044B044A1268802149020A431A60BD4680BDC04604003A4080B584B000AF7860EC
:400D80007B68002B02D00020FFF700FD7B68002B09D17B689B00084A944663441B681B041B0CFB6001E00023FB60FB689BB21BB2181CBD4604B080BD80013A4080B584B07B
:400DC00000AF78600A1CBB1C1A807B68002B02D00020FFF7DBFC1F4B7A685200D35A99B2BB1C1A888BB2D31A9AB2BB1C1A80BB1C00229B5E184A5A43BB1C00215B5E002BC5
:400E000008DD164B79688900CB58002B00DA01335B1008E0114B79688900CB58002B00DA01335B105B42D1180C4B7A689200D358081C191C00F084FD031C1A1C0E23FB18E7
:400E40001A800E23FB181B881BB2181CBD4604B080BDC046B412002010270000B012002080B582B000AF044B1B687B60024B7A681A60BD4602B080BD10023A4080B500AF29
:400E8000064B00221A70064B00221A70054B00221A7000F009F8BD4680BDC0462B1D0020241D00202A1D002080B500AF00F048FBBD4680BDB0B58CB002AF78602623FB18F8
:400EC00001221A80204B1B78002B04D1FFF7D6FF1D4B01221A707B68002B2ED00C23FA181A4B111C1A1C1823081C111C1A1C01F0BCFA2623FC1816481649A6231A010C23AC
:400F0000FD18062300932B1C01F0DAFA031C2380114B7A681A602623FB181B88002B0CD10E4B01221A702623FC180D4B181C0D210A220CF087F8031C23802623FB181B88CE
:400F4000181CBD460AB0B0BDF40300203C18010099120000C0120020B8120020221D00202C19010090B585B000AF021CFB1D1A70FB1D1B78022B04D90E23FB1801221A80DC
:400F80004DE02A4B1B78042B44D1294B1B78DBB21A1C042313403DD1FB1D1B78002B0DD1244B00221A82234B5B68C822D2001A80204B5B68C822D2005A8010E0FB1D1B789F
:400FC000012B0CD11B4B96221A821A4B5B68C822D2001A80174B5B688022D2015A80164BFA1D12781A700E23FC18124B181C0AF09DF9031C23800E23FB181B88002B08D19D
:401000000B4B1B78DBB204221343DAB2084B1A7005E004E00E23FB180422FF321A800E23FB181B88181CBD4605B090BD221D00202B1D0020100100202A1D002080B584B06F
:4010400000AF78600A1CFB1C1A700023BB60BB68002B20D07B689A79BB681A700F23FB1800221A7012E00F23FB181B780133BA68D3180F22BA18127879688A5C1A700F23F7
:40108000FB181A780F23FB1801321A700F23FB181B78052BE7D9BD4604B080BD80B582B000AF78607B681B789AB27B6801331B789BB21B029BB213439BB2181CBD4602B030
:4010C00080BDC04690B585B000AF78600F23FB1800221A707B689B890922934237D17B681A1D7B680F217C18101C00211A1C40230BF0C0FF031C23700F23FB181B78002B96
:401100001DD17B685B68181CFFF7C8FF031C1A1C022313409BB2002B08D0104B1B68822251007A68081C111C984708E00B4B1B680622FF32111C7A68081C111C9847084B7C
:401140001B78DBB201229343DAB2054B1A700F23FB181B78181CBD4605B090BDB81200202B1D002090B585B000AF78600F23FC187B68181CFFF7A6FF031C2370144B1B78F0
:40118000DBB21A1C012313401FD10F23FB181B78002B16D00823FB1812229A707B689A890823FB181A800823FB180F22BA181278DA707B680822BA181868111C0BF0C4F969
:4011C00003E07B6818680BF025FABD4605B090BD2B1D002080B582B000AF7860BD4602B080BDC04680B500AF034B00225A70024B00221A70BD4680BD281D002080B582B019
:4012000000AF7860BD4602B080BDC04680B500AFBD4680BD80B584B000AF78600E23FB1800221A707B689B79002B1CD10F23FB1800221A7012E00F23FB181B787A68D35C50
:40124000002B04D00E23FB1801221A700BE00F23FB181A780F23FB1801321A700F23FB181B78052BE7D90E23FB181B78181CBD4604B080BD80B582B000AF021CBB1D1A804D
:40128000BD4602B080BDC04680B582B000AF7860BD4602B080BDC04680B584B000AF021C3960FB1D1A70984B1B78DBB201221343DAB2954B1A70FB1D1B78712B00D908E164
:4012C0009A00924BD3181B689F460C23FB1807221A700C23FB1800225A700C23FB18181C02F0D9FB0C23FB1807221A700C23FB1801225A700C23FB18181C02F0CCFB844BA3
:401300001B68181CFFF786FF031E11D0804B1B68181C01F0C3F87E4B1B68181C0021FFF78DFE7B4B1B68181C0121FFF787FE19E0784B1A78784B1A70784B1A78764B5A7094
:40134000774B1A78744B9A70734B181C01F0A6F8714B181C0021FFF771FE6F4B181C0121FFF76CFE002009F0D9FE6E4B04221A70B0E03B68181CFFF741FFABE03B681A7833
:40138000694B1A70A6E0604B1B78DBB21A1C2023134007D1654B1B78102B03D1634B0522DA7097E096E03B68181CFFF76DFF91E03B68181CFFF768FF5A4B02221A7089E002
:4013C000584B04221A7085E0564B1B78022B34D04D4B1B78DBB21A1C012313402DD04A4B1B78DBB21A1C042313400BD04D4B03221A70454B1B78DBB204229343DAB2424B22
:401400001A701AE0404B1B78DBB21A1C082313400BD0444B04221A703B4B1B78DBB208229343DAB2384B1A7007E03E4B1B78032B03D13C4B04221A704CE04BE03B681B8897
:40144000181CFFF717FF45E0394A3B68111C1A1C0223081C111C1A1C01F007F8344B1B785A00344BD318344A111C1A1C0223081C111C1A1C00F0F9FFFFF7C8FE2AE0FFF7DB
:40148000B1FE27E03B685B88162B05D80E23FB183A6852881A8003E00E23FB1817221A803B680E22BA1811881A8800231204120C1B0C1B041343181C0BF052F80AE03B68A5
:4014C000181CFFF74FFE05E03B68181CFFF782FE00E0C0460C4B1B78DBB21A1C112313400FD0094B1B78DBB201229343DAB2064B1A70124B1B68FA1D11783A68081C111C03
:401500009847BD4604B080BD2B1D0020801A01002C0100207CF1FF0F240100207DF1FF0F7BF1FF0F221D0020241D002094010020281D002000190100201D0020B812002097
:4015400080B500AFBD4680BD0230800803D00138FDD1C046C046C0467047EFF3108072B6704780F31088704790B583B000AFFC1DFFF7F3FF031C2370074B074A12680421BB
:401580008A431A6030BFFB1D1B78181CFFF7E9FFBD4603B090BDC04610ED00E080B582B000AF78600A1CBB1C1A80BB1C1A887B681A60BD4602B080BD80B582B000AF786017
:4015C0000A1CBB1C1A80BB1C1A887B681A60BD4602B080BD80B582B000AF304B1B78DBB21B022F4A1278D2B213437B602D4B1B78DBB21B022C4A1278D2B213433B603B6839
:401600002A4A934207D17B68072B04D1284B3B6004237B6009E03A68D4231B019A4204D17B68042B01D1224B3B60224B3A681A60214B7A681A60214B1B78DBB21B02204AF0
:401640001278D2B213437B607A6880239B019A4202D07B68002B01D11A4B7B601A4B7A681A601A4B1B78DBB21B02194A1278D2B213437B607B68174A934206D07B68164A05
:40168000934202D07B68052B01D1144B7B60144B7A681A60BD4602B080BDC046D9F0FF0FD8F0FF0FDFF0FF0FDEF0FF0F580B0000580D00006C002E4074002E40DBF0FF0FEE
:4016C000DAF0FF0F0220000078002E40DDF0FF0FDCF0FF0F0F0F000005050000050F000080002E4080B582B000AF021CBB1D1A80BB1D1B88181CFFF777F8BD4602B080BD7F
:4017000080B582B000AF78607B68181CFFF748F8BD4602B080BDC04680B500AF00F066F8BD4680BD80B500AF00F06AF8BD4680BD80B500AF00F064F8044B181C00F024F8CF
:40174000032000F02DF8BD4680BDC0461518000080B500AF024B181C00F004F8BD4680BD1518000080B582B000AF786000F048F87B68181C00F008F8032000F011F800F0CF
:4017800035F8BD4602B080BD80B582B000AF7860024B7A681A67BD4602B080BD0000002090B585B000AF021CFB1D1A700623FB600B23FC18FFF7D1FE031C23700A4B0A4A8B
:4017C0001268C0218A43111CFA1D1078FA689040021C0A431A600B23FB181B78181CFFF7C0FEBD4605B090BD0CE400E080B500AF024B802252011A60BD4680BD00E100E0AC
:4018000080B500AF024B802252011A60BD4680BD80E100E080B500AF0FF0CAFFBD4680BD002243088B4274D303098B425FD3030A8B4244D3030B8B4228D3030C8B420DD38C
:40184000FF22090212BA030C8B4202D31212090265D0030B8B4219D300E0090AC30B8B4201D3CB03C01A5241830B8B4201D38B03C01A5241430B8B4201D34B03C01A524123
:40188000030B8B4201D30B03C01A5241C30A8B4201D3CB02C01A5241830A8B4201D38B02C01A5241430A8B4201D34B02C01A5241030A8B4201D30B02C01A5241CDD2C309F3
:4018C0008B4201D3CB01C01A524183098B4201D38B01C01A524143098B4201D34B01C01A524103098B4201D30B01C01A5241C3088B4201D3CB00C01A524183088B4201D34C
:401900008B00C01A524143088B4201D34B00C01A5241411A00D20146524110467047FFE701B5002000F0FCF802BDC0460029F7D003B5FFF775FF0EBC4243891A1847C04629
:4019400003460B437FD4002243088B4274D303098B425FD3030A8B4244D3030B8B4228D3030C8B420DD3FF22090212BA030C8B4202D31212090265D0030B8B4219D300E0BA
:40198000090AC30B8B4201D3CB03C01A5241830B8B4201D38B03C01A5241430B8B4201D34B03C01A5241030B8B4201D30B03C01A5241C30A8B4201D3CB02C01A5241830A37
:4019C0008B4201D38B02C01A5241430A8B4201D34B02C01A5241030A8B4201D30B02C01A5241CDD2C3098B4201D3CB01C01A524183098B4201D38B01C01A524143098B42F8
:401A000001D34B01C01A524103098B4201D30B01C01A5241C3088B4201D3CB00C01A524183088B4201D38B00C01A524143088B4201D34B00C01A5241411A00D20146524180
:401A4000104670475DE0CA0F00D04942031000D34042534000229C4603098B422DD3030A8B4212D3FC22890112BA030A8B420CD3890192118B4208D3890192118B4204D37E
:401A800089013AD0921100E08909C3098B4201D3CB01C01A524183098B4201D38B01C01A524143098B4201D34B01C01A524103098B4201D30B01C01A5241C3088B4201D379
:401AC000CB00C01A524183088B4201D38B00C01A5241D9D243088B4201D34B00C01A5241411A00D20146634652415B10104601D34042002B00D54942704763465B1000D34B
:401B0000404201B5002000F00BF802BD0029F8D003B5FFF715FF0EBC4243891A1847C0467047C046F0B556464D465F464446F0B443024500C70F83B08A465C0A2E0EB94629
:401B400041D0FF2E26D080231B042343DC00002398469B467F3E53465B025D0A53465A00DB0F120E9A4639D0FF2A33D080231B042B43DD0000237F3A5146B21A464679408E
:401B8000081C01921E430F2E00D976E07E4AB6009659B746002C30D108239846063B9B46D9E780230021DB03FF245B02E4055B0AC90723430B43181C03B03CBC9046994697
:401BC000A246AB46F0BD002C28D104239846033B9B46C0E7002D1FD1022302E0002D11D10123B21A50464646784001921E430F2E27D86649B60089598F460C239846093BD5
:401C00009B46A8E7281C00F0DDFB7622431F52429D40121A0023AFE70323ADE7201C00F0D1FB431F9C4076235B421E1A002398469B4690E70025D1469B465B464846022BA8
:401C40006FD10121FF2401400023AEE77E23019A5B429B1A1B2B6DDD01214B46194000240023A2E78023DB031C4249D18023DB0323435B025B0A391C96E763016D01AB42B9
:401C800037D389461A2001215B1B01241E1C49005B00002E01DBAB4201D35B1B214301380028F3D1581E83410B431D1C019C7F34002CCBDD6B0704D00F232B40042B00D0E5
:401CC00004352B0104D5019A314B8032141C1D40FE2C07DD4B460121FF241940002364E7251CAAE701214A46AB015B0AE4B211405BE7019A8946013A01921B200021C4E7A8
:401D00001D4207D023435B025B0A391C4CE700256302ABD58023DB032B435B025B0A514642E7032B25D0012BC0D101210024014000233AE7291CD9402B1C019A9E329340B4
:401D40005D1EAB410B435A0704D00F221A40042A00D004335A0105D54B46012101241940002322E701214A469B015B0A114000241BE7802301214A46DB032B435B020A40B5
:401D80005B0A111C10E7C046481C0100881C0100FFFFFFF7F0B55F4656464D464446F0B445024600C40F83B00F1C6D0A360EA34645D0FF2E25D080231B041D4300239A4631
:401DC000ED007F3E01937B025B0A98467800FB0F000E994640D0FF2838D0802342461B041343DB00984600237F384A46019F30186240411C1F430F2F69D87D4EBF00F659D3
:401E0000B746002D45D108230193063B9A46DAE793465346022B2FD15B46012400251C40FF236D02DB056D0AE4071D432543281C03B03CBC90469946A246AB46F0BD002DE9
:401E40002CD104230193033B9A46BCE743465A4253410322D31AC8E742460123002AC4D0404600F0AFFA4246431F9A4076235B42181A90460023B8E7032B00D1ADE0012B6A
:401E800000D08CE05B4654461C40E4B200230025C7E70C230193093B9A4694E7281C00F091FA7626431F9D4000237642361A01939A4688E780250024ED03FF23B1E74546BB
:401EC000CB469A46A5E7454693469A46A1E743462C041B0C9C46230C444626041C1C360C2F0C7443351C66467D4373437743EB18260C9E19B54203D980235B029C4667440F
:401F000024043304240C1B199D016C1EA5419B0E360C2B43BD19AD011D432B0104D5012368081D400543081C031C7F33002B2CDD690704D00F212940042900D004352901EF
:401F400003D52C4B1D40031C8033FE2B17DD0124FF231440002564E78020C003054209D04346034206D1454605436D026D0A4C46FF2356E705436D026D0AFF2351E701243C
:401F8000AD016D0ADBB214404BE77E235B421B1A1B2B07DD012400231440002541E7081C5A46C1E79E30291C8540D940681E85410D436B0704D00F232B40042B00D004354F
:401FC0006B0104D5012401231440002529E70124AD016D0A1440002323E78023DB031D4301245B466D0223401C1C6D0AFF2318E7C81C0100FFFFFFF7F8B54A00430244005D
:402000004D02C00F240E061C9B09120EC90FAD09FF2A00D175E001277940884250D0A01A002800DC8FE0002A1ED1002D00D075E05A0704D00F221A40042A00D00433802293
:402040000120D2041A403040002A32D00134FF2C00D184E09B015B0AE4B25B02E4055B0A2343C0071843F8BDFF2CE1D08022D20415431B287ADD01255B1B5A015DD59B0154
:402080009F09381C00F09EF905388740844269DC001B1F243A1C431C201ADA408740131C7C1EA74100243B43C2E7131E45D100230020DB08FF2C28D05B025B0AE4B2CCE7C9
:4020C000A11A00295BDD002A2ED0FF2CB0D08022D20415431B2974DC2F1C2022CF40511A8D40691E8D413D435B195A0125D50134FF2C74D001217E4A194013405B080B4330
:4021000096E7002D00D088E785E7002B27D08022D20313435B025B0AFF249EE701380028AAD0FF2CA5D183E7002D00D180E701390029D9D0FF2CCDD17AE75A0700D079E7DF
:4021400001203040B5E7002825D1621CD2B2012A55DD5F1B7A012DD5EF1A0E1C91E7FF2400237AE7624B241A3B4061E7291C2022C140101A8540681E85410D437CE700291F
:4021800046D1621CD1B201292BDDFF2A26D0EB185B08141C4CE7002C15D0FF2A1AD08024E404404223431B284DDD0123EB1A141C0E1C62E7002F00D063E70023002000246C
:4021C00077E7012590E7002B39D0C0430028EDD0FF2AE8D12B1CFF240E1C29E7FF24002367E7002C5AD1002B7FD0002D00D11FE75B195A01A1D53E4A0134134018E7002C59
:4022000015D1002B2FD1002D5ED02B1C0E1C0FE7002C21D1002B54D0C943002904D0FF2A4CD01B2958DD01235B19141C5DE7002B23D1002D4BD02B1C0E1CFF24F8E62B1C6B
:40224000141C0E1CF4E61E1C2024C640201A8340581E83413343A9E7FF2A2FD08024E40449422343DDE7002D00D1E1E65A1B500100D41AE7EB1A0E1CDAE6FF24002D00D190
:40228000D6E68022DB08D203134204D0ED08154201D12B1C0E1CDB00FF24C9E6002B0DD0FF24002D00D1C3E68022DB08D2031342F1D0ED081542EED12B1CECE72B1CFF24D2
:4022C000B6E62B1C141CB3E6231C0020F1E6802300209B04FF24ECE61F1C2024CF40611A8B40591E8B413B439EE72B1CA0E6C046FFFFFFFB4202510A4200C30F120E0020CD
:402300007E2A0DDD9D2A0CDC802000040143952A0ADC9620821AD1400A1C58424240D0187047034A9818FBE7963A91400A1CF4E7FFFFFF7F70B5041E39D0C50F00D0444214
:40234000201C00F03FF89E23261C1B1A962B07DC082801DD083884406402640AD8B21EE0992B0ADD0522211C121AD1400A1C011C1B318E40711E8E411643052801DD421FE4
:4023800096400F4C3440720704D00F221640042E00D0043462010ED4A401640AD8B26402C005640AED0704432C43201C70BD002500200024F3E7024B1C409F231B1AEBE727
:4023C000FFFFFFFB1C2101231B04984201D3000C10391B0A984201D3000A08391B09984201D30009043902A2105C40187047C04604030202010101010000000000000000F8
:402400000E4B70B500251E1C0D4CE41AA410A54204D0AB00F35898470135F8E70FF074FC084B00251E1C084CE41AA410A54204D0AB00F35898470135F8E770BD141D0100E4
:40244000141D0100141D01001C1D010030B50024944208D0035D651C0C5DA34201D0181B02E02C1CF4E7002030BD002310B5934203D0CC5CC4540133F9E710BD031C821858
:40248000934202D019700133FAE7704710B501F059FA10BD10B500F0ADF810BD10B50749044609780220002907D1204601F06BFA002802D1204608F01BFF10BD9202002070
:4024C000FFB51E4F81B00646397800200A9D1C46002902D0082005B0F0BD0299002900D10120002E27D0002C25D00028F3D101F029FA032D05D9A0894008A081A07B4000E8
:40250000A0732B4622460399029800F019F80028E1D17D7001F01EFA0028DCD130467E6006F0D4F80028D6D106F0EAF80028D2D101213970CFE70120CDE70000980100203C
:40254000FFB5002481B01D460F460646002806D00398002803D030463843800701D001243CE0032DFBD91F488742F8D3FFF7F0F8FFF7D8F800F098FA00282DD100F0F4FB06
:40258000002829D11849084600F0C6FD0004000C22D13046154E3060B7800020F0803581AD1DEFB23946039800F066F804000ED1B088F2880837801AF9B280B201F09CF80B
:4025C000002801D0012407E0E8B200F00DF900F025F907490120087000F078FA204605B0F0BD0000D8080000F526000018040020A001002010B503480078012801D100F0BA
:402600001DFF10BDA001002070B5084B0446DA889E8800205518B54206D21D68AA182260DA885118D98070BD032070BD1804002001480089704700001804002030B50C4BA3
:4026400004461B7A01209C4210D20A4D2B68002B0CD0A000002902D0C3185B8B0B80002A03D029684018407E1070002030BD000018040020A4010020F3B582B00C46002044
:402680008900009001916846FFF7BEFF164D00992960002826D1002317E09A002968062B8B5406D2114E9619777851184F70718806E0029E9619203EB77A51184F70318979
:4026C0002E6892195B1C5180DBB2A342E5D3002808D168460199FFF797FF002802D1044A0099116004B0F0BDA4010020801D0100A80100207047000010B5002809D00549A7
:402700004A68002A05D0011F08788000105800F0A1FF10BDA401002010B50446FFF788FFC0B2801D0749A04202D24868002808D04968A000085800F0FFFE002801D00470E2
:40274000001D10BDA4010020F8B516460D460446FFF76EFFC0B2801DA04203D20020C0430090F8BDB2B2E9B2684600F00BFF0099481C03D0024AA000526811500098F8BDA8
:40278000A4010020F1B50027FFF752FF801DC6B20B48002504680FE0607800280AD061880098814203D32078FFF7B6FF0746002F04D1241D6D1CEDB2B542EDD33846F8BD7D
:4027C000A401002010B50446FFF732FFC1B200208C4202D2A01DFFF79FFF10BD10B5002801D0FFF789FF10BD70B506460948002504680BE06178002905D062882078121DBC
:402800000023FFF7A1FF241D6D1CEDB2B542F1D370BD0000A4010020002070471CB5002469460C70142001902346054A05480CF093FB04480068401C00D1FF2420461CBD3B
:4028400099280000AC0100203EB5124A0146FF2000230124126800290DD0012914D0042908D104206946009308814B8110460CF06EFB80B23EBD684600930481438169465D
:4028800010460CF05FFBF4E768460093048143816946EBE7AC01002070B54589046841680089030000F026F806240408081D2124002004F0E1FE1BE0022908D0C8B22A469C
:4028C00021460AF035FE2046FFF788FF10E002202A4621460AF02CFE2946204600F018F806E000200CF02CF802E020460CF0BAFB002070BD30B47446641E2578641CAB42E9
:4029000000D21D46635D5B00E31830BC18470000014B0022DB681847B001002070B5448905680089022803D0032809D0FF2070BD2246094C0023A46829460120A04708E0A0
:40294000FFF7A4FD241DA2B200232946022005F0A0FD002070BD0000B001002070470000024800214160018041807047B001002070B50C46002186B016460391012802D081
:40298000022859D116E003A9012005F0DAFD01281BD1039D324621462846FFF766FD0095287801900220694608814E816846FFF7B5FF41E0214D002B686809D0049004A9EE
:4029C000022005F0BEFD01281DD0022006B070BD002812D0298840182146FFF746FD28880024801980B228806988091D884206D12C801348FFF792FF03E00320E6E788420D
:402A00001AD96C6018E004986860E278A378110219430B4A698000231060E3565360032313815181A1788170E178C1706178417021780170042028800020C7E7B0010020BB
:402A4000240400203EB515460C46022803D004280CD000203EBD0091019002206946088107484A8100680CF072FA07E00AF060FD044B0022DB6829462046984701203EBD26
:402A8000AC010020B0010020014AD16090607047B0010020034801688068081A0A214843000970473004002010B5FEF741FE542204490548FFF7D9FC03490120C870002063
:402AC00010BD00009C1D01007005002010B5FEF723FE10BD70B5134C2368002B08D0207B1149C20705D04008400020738868A08070BD88680B4AA18880B29268814203D9DC
:402B00000A4D691A091802E0814202D2411A5118A160A080A0689842EAD300F015F80CF033FA70BD30040020C0102E40FFFF000010B508461946FFF7A7FF10BD704710B563
:402B4000FFF780FF10BD000003480021016041608160C160704700003004002010B502000DD0FFF7F1FF074C0321207B0843207310010A21FEF7DAFE2060002010BDFF2089
:402B800010BD00003004002000B504480A21806848430209FFF7D8FF104600BD300400200248007B8007C00F704700003004002070B545490868CA0410430860434AD0687F
:402BC00053051843D0600868002802DA404B01221A700222904308603B480E216C30FEF7EBFC394801216030FEF7E6FC394C3A4D21462846FEF7E0FC374838496C38FEF768
:402C0000DBFC0A20FEF77CFD33487C380069C30B2D484030026A134254D0012000F028FA21462846FEF7C8FC2B4820210830FEF7C3FC294814212030FEF7BEFC2648FF2161
:402C4000C1312830FEF7B8FC2348FF212F313430FEF7B2FC204822494030FEF7ADFC1E4820493030FEF7A8FC1E491B48491C3830FEF7A2FC18481C493C30FEF79DFC16487F
:402C80001A495030FEF798FC134819497438FEF793FC114817492C30FEF78EFC0E4816490C30FEF789FC0C4814491030FEF784FC09481921C9021430FEF77EFCFEF78AFCD2
:402CC000002070BDFF2070BD00F02E4000020B40C0010020556500007C002E4092C90000320300002F3F00003102000010520000EC160000FA12000031D000003AE300004C
:402D000070B50646581C80B245086D00002408E0304600F07FF81055000A1119A41C4870A4B2AC42F4D3D80705D0D0182038D15CC47FD454C17770BD30B50A4C0021001957
:402D40005B1E07E0541864782502545C2C430480891C89B29942F5DB994201D1515C018030BD000000102E4010B5FF2000F080F90F49FF2048700E481021801D418001218D
:402D8000417001700A490020C91C4870FFF710FF04000AD100F0CCF807210648FEF7FEFB044807211830FEF7F9FB204610BD0000C0010020CC112E4030B504465B1C18041F
:402DC000450C002308E0204600F024F8241D59005B1CA4B250529BB2AB42F4D330BD000070B500210A4D5B1E0AE0541864782602545C344346193480001D891C80B289B235
:402E00009942F2DB994202D1515C4019018070BD00102E40014940180088704700102E40014A80180180704700102E4010B50B490020487000F07CF8002000F03FF9002055
:402E400000F02CF907210648FEF7A8FB044807211830FEF7A3FB002010BD0000C3010020CC112E4010B50B46062812D006DC01280CD0032801D1FFF7D9FF10BD0A28FCD021
:402E80000B28FAD105480078107010BDFFF76CFF10BD1146184600F02DF910BDC6010020F8B5204DAC6A0127A0071F4E002816DA307806280ED1286A384328621B480069B9
:402EC000F903084381B219481030FEF775FB042000F0CEF8134802212830FEF75FFBE00711D0062000F0C4F80F49FF20C91E48707078002802D1686B384368630948012134
:402F00002830FEF74BFBE0050BD53078042802D1052000F0ADF80348FF2101312830FEF73DFBF8BD40F02E40C301002000002E4010B503212348FEF73FFB0120FEF7D2FBAB
:402F400020483038406A204C80076178800F890001431C480C38FEF72FFB6078002808D0401E022181401820FEF7D0FDC000083800E0B82081B21548FEF71EFB13480321FF
:402F800009021438FEF718FB10481149B830FEF713FB452189010F48FEF70EFB0D480321001FFEF709FB0C490C48FEF705FB0B480B496038FEF700FB084801218838FEF74B
:402FC000FBFA10BD70F02E40C6010020D8102E4090890000041E2E40FF0F000058122E40209000000849087806280BD148780749002803D1486B400840004863C86A0122A3
:403000001043C86270470000C301002040F02E400148007870470000C301002000B50300FFF768FC080D050D0B070507090D012000BD032000BD042000BD022000BDFF2074
:4030400000BD0000074A9168D26889B2064B92B2994204D105498A4201D1012100E000210170704780002E4033D000003FE3000010B50446FEF756FB072C01D9FF2C01D1E6
:4030800002480470FEF748FB10BD0000C30100200149487070470000C001002010B5064A012805D01921C9021046FEF785FA10BD1D21C902F8E7000090002E4010B50A4A21
:4030C000141D012808D009491046FEF775FA08492046FEF771FA10BD04491046891CFEF76BFA0349491DF3E788002E4031D000003AE300000078074AFF2803D04C2804D958
:40310000553803E01078087070474F380870107070470000C201002010B50F4A002313600E4A13600E4B18600E4801600E49012008600E490860000290600E490C480860A4
:403140000D4914300860FF381538506000F0BCF800F0CAF9002010BDE4010020CC010020F8010020FC010020E8010020D801002040050020DC010020F0010020014610B52C
:403180000020002910D0094B1A689C685118A14209D25868196080188A0704D08A07920F891A091D196010BD002010BDCC010020F8B50024164E671E321F3D4631681368F2
:4031C00006E01422624310328A58521C1BD0641C9C42F6D36A1C14D02C461422544322460C3288500C214843FFF7C8FF3168002808510AD031680020103408517068401C50
:4032000070602846F8BD2546E4E73846F8BD0000DC010020F3B50026F64381B000281BDB1E490968884217D80299002914D01B4F142204463F1D54432546396810354859D7
:40324000401C09D0FEF76EFA38682F1F4159C359994203DBFEF760FA3046FEBD214608310091465801590C20704308180C220299FFF7FBF80948761C001D0068C159B14290
:4032800000D100260549009A091D865008684159491C4151FEF740FA0020FEBDD8010020002803DB07490968884202D90020C043704704491422091D09685043103008589C
:4032C00070470000D8010020F0B500200D4A451E0346171F50600FE014260146714314680E1DA3510C461668083433511668083435511468401C635039688842ECD300200C
:40330000F0BD0000DC010020F3B50026F64381B0002841DB2349096888423DD8029900293AD0204F142204463F1D54432546396810354859401C2FD0FEF7F4F93868415992
:4033400000292BD0211D009146580C21005971430F46C1190C220298FFF787F811480021001D0068761C00590C34C0190160416081600C48001D00680159B14200D1002613
:403380000849009A091D865008684159491E4151FEF7C2F90020FEBD3046FEBDFEF7BCF9FAE70000D8010020FEB504460D4600201E49089E0860471E009001900290002CBA
:4033C00011D0486885420ED2002A0CD0002E0AD0642E08D808460C3001681C2068430C18207A002801D03846FEBD0120226020721846FFF7DDFE6060401C13D06681A681DA
:403400000A4827610C3067610179A94200D205710021684601810A462846029B00F040F82846FEBD00202072DDE70000E401002038B50124009400F039F838BDFEB50027F3
:40344000164EFF433D4600240EE01C20316860430818017A002906D04068FFF721FF002801D0254603E0641C3079A042EDDA681C12D01C2130684D434419FEF753F9694610
:403480006068FFF741FF0546FEF746F9002DD9D1216868468847D5E7FEBD0000F001002038B50024009400F001F838BD1FB500220C49541E0A60002811DB496888420ED80B
:4034C00008491C220C31096850430818406801A9FFF7A0FE401C02D0002004B010BD2046FBE70000E4010020F0B50021114A4D1E174611710C3F0B46BD6016E008461C2432
:4035000060431668041D355114680646235014680836A3551468361DA353044616680A34335318301468491C255078688142E5D30020F0BDF001002038B5002100910028E7
:4035400011DB0F49097888420DDA0D4D04010C3529680859002807D0201D0818694600F06DF9002801D0002038BDFEF7DBF828680F34015D491E0155FEF7CEF8009838BDD6
:4035800000020020F7B582B0002502986E1E06602E48D21C024017462D4A2C4610460C380178106805E02301C358002B0FD0641CE4B28C42F7D3711C28D03401211D4018B7
:4035C0000191039900F028F900281FD101E02646F1E71F48016820460C300F521C480399026820460E30115419480399026820460F3011540398784300F0A0F81449002835
:403600000968085102D00024009011E001251AE00F48016801980818009900F02AF9002801D0012502E00098C0190090641CE4B203988442ECD3002D05D10298066004487D
:403640000179491C0171284605B0F0BDFCFF00000C020020F8B50D4600216A468C461180002839DB23490978884235DA214B04010C3319680A59002A2ED020460C300B5A07
:40368000801C0E5C184670438018954224D3854222D2002006E007465F43BF18AF4206D0401CC0B2B042F6D36046002814D0114E271DC8190C366A46294600F004F900280A
:4036C0000AD168460088012808D030682946C01900F0CFF8002803D00120F8BD0020F8BDFEF720F830680F34015D491C0155FEF713F8F3E700020020F8B50F46002400F068
:4037000033F8002817D10C4900220B460C334A600EE021011D680E466A501D680C36AA53B61C1D680F31AA551D68641C6A54E4B2BC42EED31A71F8BD00020020014610B51A
:40374000002000290CD0C91C064B8A08596892005C888A18A24202D898685A60401810BD002010BD00020020F8B5044600200D4E009031700D01748029466846FEF744FFDD
:4037800000280DD131460C3100980860601B001F81B26846FEF738FF0099B160002800D0FF20F8BD00020020F8B5002827DB19490978884223DA174C05010C3421684859BC
:4037C00000281CD028460C30085A009028460E300E5C401C0E5420682F1DC01900F064F800280CD12068002445590EE0094829460C300068C01900F03CF8002801D0012094
:40380000F8BD00982D18641CE4B2B442EED30020F8BD00000002002030B50D4604000BD0A800FFF78BFF6060002805D000202570C0436080002030BD012030BD70B50D460B
:40384000040005D0002D03D00220205E002801DA012070BDFDF766FF0221615E60688900405828606088401E6080FDF755FF002070BD70B50D46040007D0002D05D002219F
:403880002078615E401E814201DB012070BDFDF749FF6088401C00B26080616880000D50FDF73AFF002070BD10B5040009D0227800216068FEF7E2FD0020C0436080002018
:4038C00010BD012010BDF0B500231D46002802D00224045F0AE00120F0BD46689F00F6598E4201D1012503E05B1CDBB29C42F4DA15700020F0BD00000148007870470000E6
:40390000140200207CB505460024FEF7BFFDA8796946087000A8062229460130FEF7A5FD0021684604F006F90C2804D0072804D01F2804D004E0022402E0042400E027248A
:4039400020467CBD10B500F001F9FFF761FBFFF765FB10BD10B503240BF0FEFF002810D10BF0A2FF00280CD104F03AFE002808D100F0AEFA002804D104F036FB002800D116
:403980000024204610BD70B50025044600280ED0A07901280BD8FEF779FDA0790028204602D002F025FE03E002F0DAFD00E00125284670BD70B592B00E4605460024FEF78C
:4039C00065FD02F0B9FA00280AD000F0E8FB002806D0002D0ED0EA7F1F2A03D9012409E002242EE000A829460130FEF73EFDE87F69460870002E0FD0002C22D1F27F1F2A26
:403A000001D901241DE008A831460130FEF72DFDF07F08A9087001E0002C12D10020002D04D010A9684600F0F3FB0120002E04D010A908A800F070FC01E0002801D000F073
:403A40006DFB204612B070BD38B504460120002C20D0617801291DD800290BD0FF25E535FEF714FD2846FFF7D5F9C0B22070072803D00EE0FF25CD35F2E70020694608706B
:403A80006846FFF7DFFA69460878012801D108202070002038BD70B504460120002C1FD06178012902D92278092A19D8002905D0FF25E5352078092803D004E0FF25CD3569
:403AC000F8E707202070FEF7E1FC2078082808D00020FFF7F3FA21782846FFF7A1F9002070BD0120FFF7EAFA0721F5E770B50D46040001D0002000E00548002802D0012122
:403B000001F0A6FF2946204602F088FA70BD0000E405002038B5054600200446009022466946284600F06CFE0098002801D00BF0F5FEA878214602F0ADF8A878214602F049
:403B40009CF8641CE4B2052CE9D338BD38B5FFF75FFA042819D0052817D006281AD0032842D007280AD100206946087002460120FFF778F9FFF74CFA0128FBD138BDFDF7C4
:403B8000F3FCFFF745FA0128F8D0FFF741FA0128F5D138BD02F0E6F805E0FDF7E5FCFFF737FA012803D0FFF733FA0128F5D1A12424012046FFF72EF901220E4983079B0F01
:403BC0000A70022BE5D149880029E2D0104301462046FFF725F92046FFF71CF9410849002046FFF71DF938BD02F0C0F80120FFF73FFA38BD1A020020F8B50646002402F004
:403C0000FBFD0546304602F00FFE00210346012632468A40174610462F401840002F03D0002801D1224394B2491CC9B20529EFD32046F8BD1CB50020694648706846FFF7F1
:403C400003FF01AA69460A20FFF70CF96946042008561CBD10B50C4601F076F9002809D00179002906D0C1788078224602F084FA002010BD022010BD01480078704700006B
:403C8000B00500204030C07E002800D00120704700B500F001F800BD88214843064940186030417F491CC9B24177052901D300214177C8B270470000C405002013B501F0E5
:403CC00043F904000BD001F096FC002807D0214601AA0A310620FFF7C5F800201CBD02201CBD000010B50C4601F02EF900280AD001F081FC002806D0224604490A20FFF79B
:403D0000B1F8002010BD022010BD000099050020F3B581B0074601460026029802F064FD0446002F01D0002500E0154D002D21D0284601F03FF9032C04D13946029802F04B
:403D40007DFD06463846029901F097FF032C06D0002C10D00121384601F01AFA03E03146384602F01FFF284601F058FE0221284601F06EFEFEBD3846029901F07EFFFEBD9F
:403D8000E405002070B50446002503F00DFB002801D00C2070BD2078611C02F0E7FAFF2802D01F25284670BD02F034FBFF2804D02178621C01F0D6FEF4E70725F2E710B5BC
:403DC00003F0F2FA002801D00C2010BD02F0A6FA002010BD70B50D46044610210BF0DEFC1021601806460BF0D9FC334610221946204603F005FB102130460BF0CFFC0220F4
:403E00002870204604F048F870BD70B504464078217802028006850FE0781143A67809050002090D0643084601F08EF8002812D0022D10D0032D0ED0002E08D0017909296E
:403E400009D0002907D0214600F0A1F870BD0089002103F056FF20460BF060FD70BD0020704770B50446002503F09EFA002801D00C2070BD2078611C02F078FAFF2802D0B5
:403E800002F0BAF900E01F25284670BD10B504F0ABF800F0F6F8002010BD10B5044600786178E2780843A17811430843217908436179084305D003F069FA002803D00C205E
:403EC00010BD122010BD204602F092FB002010BD10B5044803F0D2FA02F098F900F004F8002010BD80050020F8B5114D00266E706E736E716E76AE76EE766E75AE70EE70B9
:403F0000AE712F46EE730120B03778723F2078719B20B87100F00AFA0024204601F032FB641C2406240EF8D03E72FE71AE73F8BDC405002070B505460E46084602F05CFCF4
:403F40000446304602F070FC0121A9400A46224001400A4301D0012070BD002070BD10B50446084602F060FC0121A140014201D0012010BD002010BD10B5FFF749F80328A8
:403F800004D101F0F3FE0120FFF772F810BD70B5044600790D4609281CD000281AD020464030817E491C8176204601F037FDA078FFF76EFE064602462946204600F00CF8FF
:403FC000002806D1A0783146FFF790FD28460BF0A5FC70BD0846FAE7F7B5054648780C468006870FC8788978000282B0014368468180284601F00AFB060007D021462846A7
:40400000049A00F091FB304605B0F0BD384600F039FC0746034601AA2946204600F0CAFA68468088231DC0B20090A878FF22049901F0AEFF684680883B46C2B2A878049945
:4040400002F052FBDFE770B5002500242846FFF7D3FD060010D03046E040C007C00F07D02146284601F0FDFD21462846FFF750FE641CE4B2052CEED36D1C2D062D0EE4D024
:4040800070BD10B502F0C2F8FFF72EFF0BF0AEFC002010BDF8B5002400F081F80123012800D10124104F00203E4620360425082203E0002801D0002100E031460979002985
:4040C00007D001290BD002290BD0114681402143CCB2401C0006000EEBD07C70F8BD1C43F7E72C43F5E70000C405002010B5FFF7D1FF10BD10B50B4681791943817103D01E
:404100008078114602F0B4FA10BD10B582798A43827102D1807802F0C3FA10BD70B5FF25D53502242846FEF775FE0C4A9178002901D0022906D1137852789A18282A01D91F
:40414000032402E0032900D101244105490DE00201432846FEF764FE70BD00001602002010B500F022F8002807D0012805D0032801D0042801D0002010BD012010BD014641
:4041800010B50020C90701D000F009F810BD014610B50020C90701D000F001F810BD10B52020FEF737FE000A10BD10B51820FEF731FE410501D5042010BD4007800F10BD61
:4041C00038B5044640060CD5684601F0D5FD0220FFF78CFF072002F035F96846007801F03FF9200613D5FFF7E0FF01280FD1684601F0C2FD6846007800F09AFA072002F0AA
:4042000021F9012001F072FC0220FFF76FFF38BD10B5034A0178117002F023F9002010BD1602002010B50446FFF7B9FF002801D00C2010BDA27B01211848002A827801D0E7
:404240000A4301E05208520082706279012A0FD0C17849084900C170207901280CD06188208802F00DFF2080207904280BD00DE0C2780A43C270EFE7E01D02F0A1F90848C7
:40428000808C208002E0E01D02F09AF9054920798870204602F0F4F8002010BDC4050020700500201602002038B50478FFF777FF844201D10C2038BD002C18D007206946B0
:4042C0000870FFF74DFF012807D10121684600F08DF8012801D0092038BD6846007802F0B1F8FFF71BFF02F0F8F8012010E0FFF737FF012806D1684601F03EFD68460078B6
:4043000000F04AFA072002F09DF802F0DDF80220FFF7ECFE002038BD10B5034A0178517002F07EF9002010BD1602002038B568460BF08AFA002801D01F2038BD01210098E2
:40434000C90201804180002505714571857107214173857302F094F8009C202200212046FEF78CF825702A460021601CFEF786F8204602F076F8204602F052F900980BF0A8
:40438000CDFA042200210248FEF778F8002038BD160200200346084800B5834209D8184600F0D2FD002804D00089984201D1012000BD002000BD0000FF0E0000074A91798E
:4043C000491C8906890E917138220A4092014907090E11430843024908407047C4050020FF0E0000C006C00E70470000F8B507460E4600240D4803E0002C01D0002500E0BC
:4044000005462979002905D0641C2406240EF3D00020F8BD204601F0B5F82E712046FFF7CDFF28813C700120F8BD0000E405002010B503F019F80222002100F003F801F034
:404440008DFE10BD10B5094B40074907000F090F185A595A40185043C0086421FDF766FA002800D1012080B210BD0000F01D0100F7B53D20405C88B016460C46002829D089
:4044800030786946087200252046FFF7FBFB012800D00125204603A938300191009023460327A17E34332A46206A03F001F802A8089900900B46019120463A4603A9243056
:4044C00002F080FF02466846007A3070204601F045F810460BB0F0BDFFB587B00C4605461078694608723D20005D1746002826D000262046FFF7C6FB012800D001262046B2
:4045000003A93830019100902346A17E34333246206A02F0CDFF02A80090291D019120462B1D03A924300A9A02F04CFF02006846007A388002D1204601F010F810460BB0D0
:40454000F0BDF7B53C20405C88B015460C4600280CD0287869460872002806D000262046FFF790FB012803D003E01F200BB0F0BD0126204603A93830019100902346032751
:40458000E17E34333246E06902F092FF02A8089900900B46019120463A4603A9243002F043FF02466846007A2870204600F0E0FF1046DBE7FFB505463C20405C87B016463A
:4045C0000C46002810D0084601F020F801280BD0308869460883002809D000272046FFF751FB012805D005E000200BB0F0BD0220FBE70127204602A93830019100902346A9
:40460000E17E34333A46E06902F052FF06A80090291D019120462B1D02A924300A9A02F003FF02466846008B30806846008BA870000AE870204600F09BFF1046D5E770B542
:404640000D460446FFF71EFB01280AD0E87AA97A00020143A07801F049FC012808D0002070BD00222421204602F054FC242070BD28214C200155204600F09AFB282070BD39
:40468000002801D0002000E003484030C07F012800D0002070470000E40500200146002049070ED50021084B03E0002901D0002200E01A461279022A04D0491C0906090ECB
:4046C000F3D0704701207047E40500200146002049070ED50021084B03E0002901D0002200E01A461279022A04D0491C0906090EF3D0704701207047E405002010B5044692
:4047000080346068002803D00BF01CF90020606010BD4030417070474030817070474030017070470171704792001018C166704770B53C2501F0F4F8040004D0204600213A
:40474000433001F08DFB2946204600F0C0FB002C02D0A07801F076F870BD000010B5002801D0002000E00348002802D0008903F00FFB10BDE405002010B5002801D00020EE
:4047800000E00448002804D00179072901D100F041F810BDE405002010B501F0C1F8002802D0807801F04EF810BD00207047000070B50546008A00281ED010491122897A7B
:4047C0001140C90618D5294640314A8A098A521C4A4392B2D10800D10121540801E0621A94B2A042FBD9FFF787F8012804D1298AA878224601F060FC70BD000070050020E8
:4048000000230B60052A04D292001018C26E0A60C366704738B5044600200090A079002814D14020015D052901D00E290ED168460BF01AF8002809D12046009902F052FBD6
:4048400003481021C28A2046FFF754FC38BD00007005002010B50B4604460146184602F021F8002802D020460BF062F810BD13B5044601AA11460620FEF7F4FA68468188D4
:4048800061811CBD002800D10220704770470000F8B504462346401D543300909A1EA078911E01F078FA25464035A88A298A8000FDF73CF8401E81B2688A884203D969827D
:4048C000A07801F052FF20460021433001F0C8FA8020FEF79FFAE88102F0C6FDE989891C8AB26179FFF7AEFD01F038FC02F0BCFD2A8A6179FFF7A6FD074601F021FC688A53
:4049000000280BD0FF26F1363046FEF783FA0321090201433046FEF783FA02E0002001F012FFFF206130FEF775FA6E8A002E0BD070431049FDF7EAF80004000C01D0401CAD
:4049400080B20D49488002E00B4800214180288A704381B2A07801F071FE2837B9B2204602F092FBE98AA07801F0C0FDA07801F0A7F9F8BD710200001A0200207FB504464D
:404980008034616805460E46183108226846FDF76CFD31462031082202A8FDF766FD102168460AF0FBFE6068102108300AF0F6FE60682B46083024331022694602F020FDC1
:4049C0007FBD10B504460821FFF79FFB10212046FFF79BFB207905281FD006281DD008281AD12189002003F04BF9072020712046FFF748F9014620464030012913D00E21F6
:404A0000017000210176204600F028FF2046FFF775FE2046FFF7CCFE10BD20890122002103F012F9E1E70521EAE70000FFB581B01F4604460821FFF768FB10212046FFF7E1
:404A400064FB2079082803D0092804D0042203E00422012501E009220025204600F0C2FD264600204036307022712046FFF746FE0398002D02D0012808D00BE001280AD13C
:404A800020890022029903F0DFF804E02189029803F0F6F8012700203076012F04D0204600F0DCFE05B0F0BD02983073204602F05DFA054605480121C28A2046FFF71AFBD6
:404AC000002DEFD109202071ECE700007005002070B50C460546FFF7D5F8012809D108212846FFF712FB0023012221462846FFF79DFF70BD10B5044600F074FD2046FFF7DF
:404B0000FDFD00214034217010BD70B505461A24FFF7B8F8012809D108212846FFF7F5FA0023012221462846FFF780FF70BD0000F8B50446002000900E4668460AF094FEC3
:404B4000002801D00D20F8BD8420005908212030009D00F0F4F920460421383000F0EFF9002E02D1204600F07BFD2946204602F049F90E480821C28A2046FFF7BBFA204685
:404B800000F0D3FE25464035002808D0204600F023F8002801D0092028700020F8BD08202870204600F03AFFF7E7000070050020014610B540310A460978082906D009290B
:404BC00007D00A2901D100F091F810BD0B20107010BD00F001F810BD70B50446007925464035052805D0062803D008280FD00C2070BD03220621204602F08CF90D4808218B
:404C0000C28A2046FFF776FA1120287010E006202873204602F0AAF90646AA8A0A20424301212046FFF766FA002E01D109202071002070BD7005002038B504460020009057
:404C400068460AF011FE002801D00D2038BD2046009D00F08BF908202071204600F000FD2946204602F000F900213D2001550F2040210855204600F0D1FE002038BD00B56F
:404C8000024600F0AFFC10214032117000BD10B50446FEF7F7FF012809D04020005D112805D100231A4606212046FFF7BFFE10BD10B5FFF786FE10BD38B5044600216846C6
:404CC00000910AF0D1FD00280CD12046009902F042F905480821C28A2046FFF70BFA0D204034207038BD00007005002038B504460021684600910AF0B7FD002801D00D20E1
:404D000038BD2046009902F01BF905480821C28A2046FFF7EFF90C2040342070002038BD7005002000787047F8B50025002801D0002400E01A4C002C28D0204600F05BFC64
:404D4000002823D0207903281CD005281CD026464036B18AA07801F07FFCB078012815D10021204601F0BBFD274680373868002802D00AF0E7FD3D600020B0702079072806
:404D800005D007E0042000E006202071F8BD2046FFF70EFD0221204600F05AFEF8BD0000E405002010B54C22115400F046F810BD10B50446FF21FFF7A8F909202071A078A6
:404DC00001F07AFC10BD000038B5FF216A461180002801D0002400E0064C002C08D011460620FEF73FF8684601882046FFF73FFD38BD0000E405002010B504468079002838
:404E000009D022214C200155FF212046FFF77DF9204600F012F810BD10B5037902464032002B03D01173092B02D003E0002100E02221117300F001F810BDFEB5044600890B
:404E4000002701902781207926464036002817D0012815D002280AD112E002AA6946204601F00EFD002807D100980AF061FD204601F02EFD0028F0D02046FEF74BFEB7765B
:404E8000254680352868002802D00AF05BFD2F606868002802D00AF055FD6F60317B002902D0019800F044F8A078002100F01CFF2046FFF7BDFAA07801F002F8A07800F0B4
:404EC000C1FC0B20FFF712F900F000FCFEBD70B50E46054602F0C4FA044606702846FEF7D1FE014601204140204661700C3000F0A0FF002D10D02889608028464030C1781C
:404F00002171002E10D169796171018AE180418A2181808A608107E01820FDF77BFFC005C00F207100206080204602F052FE70BD0A4610B50146002002F042FF10BD10B510
:404F40000AF008FA10BD000000B50146FFF74AFA002801D0002000E00348002802D002898A4200D0002000BDE405002038B5044680346068002806D168460AF085FC0028E4
:404F800001D100986060606838BD000010B5014600F03CFB0128887802D0FEF77DFE10BD88214843024940186030007F10BD0000C405002070B5054604464035A87F012884
:404FC00011D1A1788820084A484380186030067F3046FEF7AFFF002805D10220A877A078314601F029F870BDC405002010B50E4CE079002816D0FFF726F80C48827FC17F46
:40500000808B00F06BFB01280CD10020E07100F0BCFE0446AC20FDF7FDFE010B02D0204600F00EFA10BD000074060020C405002070477047490510B5490F0B00FDF75AFC2F
:40504000060704080C0C0F073E21FFF7ABFE10BD0821FFF7E1FE10BDFFF7EFFE10BDFFF7CBFE10BDF8B507460025002D01D0002600E0204E00F064FE304640304489002160
:40508000418100F067FE304600F0B5FA01282BD1A00702D52846FFF747FEE00602D52846FFF792FEA00601D5FEF7CDFF600601D500F0C8FA200602D5284600F01DF86007C5
:4050C00002D5284600F0FAF9380402D52846FFF753FB780402D52846FFF740FBE00703D021463046FFF7A6FF6D1C2D062D0EBCD0F8BD0000E4050020F8B5002801D0002494
:4051000000E0204C002C39D025464035A878012834D1E98AA07801F0E9F92046FEF7B2FD01282BD002F0A0F92A8A6179FFF78AF9064601F005F82836B1B2204601F0A4FFAD
:40514000E98AA07801F0D2F9FF206130FDF762FE6E8A0D4F0146002E11D0304648430B49FCF7D4FC0004000C01D0401C80B27880288A704381B2A07801F060FAF8BD0020EB
:40518000F5E70000E40500201A0200207102000070B50D46124A010001D0002401E014462034002C1BD0204600F030FA01280AD18820484380186030007FFEF7BBFE0028B7
:4051C00001D101F05DFE20464030817E491B8176204600F023FC2089294602F092FD70BDC405002070B503460088FFF7ADFE040013D000F000FA00280FD02079092819D01B
:405200002546997840352973204601F0AFFE0646A878012803D0AA8A02E0022070BDEA880A20424301212046FEF764FF002E01D109202071002070BD0EB5002217216B463A
:405240000292198100905A810120029B00990AF0EBFB0EBDF8B5184E0024F079002820D10025AC20FDF7D6FD000B21E0204600F007FEFDF7CFFD07462A46214600F02EFABF
:4052800001280FD00D48012187838577C477F171002D01D0002000E02030002801D000F0BDFBF8BDAC20FDF7B5FD000B641CE4B20028DBD1F8BD000074060020C405002089
:4052C00010B50088FFF740FE002809D0014640310C460978082905D00B2903D00C2010BD022010BDFFF778FC002801D009202070002010BD70B503460088FFF725FE040090
:4053000008D0254640352878082805D00B2803D00C2070BD022070BD8420005910220830991CFDF7A2F82046FFF728FB2878082804D02046FFF7DAFC002801D00A202870A8
:40534000204600F06BFB002070BD000010B50C46002121700088FFF7F7FD03000BD000F04AF9002807D009481121807A0840C00603D4112010BD022010BD022020701A8A34
:405380001889002102F038FD002010BD70050020F8B50F46002100910088FFF7D5FD040012D000F028F900280ED0E079410641D4617E02264A07002A08DB89074025002949
:4053C0001ADA2843E07135E00220F8BD02F048F80021017021894180A1898180217E4170E189C1803E7005460178134802F06AFA284602F0A5FC1DE0204600F00DF9012816
:4054000006D068460AF030FA002803D00720F8BD2A20F8BDE07900992843E071204601F0CFFD607E0421304360760448C28A2046FEF760FE0020F8BD1D04000070050020F5
:405440003EB500220F236C460292238100910190628169460EC900200AF0E6FA3EBD000070B5054600F05CFA040021D003202071254600264035EE76E6702046FFF708FAFE
:4054800001F022F80920FEF731FEA07800F006FD0121204600F0DCFA2E706E70AE7000212046FFF714FD0449887B401C887370BD284601F001F970BDC405002010B50028E3
:4054C00001D0002400E00A4C002C0FD020464030417802290AD1002141702046FEF7D2FB002803D10221204600F0B2FA10BD0000E405002070B503460D460088FFF724FD90
:4055000004000BD000F077F8002807D012481121807A0840C00603D4112070BD022070BD20464030418A008A491C41430804C10C5888884201D2122070BD208220790728E3
:4055400002D12046FFF734F9022028702089002102F07AFC002070BD70050020016A491C016204D1817E491C4906490E81767047C169491CC16104D1C17E491C4906490E71
:40558000C176704770B500250646002801D0002400E0114C002C1CD0882200212046FCF76DFFA67000202646207140363070204600F018F8204601F087F90848208208489D
:4055C000B577807A1121084000D001202075012070BD002070BD0000E4050020B80B000070050020002101628176C161C17620300177417770470079002805D0012803D00C
:40560000022801D001207047002070474030807F002800D00120704740300078002807D0012805D0052803D00E2801D0012070470020704710B5807801F0F6F8002800D052
:40564000012010BD10B500F0A0FB0446AC20FDF7E1FB010B02D02046FFF7F2FE10BD000070B5054604464035A87F002823D1FF206075A0788821144A484380186030417F17
:405680008823491CC9B24177A078584380186030052901D300214177A0788821484380186030467F0677A1783046FEF743FC002802D00120A87770BD0220A877A078314641
:4056C00000F0BAFC70BD0000C40500200020401C0006000EFBD0002070470000F0B515468207920F85B0C004C00E02926A469080002D01D0002400E0514C002C29D0084665
:4057000000F0BEFB03906846808800280BD00298012845D0022843D003280CD03D20005D012872D086E00398FDF774FB01462046FFF79DF87EE00020029002A80AF074F877
:40574000002807D03D20005D012876D12046FFF705FF72E06846029E8388324600210398FDF7CEFA0398FDF755FB01462046FFF77EF8284600F0B0FA01AA21463046FEF788
:4057800077FE002806D030460AF0BEF83D204C21085528E0F5773146204601F0E3F94CE000200090278968460AF02EF8002802D0002005B0F0BD6846009E8388321D00216E
:4057C0000398FDF79DFA0398FDF724FB01462046FFF74DF8284600F07FFA25464035287E00280CD103E02046FFF7E2FA25E001AA21463046029BFEF76FFE002806D0304670
:405800000AF078F83D202873EDE710E00298FFF73DF8390A000101433770717068468088B070000AF0703046FFF706FD05E02046FFF794FE284600F04FFA0120B9E7000083
:40584000E405002010B5044A917B002901D0491E9173FFF797FE10BDC4050020F8B5074606464037B87F00283DD0B0788821009048431F4945186035287F0099FEF76FFB4C
:40588000012831D0287F401CC4B2052C00D300240020B877FF276F772F77A87702460146009800F049FD717DFF2903D0304600F0CCFF777501F0E4FA00252F46224669461A
:4058C00030460097FEF79CFF0099002902D03046FEF75DFB641CE4B2052C00D300246D1CEDB2052DEAD3F8BD0320B877F8BD0000C405002010B502460021084B03E000292D
:4059000001D0002000E018460479944204D0491C0906090EF3D0002010BD0000E405002000B50120FFF7E6FF00BD10B5044601F097FD218901808034616841606168283160
:40594000816002F0B7F910BDF7B50646087982B00C46092807D0A078F0770846FFF756FE012806D010E0304609F0E2FF022005B0F0BDA1788820284A484380186030007F93
:40598000FEF7D8FA012810D0A078FEF779FE01280BD037780121304601F01FFA25462035062F36D00B2F0FD107E06846027C21463046FEF74FFF0D20D9E72046FEF762F953
:4059C000012801D1002028772046FFF7DFFA054604AA21463046FEF7B4FD01205F2108556946087C0090A07833463A46294600F0CFFA69460A7CA0780323294600F074FEFE
:405A0000A0782946FEF772F8304609F091FF0020ADE70120D7E70000C405002010B502464032937F0021002B03D1927E002A00D00121064AD279002A00D000210279092AC4
:405A400000D10121807800F06BFE10BD7406002070B50C460646FEF715F9002814D1012C0ED935464035A87800280DD1687802280AD03079092807D03046FFF7DBFD04465B
:405A8000204600F088FD70BD0124F9E770B50D4601280BD0082808D1A8241146B020FDF7BFF929462046FDF7BBF970BD2020FAE710B501460820FDF7B3F910BD10B504463A
:405AC000FF20F130012C01D1FF20D530002200F072FE1020FDF79EF90349A043088001461020FDF79DF910BD1E02002010B504461020FDF78FF90449A04308800146102057
:405B0000FDF78EF910BD00001E02002010B50446012802D0082C07D102E0FF20D53001E0FF20F13000F03CFE1020FDF773F904492043088001461020FDF772F910BD00000B
:405B40001E02002010B504461020FDF763F904492043088001461020FDF762F910BD00001E020020F8B507460120B84085B214460E46012229467C2000F01DFE3246294633
:405B8000782000F018FE6078217800020143E078A5780002054360792679000206430C2047430D2080013C182046FDF739F9241D29462046FDF734F9201D3146FDF730F9C2
:405BC000F8BD8B00034310B5D10191201943C000FDF726F910BD000070B505460C46407829780002014341200001FDF719F9E878A978000201430A48FDF712F96078217889
:405C0000000201438320C000FDF70AF9E078A1780002014302480830FDF702F970BD00001404000070B50D46044681B201208002FDF7F6F8210C0448FDF7F2F88120294676
:405C4000C000FDF7EDF870BD0404000070B5054600242846FDF7DEF8641CA4B2102CF8D370BD10B50C460146B020FDF7D9F8FF2021462D30FDF7D4F810BD10B50C460146BF
:405C8000B020FDF7CDF8204600F0C0FD0021FDF7C7F810BD70B50C46054600F005F821462846FFF7DEFF70BD10B50C460146B020FDF7B6F8FF2021462930FDF7B1F810BD0A
:405CC00010B50146B020FDF7ABF8FF20002220211D3000F070FD10BD010210B54D310020FDF79EF810BD000010B504020029014608D0B020FDF794F8214675310020FDF7F7
:405D00008FF810BDB020FDF78BF8512000214001FDF786F800210348FDF782F821467631ECE70000240A000010B554210020FDF777F810BD10B553210020FDF771F810BD8D
:405D400010B5034908884880FFF7D0FE10BD00001E02002010B502484088FFF7F3FE10BD1E02002010B5FDF73DF910BD10B552210020FDF755F810BD10B504461820FDF7C1
:405D800049F88004400F207010BD10B5B020FDF741F8C0B210BDF8B50E4601461C461546B020FDF73DF8FF20E930FDF733F80746FF200130FDF72EF83080FF200930FDF769
:405DC00029F82880FF200530FDF724F8208079070698490F0170F8BD10B5C820FDF71AF810BD10B50C46002812D05820FDF712F82070000A60705C20FDF70CF8A070000A2B
:405E0000E0706020FDF706F82071000A607110BDFF20C130FCF7FEFF2070000A6070FF20C530FCF7F7FFA070000AE070FF20C930E8E770B504466820FCF7ECFF06466C2002
:405E4000FCF7E8FF05467020FCF7E4FF2670310A6170A570290AE1702071000A607170BD10B50446012905D01820FCF7D3FFC00B207010BD4820FCF7CDFF8007C00FF7E735
:405E80000120C002704710B50C460146B020FCF7C7FF0321A0014902401810BD8821074B414310B5C918FF2260314A770A7700228A77114600F040FA10BD0000C4050020B9
:405EC00088225043074A10B58018FF21603041770177002181770448418EFF201D3000F05FFC10BDC40500207005002010B50C460146B020FCF794FFFF202530FCF78AFFFD
:405F00000222214600F002F810BD000010B50023884201D8081A03E00024E443201A4018044980B2884201D8824200D90123184610BD0000FF7F000010B5C420FCF76AFF21
:405F40000006C00F10BDF8B503465078167800020643D07895780002054350791779000288240743002900D098241946B020FCF757FF31462046FCF753FF201D2946FCF70A
:405F80004FFF204608303946FCF74AFFF8BD0000FFB581B014460D4606460A9FFFF773FF3B460021049AFCF71BFF02484019845505B0F0BD2202002070B506460D4611242E
:405FC0002520A40108214001FCF72AFF2B46324600212046FCF704FF70BD70B5212405466401FFF7A7FE10232A4600212046FCF7F7FE70BD10B50446407821780002014304
:406000008F20C000FCF70CFFE078A178000201430148FCF705FF10BD7C04000010B50C460146B020FCF7FCFE802021460143FF202930FCF7F5FE10BD70B50D460146B0208F
:40604000FCF7EEFEFF241D342046FCF7E3FE01090901FF202943013001432046FCF7E0FE70BDF8B500242646012807D0032802D0052808D105E002240A2604E004240C2662
:4060800001E004240D26492701463F013846FCF7C7FE25204001FCF7BDFEC5B228462042F7D0252031464001FCF7BAFE00213846FCF7B6FE2846F8BD70B50D46044601461B
:4060C0001646B020FCF7ACFE512029464001FCF7A7FE31460648FCF7A3FE032189030820FFF714FD210275310020FCF799FE70BD240A000070B50D4604460146B020FCF74C
:406100008FFEFF2029461930FCF78AFE21024B310020FCF785FE70BD70B5491E8CB205460146B020FCF77CFEFF2021461930FCF777FE29024C310020FCF772FE70BD0000F6
:40614000054910B5884200D908460146FF206130FCF766FE10BD0000FF0F0000054910B5884200D908460146FF206530FCF758FE10BD0000FF0F000070B58825144600297A
:4061800000D098250146B020FCF74AFE2846FCF741FE2070000A6070281DFCF73BFEA070000AE07028460830FCF734FE2071000A607170BD10B51446024611200B4680014D
:4061C0000021FCF7F9FD012C01D1FFF7ADFD10BD10B504460920C001FCF71CFE2070000A60700448FCF716FEA070000AE070FFF79BFD10BD840400000121814010B589B236
:4062000000227C2000F0D7FA10BD000070B5FF210120FFF753FCFF210820FFF74FFC3020FFF764FC80210020FCF7FAFD002211460320FCF717FE374DFF20A98DD530FCF718
:40624000EFFD0024FF26F1362146B020FCF7E8FD298F3046FCF7E4FD2046FFF731FE641C2406240EF0D0FF20A98FF930FCF7D8FD28481030044600F073F9204600F0B8F9E5
:4062800000F04CF8234CB82040346188FCF7C8FDA188BC20FCF7C4FDE188C420FCF7C0FDFF20698EE130FCF7BBFDA12000210001FCF7B6FD3920FFF745FCFFF73BFD9320CC
:4062C0000721C000FCF7ACFDFFF72EFDE020FFF7BDFCE820FFF7BAFCF020FFF7B7FC0020FEF7A6F8618A0C48FCF79AFD0A482821001DFCF795FDFF210131AC20FCF790FD86
:40630000832000218000FCF78BFD5B210020FCF787FD70BD70050020140A000010B500217C20FCF77DFD00217820FCF779FD74210020FCF775FD10BD70B50D46014614469A
:40634000B020FCF76DFDFF261D363046FCF762FD01090901FF20294301308143002C01D1102041403046FCF75BFD70BDF3B589B0FF2001900D208001009048780D78000269
:406380000543C8788E780002064348790979000201437C200791FCF73DFD06907820FCF739FD059074210020FCF73AFD18480024049026E00120A04087B20098FCF72AFD45
:4063C00003900098FCF726FD02900098FCF722FD039A29465140029A72401143079A424011430BD10698074208D00598E040C1070998C90F814201D1019405E0641C0498A6
:40640000E4B20078A042D5D801980BB0F0BD0000B005002070B5FF257C20FCF7FBFC0849002401230A7805E01946A140014205D0641CE4B2A242F7D8284670BD2546FBE711
:40644000B005002010B504461820FCF7E3FC0721C90288436107890C01431820FCF7E0FC10BD10B50446E020FFF7F0FB20782246401CC3B20021E020FCF75EFC10BD00005F
:4064800010B5044641790079042817D040000843A17B032901D8C9000843617B4A010243A079010207201143C00201431820FCF7B7FC21881C20FCF7B3FC10BD08460149F4
:4064C000E5E700000204000010B50120FFF70EFB41210020FCF7A4FC10BD10B50120FFF731FB40210020FCF79BFC10BD10B50C460146B020FCF794FCFF2021460D30FCF7BC
:406500008FFC10BD70B50C4601461E461546B020FCF786FCE92021468000FCF781FC75202946C000FCF77CFCEB2031468000FCF777FC6C433B20A1B20001FCF771FC70BD5F
:4065400070B50C4601461546B020FCF769FC21468420FCF765FC29468020FCF761FC70BD10B504464078217800020143FF20C130FCF756FCE078A17800020143FF20C53029
:40658000FCF74EFC6079217900020143FF20C930FCF746FC10BD70B5A124054624012046FCF738FC012D07D041084900814202D02046FCF735FC70BD014601221143F5E767
:4065C00010B5044640782178000201436820FCF727FCE078A178000201436C20FCF720FC60792179000201437020FCF719FC10BD10B5044640782178000201435820FCF7D6
:406600000FFCE078A178000201435C20FCF708FC60792179000201436020FCF701FC10BD10B50446E820FFF711FB20782246401CC3B20021E820FCF77FFB10BD10B50C46CB
:406640000146B020FCF7ECFB21460248FCF7E8FB10BD00001C0A000010B50C460146B020FCF7DEFBFF2021460530FCF7D9FB10BD70B5054688000521FBF758F984B2294660
:40668000B020FCF7CDFB21460448FCF7C9FB290272310020FCF7C4FB70BD0000040A000010B504460146B020FCF7BAFB210273310020FCF7B5FB10BD10B504460146B020BF
:4066C000FCF7AEFB210270310020FCF7A9FB10BD10B504460146B020FCF7A2FB210271310020FCF79DFB10BDF8B505461E4614460F46084600F08AF800902802A100084352
:40670000304304462946B020FCF78AFB21460098FCF786FB0148C0194655F8BD2702002070B50D460146B020FCF77AFBFF241D342046FCF76FFB40218843A9010143204609
:40674000FCF76EFB70BD70B5A124054624012046FCF760FB0222002D01D0104300E0904301462046FCF75CFB70BD70B50D460146B020FCF755FBFF2029460930FCF750FB5F
:40678000A12424012046FCF745FB0222002D01D0104300E0904301462046FCF741FB70BD70B50C460546FCF735FB204301462846FCF736FB70BDF8B516460D460746FCF73B
:4067C00029FB014600202C0003D104E06408401C80B2E207FAD08640A9430E43B1B23846FCF71EFBF8BD0000024A1018405C8007800F70472702002010B50146B020FCF7E3
:406800000FFBFF202D30FCF705FB10BD8000FF30413070470246FF20052902D201484018805C70472202002010B50146B020FCF7F7FAFF202930FCF7EDFA10BD0A4600B576
:4068400001461046FFF7E6FF00BD38B50C46054600216846009109F007F8002804D1009928464C7000F09EFB38BD10B5044680780021FFF73BFE01212046FFF7E9F810BD40
:40688000436E002B0CD00B60014660318B781370826E4266CA788A700021816608467047FF20704710B50346446E6033002C04D0846E002C04D0FF2010BD41669A7001E0DD
:4068C0008166DA70002010BD0021416681667047406E002801D000207047FF20704770B50446C0790D46810610D5DF210840E07100F0B6FD0570218941804034218A81801D
:40690000618AC180A18A018101F036F970BD000010B50446FEF77AFE01280AD1A1788820054A484380186030007FFDF703FB012801D000F0A5FA10BDC405002070B50D46C6
:406940000446FDF79FF901281CD02079042801D0072816D1E879AE7900020643A0783146FFF7C4FA012813D03246691C204600F035FA02212046FDF7CCFE01212046FFF717
:4069800067F870BD01222421204600F0C3FA70BD28214C2001552046FEF70AFA70BD70B50D460646FDF74BFE002847D120213046FDF7ABFB3446687840346073E878202237
:4069C0000002E081A9780843E0816879010228790843218A814203D0F1791143F1712082E8790102A8790843618A814203D0F1791143F1716082687A0102287A0843A18A44
:406A0000E180814203D0F1791143F171A082A08A218A8000FAF78AFF401E618A80B2814200D9608201213046FDF776FEE87AA97A000201430022304600F0DCFA70BD0000FF
:406A4000F8B50C460546FDF71DF9012849D0294EB07AC00709D02846403000900078002805D0102805D01F212EE01A212CE0002700E001272846FEF779FA002823D02E4626
:406A800080360822611C7068FBF7EFFC7068617A20300172A17A417270682146183008220B31FBF7E2FC21462846042213313430FBF7DBFC39462846FEF73AF8002810D13A
:406AC000002F0FD012E007210322284600F022FAF28A08212846FDF70DFB11212846FDF71EFEF8BD06212846FDF71CFE009801210176F8BD7005002010B5FEF759F810BD65
:406B000038B504460020009020790D46042801D007281BD12046FDF7B5F8012817D0684608F0A2FE002811D10C486A78807A00991040112210402075607E082210436076A1
:406B4000204600F079F92046FDF72FFE38BD08222421204600F0DEF938BD0000700500207047000070B506460D460846FEF7DAF804463046FEF73FFD00280CD0142C04D30F
:406B80002946304600F0C7F805E00549A0000A58294630469047284608F0B6FE70BD0000001E010070B50D460021002801D0002400E00C4C002C14D020464030C177807FDF
:406BC000032802D12046FEF749FE2046FFF7A0FE142D04D20449A800095820468847FEF775FD70BDE4050020501E010010B5014640310C4609780E2903D1FEF71DF80120C7
:406C0000207610BD10B54021095C0F2901D1FEF736F810BD4021095C0F2902D1002120304177704738B5044600220E4800920D46807A11210840C0060ED52046FEF7ECFCC7
:406C4000012809D0684608F00FFE002803D12046009900F053F938BD2946204600F05BF838BD00007005002010B51021FDF74DFA10BD10B54978FDF72BFF10BD10B5FEF768
:406C800006F810BD012120304177704710B54021095C0C2901D1FEF70FF810BD10B54021095C0D2901D1FEF703F810BD70B5044600790D46052803D0062801D0082802D140
:406CC0002046FDF717FF68784C21085509212046FDF728FD2046FFF7C8FD2046FCF7D2FF0128A07805D0FFF7E7FC2046FEF796FE70BDFFF7EDFCF8E710B50446FF21FDF79A
:406D000004FA16214C200155A078FFF7D5FC2046FEF784FE10BD70B50C460546FEF776FC002802D02078687570BD21782846FFF78CFD70BD70B5054648780C46032802D1DB
:406D40002846FDF7E2FE6078122803D110212846FDF7DBF970BD704738B5044600200D46009004212046FDF7D0F968782076E8780002A081A9780843A08168790002E08154
:406D800029790843E081607E04210843607680070CD4684608F068FD00281CD12046009900F00EF9607E022108436076E079410611D5BF210840E07100F052FB00210090D5
:406DC000017021894180A1898180217E4170E189C18000F0B5FF38BD7047704770B50446C07815460A4600280AD00020E070C1B2A078FFF7A8F8A0782946FFF77BF970BD87
:406E00000120F3E770B50546042008700C468420415908222031601CFBF727FB29462046042238310930FBF720FB0D2229462046FEF78AFD002070BD70B5054609200C464E
:406E4000087008220021601CFBF718FB287D607004480922C07AA07029462046FEF774FD002070BD700500200B4610B501460B20187001221846FEF767FD002010BD0000A4
:406E8000FEB50024164F03E0002C01D0002500E03D462846FFF71CFD00281BD15F20405D002817D16A4601A92846FFF7E9FC002810D1019869460A7806782946FEF744FDD8
:406EC000022E07D1A8780121FFF72AFC09212846FDF728FC641C2406240ED5D0FEBD0000E405002010B50B46122119708178D977014601221846FEF727FD10BD10B50B4658
:406F0000132119708178D977014601221846FEF71BFD10BD38B50546002000900C46684608F0A2FC002801D0072038BD00980D210170447002222946FEF706FD002038BD8B
:406F40000B4610B501460520187001221846FEF7FBFC002010BD0B4610B501460620187001221846FEF7F0FC002010BD38B5054600200090684608F077FC002801D01F201A
:406F800038BD009C022020704C20405D6070A878E0772846FFF769FC022229462046FEF7D3FC38BD10B50B46072119708178D977014602221846FEF7C7FC002010BD000045
:406FC00010B50B460A49044608880C221A704A795A709870000AD870C8881871000A5871062221461846FEF7AFFC002010BD000070050020F8B50446403417460E4605468D
:40700000E289617B8078FFF79BFA002F0DD100F02BFAE2896979FDF715FAFFF79FF8608A002800D00120FFF78EFBE388A08A984200D90346628A218AA878FFF763FAA08A40
:40704000218AC000FAF772FC81B2ED208000FBF7E7FEE089E188C0080A30081881B21920C001814200D90146A878FFF7F5FAA8783146FFF751F801212846FEF7E9FCF8BDB1
:4070800000B500F01FF800BD10B50A4604460B491046FAF74BFC4034C01C218A80B2814200D208464900081A81B20548E182C089002802D0884200D2E08210BD7102000037
:4070C000B005002040184008704770B505460C46000702D5A0B2FDF7C5FFE80702D0200EFDF76EF870BD70B5054650C8FCF72EFDFBF7F0FC2889C01F0300FBF7FBFB0C0732
:40710000130B171A1D0B0B200B100C0BA0B23146FFF7DBFF70BD204600F040FB70BDFDF765FF70BD2046FCF770FE70BDFCF78BFF70BDFDF77DFF70BDFDF77BFF70BDE0B20A
:40714000FEF788F870BD0000F3B5002483B0064627460094019408200294FBF75BFE05460640400713D55020FBF754FEC0B20090700707D5009CA00803D1FBF711FD012879
:4071800000D10127002204200099FEF77FFC28074ED5A820FBF73EFE0146644842890A434281002208200091FEF770FC300739D50098044340062CD5FF200930FBF72AFE58
:4071C000FF201D30FBF726FE8006C00F0190FF200930FBF71FFE00281BD00198002818D1534801214170FF20F130FBF713FE0321090288430146FF20F130FBF711FEA1200F
:407200000001FBF707FE02210143A1200001FBF707FE00981021884303D1FBF7C1FC012800D101270098C00602D50220FBF730FFA8070CD53820FBF7EDFDC1B2B00702D5C0
