:400000000080002011000000250400002504000080B500AF00F010FA80B500AF234B12221A6001F0AFF8224B180001F005FA012001F0B8F8302000F097FE1E4B1E4A1A60F0
:400040001E4B8022D2051A601D4B1D4A126802210A431A601B4B1C4A1A601C4B00221A601B4B1B4A126808218A431A60FA23DB00180000F06FFF174B180001F023F8164B9E
:40008000802212061A60154B8022D2021A60144B1900082000F0A8FF082000F0CBFF074B8022D2051A60C046BD4680BD30001040001BB70004010B40060000800C020B4097
:4000C00078002E407C002E402D3E000064F02E406CF02E40DC05000008010B4000010B40F912000080B582B000AF72B62C4B00221A60FB1D00221A7022E0FB1D1A781300D9
:400100005B009B185B00274A9B183B603B681A78597809020A43997809040A43DB781B06134318003B681A795B791B0213439BB2190000F053F9FB1D1A78FB1D01321A704E
:40014000FB1D1B78012BD8D9174BEE2212061A60164B992212041A60154B992212041A60144B992212041A60134A134B1B78DBB206210B43DBB21370104BD82212041A60AD
:400180000F4B8022D2021A600E4B30221A60FFF743FF00F033F9C046BD4602B080BDC0466CF02E40705F01000000024000500F4010500F4020500F4000700F40080004408A
:4001C000080104400802044010B5064C2378002B07D1054B002B02D0044800E000BF0123237010BD4010002000000000685F0100084B10B5002B03D00749084800E000BF66
:4002000007480368002B00D110BD064B002BFBD09847F9E70000000044100020685F0100A80B00200000000090B583B000AF62B61B4B180000F0AEF9012001F0D3F896233C
:400240005B00180000F018FF002001F0CBF8BC1D00F03CF803002380124B9B680522DA74104B9B68BA1D0021525E121212B2D2B25A760C4B9B68BA1D1288D2B29A76094BC3
:400280009A68084BDB681900100006F0D9FB04F049FCFA235B00180000F0EEFECCE7C046A9020000DC0B002080B582B000AF786039607B68012B00D003E0002000F002FA4E
:4002C000C046C046BD4602B080BDC046F0B585B000AF0023BB600023FB600FE0012000F0F1FE00F02DF903005A425341DBB21A00BB689B18BB60FB680133FB60FB682E4A18
:400300009342EBDDBB682D49180002F06FFC03007B60786804F026FB0023294C1A00230001F09AF8274A284B03F0F8FC03000C001D002600786804F015FB00238024E40536
:400340001A00230001F088F8204A214B03F0E6FC03000C001A0023002800310003F058FF03000C0025001C007A6813009B019B18DB00180004F0F6FA02000B002000290074
:4003800002F07CFD03000C0018002100114A124B02F074FD03000C001A002300BC1C1000190002F04DFD03002380BB1C00229B5E1800BD4605B0F0BD7F841E00204E000042
:4003C000000008409A9999999999F13F6666666666660E40D7A3703D0AD7E33F80B582B000AF786039603A687B680021180004F05DFBC046BD4602B080BDC04680B500AF9F
:40040000054B03221A60054B03221A60044B00221A60C046BD4680BD3000304030003140000E3F4080B500AF04F0FCFA03001B680C2B00D1FEE7FEE780B586B000AF224B32
:400440007B61224B3B61204B7B6135E03B691B68FB603B695B68BB603B699B683B6000237B600CE0FB681A68BB681A60BB680433BB60FB680433FB607B6804337B607A6848
:400480003B689A42EED13B69DB683B6000237B6008E0BB6800221A60BB680433BB607B6804337B607A683B689A42F2D13B6910333B617B69013B7B617B69002BC6D104F030
:4004C000B7FAFFF7B1FEFEE7010000008063010080B582B000AF154B144A126801218A431A6000237B600FE07B68032B04D8104B7A689200D35800E00E4B0F4A7968890055
:400500008B507B6801337B607B682F2BECD9FFF7E9FD0A4B00221A60044B044A126801210A431A60C046BD4602B080BD00001040000000002504000000000020C0000020AE
:4005400080B500AF044B1B68402213409B09DBB21800BD4680BDC0460401044080B500AF064B00221A70064B00221A70054B00221A7000F009F8C046BD4680BDE7210020FF
:40058000E0210020E621002080B500AFC046BD4680BDC046B0B594B004AF78603E23FB1800221A802823FA183D4B1000190014231A0004F072FA3B4B1B78002B04D1FFF791
:4005C000CDFF384B01221A707B68002B5CD0364B7A681A603E23FB181B88002B29D11023FB181C22BA185A601023FB182022BA181A601023FB1800221A812023FB181B2232
:400600001A802023FB181B225A802023FB1804221A711C23FB1800221A703E23FC180E23FA181023FB181100180004F057FB030023803E23FB181B88002B29D13E23FC18EA
:400640002823FD18AE231A0118491948194B0293194B0193052300932B0004F095FA030023803E23FB181B88002B11D1134B01221A703E23FC18124B0A220D21180011F0F8
:4006800075F80300238003E03E23FB1801221A803E23FB181B881800BD4610B0B0BDC0467C5F01005C100020D8210020C8000020010A000079020000006C0100DE21002033
:4006C000B85F010090B585B000AF0200FB1D1A70FB1D1B78022B04D90E23FB1801221A804CE02A4B1B78042B43D1294B1B78DBB21A00042313403CD1FB1D1B78002B0DD1FF
:40070000244B00221A82234B5B68C822D2001A80204B5B68C822D2005A8010E0FB1D1B78012B0CD11B4B96221A821A4B5B68C822D2001A80174B5B688022D2015A80164B90
:40074000FA1D12781A700E23FC18124B18000EF023FC030023800E23FB181B88002B0DD10B4B1B78DBB204221343DAB2084B1A7004E00E23FB180422FF321A800E23FB1829
:400780001B881800BD4605B090BDC046DE210020E7210020DC0B0020E621002080B584B000AF78600A00FB1C1A700023BB60BB68002B20D07B689A79BB681A700F23FB18FF
:4007C00000221A7012E00F23FB181B780133BA68D3180F22BA18127879688A5C1A700F23FB181A780F23FB1801321A700F23FB181B78052BE7D9C046BD4604B080BDC046C3
:4008000080B582B000AF78607B681B789AB27B6801331B789BB21B029BB213439BB21800BD4602B080BDC04690B585B000AF78600F23FB1800221A707B689B8909229342FB
:4008400032D17B68181D7A680F23FC184023002110F0A4FF030023700F23FB181B78002B1AD17B685B681800FFF7CAFF03001A00022313409BB2002B07D00F4B1B6879686B
:40088000822252001000984706E00B4B1B6879680622FF3210009847084B1B78DBB201229343DAB2054B1A700F23FB181B781800BD4605B090BDC046D8210020E72100205D
:4008C00090B585B000AF78600F23FC187B681800FFF7AAFF03002370154B1B78DBB21A00012313401FD10F23FB181B78002B16D00823FB1812229A707B689A890823FB18D7
:400900001A800823FB180F22BA181278DA700823FA187B68110018680FF0A2FC03E07B6818680FF015FDC046BD4605B090BDC046E721002080B582B000AF7860C046BD4633
:4009400002B080BD80B500AF044B00225A70034B00221A70C046BD4680BDC046E421002080B582B000AF7860C046BD4602B080BD80B500AFC046BD4680BDC04680B584B07F
:4009800000AF78600E23FB1800221A707B689B79002B1CD10F23FB1800221A7012E00F23FB181B787A68D35C002B04D00E23FB1801221A700BE00F23FB181A780F23FB18EE
:4009C00001321A700F23FB181B78052BE7D90E23FB181B781800BD4604B080BD80B582B000AF0200BB1D1A80C046BD4602B080BD80B582B000AF7860C046BD4602B080BD27
:400A000080B588B000AF02003960FB1D1A70C54B1B78DBB201221343DAB2C24B1A70FB1D1B78712B00D95BE19A00BF4BD3181B689F461023FB1807221A701023FB180022DD
:400A40005A701023FB18180006F098F81023FB1807221A701023FB1801225A701023FB18180006F08BF80023002B01D004F052F8AE4B1B681800FFF781FF031E11D0AB4B66
:400A80001B68180004F052F8A84B1B6800211800FFF784FEA54B1B6801211800FFF77EFE36E0A34B1B781A003F231A40A14B1B789901FC231B010B401A439F4B1B78190315
:400AC000F8235B020B401A439C4B1B785904FE231B040B401343BB61BB69DAB2984B1A70BB691B0ADAB2964B5A70BB691B0CDAB2934B9A70924B180004F018F8904B0021B1
:400B00001800FFF74BFE8E4B01211800FFF746FE00200EF015F90C23FB183F221A700C23FB1800225A700C23FB1818000EF026F9844B04221A70DAE03B681800FFF710FF1A
:400B4000D5E03B681A78804B1A70D0E03B687B617B691B78002B00D0C4E07B695B78002B0BD17A4B0022DA80784B00229A80774B774A1A607B69754A5A606A4B1B78DBB2C4
:400B800001229343DAB2674B1A70ABE0654B1B78DBB21A002023134000D0A5E06D4B1B78102B00D0A0E06B4B0522DA709CE03B681800FFF71DFF9AE03B681800FFF718FF8C
:400BC000604B02221A7092E05E4B04221A708EE05C4B1B78022B00D188E0524B1B78DBB21A000123134000D180E04E4B1B78DBB21A00042313400BD0524B03221A70494B3C
:400C00001B78DBB204229343DAB2464B1A706DE0444B1B78DBB21A00082313400BD0494B04221A703F4B1B78DBB208229343DAB23C4B1A705AE0434B1B78032B56D1414BBB
:400C400004221A7052E03B681B881800FFF7C6FE4DE0414A3B681000190002231A0003F01CFF394B00221A703B4B1B783D33FF335A003A4BD3180133394A100019000223EF
:400C80001A0003F00AFFFFF773FE30E0FFF75AFE2DE03B685B88162B05D81E23FB183A6852881A8003E01E23FB1817221A801E23FB1819883B681A8800231204120C1B0C7C
:400CC0001B04134318000FF0D5FA10E03B681800FFF7F6FD0BE03B681800FFF72BFE06E0C04604E0C04602E0C04600E0C0460D4B1B78DBB21A00112313400ED0094B1B78BE
:400D0000DBB201229343DAB2064B1A70154B1B68FA1D1278396810009847C046BD4608B080BDC046E7210020C8600100F80B00207CF2FF0F7DF2FF0F7BF2FF0F78F2FF0F4E
:400D4000F00B0020DE210020E021002080100020A80B0020600C0020E4210020006C0100DC210020D821002090B585B000AF78600C23FC1800F069FB030023707B68022B03
:400D800000D8B3E07B68302B00D9AFE05E4B1B78DBB21A007B689A420AD35C4A0F23FB1812781A705A4A0E23FB1812781A703FE0584B1B78DBB21A007B689A420AD3564A70
:400DC0000F23FB1812781A70544A0E23FB1812781A702DE0524B1B78DBB21A007B689A420AD3504A0F23FB1812781A704E4A0E23FB1812781A701BE04C4B1B78DBB21A0075
:400E00007B689A420AD34A4A0F23FB1812781A70484A0E23FB1812781A7009E0464A0F23FB1812781A70454A0E23FB1812781A707B68DA1E0B23FB1841498A5C1A700B2342
:400E4000FB181B782F2B0DD97B682A2B0AD93D4B19221A60052000F0EFFA0D23FB1819221A7007E0374B1B68DAB20D23FB183F210A401A700B23FA180D23FB1812781B789F
:400E80009A4208D22F4B7A68033A2D498A5C1A60052000F0D1FA7B68284A9A180A23FB1812781A70284B0A22BA1812781A60274B0F22BA1812781A60254B0E22BA181278E8
:400EC0001A60052000F0FEF80B23FA180D23FB1812781B789A420CD91A4B7A68033A18498A5C1A60052000F0A7FA02E0002000F0B7F80C23FB181B78180000F0AAFAC046E9
:400F0000BD4605B090BDC04640F3FF0F41F3FF0F42F3FF0F43F3FF0F44F3FF0F45F3FF0F46F3FF0F47F3FF0F48F3FF0F49F3FF0F4AF3FF0F4BF3FF0F4CF3FF0F4DF3FF0FBD
:400F4000906201002CFF0B4028FF0B401CFF0B4020FF0B4080B584B000AF78600023FB60154B154A126801210A431A60134B144A1A60144B134A1268802109020A431A6057
:400F80007B68002B12D01023FB600CE0012000F099F800F019F8031E02D00023FB6005E07B68013B7B607B68002BEFD1FB681800BD4604B080BDC04660F02E4078002E40ED
:400FC0000220000010002E4080B582B000AF054B1B68012213407B607B681800BD4602B080BDC0460C002E4080B584B000AF02003960FB1D1A7080239B05FB60FB1D1B780C
:401000001F2B02D9002000F02BF8FB1D1B7810339B00FA68D3181B68BB60FB1D1B7810339B00FA68D3183A681A60BB681800BD4604B080BD80B582B000AF0200FB1D1A7009
:40104000064BFA1D12781F210A40012191400A001A60C046BD4602B080BDC04600E100E080B582B000AF0200FB1D1A7001BEC046BD4602B080BDC04680B582B000AF786059
:4010800009E00D4B1B68180000F0D6F97B680B4A944663447B607A6880231B029A42F0D8074B1B687A685343180000F0C5F9C046BD4602B080BDC046740C00200080FFFF8C
:4010C0006C0C002080B582B000AF0200BB1D1A80BB1D1B88044A12785343180000F0ACF9C046BD4602B080BD700C002080B500AF0F4B0F4A126801218A431A600C4B0C4A7D
:40110000126802218A431A600A4B0A4A126830218A4310210A431A60064B064A126807218A4301210A431A60C046BD4680BDC04600F02E4000FF2E4080B500AF0F4B0F4AEB
:40114000126802218A431A600D4B0D4A126807218A4302210A431A60094B094A126830218A4320210A431A60044B044A126801210A431A60C046BD4680BDC04600F02E4092
:4011800000FF2E4080B500AFFFF7B0FF044B044A1268802109060A431A60C046BD4680BD00F02E4080B584B000AF78600C4B1B6801221340FB607B68002B02D0012B03D08D
:4011C00005E0FFF793FF06E0FFF7B6FF03E00020FFF746FFC046FB681800BD4604B080BD00F02E4090B583B000AFFC1D00F02DF903002370074B074A1268C02109020A439E
:401200001A60FB1D1B78180000F023F9C046BD4603B090BD00010B4080B500AF054B1A68C0231B02134001D0012300E000231800BD4680BD00010B4090B583B000AFFC1D2B
:4012400000F003F9030023700D4B0D4A12680D490A408021C9010A431A60094B084A126808490A40802109020A431A60FB1D1B78180000F0EEF8C046BD4603B090BDC0461B
:4012800000010B40FF3FFFFF90B585B000AF78600B23FC1800F0D9F803002370FFF7BCFF031E04D00123FB60FFF7C6FF01E00023FB607B680D4A13407B600D4B0C4A12683D
:4012C0000C4911407A680A431A60094B1B68FB68012B01D1FFF786FF0B23FB181B78180000F0B7F8C046BD4605B090BD0404040010020B40FBFBFBFF80B500AF344B1B6817
:40130000042213401FD0334B1B680422134017D0314B1B6804221340DA432E4B1B681A402C4B1A602C4B1B68042293431A002A4B1A602A4B1B68002B02D0284B1B6898473F
:401340000420FFF7A1FF224B1A688023DB00134022D0204B1A688023DB00134017D01E4B1A688023DB001340DA431A4B1B681A40184B1A60184B1B68194A1A40164B1A60E6
:40138000164B5B68002B02D0144B5B6898478023DB001800FFF778FF0D4B1A688023DB02134011D00B4B1A688023DB02134006D00A4B9B68002B02D0084B9B6898478023CC
:4013C000DB021800FFF760FFC046BD4680BDC04610020B40800C00209010002094100020FFFBFFFF80B584B000AF0200FB1D1A700F4B1B68DAB20F23FB1802218A431A70EE
:40140000FB1D1B78DB18DBB202221340D9B20F23FB180F22BA1812780A431A70044B0F22BA1812781A60C046BD4604B080BDC04600020440000000000230800803D0013874
:40144000FDD1C046C046C0467047EFF3108072B6704780F310887047F0B55F464D4656464446F0B491B01F0004000D00160000F0AFF9CF4B029003919B461B785BB299465C
:4014800001334FD032003B003000390003F014FA0090002846D122002B002000290003F00BFA00228246002834D100232000290001F098FC00283AD00022002330003900BD
:4014C00001F090FC0590002800D174E006AB9846012342460693B74B5360434652469C60DD601A621E615F614246002300249361D4614B46002B00D194E00023AE4C009346
:4015000001940098019911B03CBC90469946A246AB46F0BD00233000390001F063FC002800D0EBE0029B039C00930194E9E70298039900F07DFF8146002800D186E00298BB
:4015400003990022002301F04DFC0028EAD02000290000F06DFF029A039B009201930028CFD03000390000F063FF029A039B009201930028C5D006AB9846042342460693F3
:401580008C4B9460D560536000230024136200239361D4615B461B78166157615BB2022B04D0404600F04EFF002840D103F03AFA222303603BE03000390000F039FF029AEC
:4015C000039B0092019300289BD0002200233000390001F00DFC002800D192E706AB9846012342460693734B53604346059A9C60DD601A621E615F615B461B785BB2002BAD
:401600000BD0002042466D499061D161022B09D103F008FA2123036009E04246002300249361D461404600F00DFF0028F0D043461B6A002B04D003F0F5F943461B6A036001
:401640004346DC699B69009301945AE72000290000F0EEFE002800D171E73000390000F0E7FE002800D16AE7029803990B00020003F022F906AB984600287AD10323424630
:4016800006934C4B106253605B461B789460D5605BB2166157619946002B48D1E0224146474B12068A61CB61200000220023290001F09EFB002800D173E70022414B300086
:4016C000390002F02BFB04000D0000F0C3FE02000B002000290001F085FB002805D1E022394B120641468A61CB615B461B785BB299464B46022B00D053E757E706AB984621
:401700000123424606932B4B536043469C60DD600024009A284D1A621E615F619C61DD614B4600940195022B00D07BE7E9E600224146264B20008A61CB61002200232900A8
:4017400001F056FB0028D4D000221E4B3000390002F0E4FA04000D0000F07CFE02000B002000290001F03EFB0028BED10022134BB8E70123424606930E4B536043464A465C
:401780009C60DD601A621E615F6100245B461C57002C00D141E7002300221900100001F099FE43469861D961022C00D130E739E7D90F0020C06201000000F03F0000F0FFA7
:4017C000FFFFEF470000E03FFFFFEFC70000F07FF0B556464D4644465F46F0B41C001300670091B07F080093019406000D0080468946A2463B4332D06E4B6C0064089C42C7
:4018000029DC26D09F4226DC6A4B9F4200D189E000239B464B46002B00DA87E0002A2FD1644B9F4200D19FE0634B9F425DD08023DB059A4501D100F0C1FB604B9A451FD1D9
:401840004B46002B1CDB3000290000F0F7FC060007E000280DD05A4BE01830430BD100265549300011B03CBC90469946A246AB46F0BDA742C8DD534800F0E6FD0600F0E7DA
:401880003000290000F0D0FD4346002B1DD0EB0F013B98465B464246134379D04A4B9F4200DC9FE0494B9F4201DC00F0CEFB484B9C4279DD5346002B79DD464A464B1000A7
:4018C000190002F02BFA0600CBE7002C04D03A4AAB009B089342DAD15346002B00DAADE34B46002B0DDB0600BBE753462900002BB7DA32002B0000202F4901F0EBFD0600E2
:40190000AFE72F4B9C465B4664441C4301D100F02BFC5B460600012BA3D180231B069C4661449EE7002A00D172E794E72B4B9F422BDC274B9F4200DC70E729493B158C46C6
:401940006344142B01DC00F0F2FB3421CB1A0099D94008009840824200D05FE70123194001335B1A9B4659E7154BE018064300D175E7174B9C4200DC51E35346002B16DB07
:40198000009B019C1E0021006BE702239B4645E732002B003000290002F03AFC02000B0001F098FD06005CE75346002B85DB0026002156E70000F07F0000F03F0000E03F0D
:4019C000000010C0C46201000000E0410000F043FFFFEF3F9C7500883CE4377EFFFF3F4301FCFFFFE84B00229C4206DC0022E74B02F094F935220C005242E54D2315AC464C
:401A0000634499462403E34DE34B240B914425439C4209DDE14B9C4200DCA9E301239C46DF4BE1449C466544002300240022089309940C930D940024D64B06920793069A21
:401A4000079B29000A900B9102F0E2FB069A079B06000F000A980B9901F010FA02000B000020CC4901F036FD0A00010013000E910F9202003900300002F050F90A00010089
:401A80008020049105921300002280210003844602920393002289056D100D4365442B190298039914001D0002F038F902000B003000390002F0ACFB069A079B06000F0033
:401AC0002000290002F0A4FB02000B000A980B9902F09EFB029A039B02F020F902000B003000390002F094FB0E9A0F9B02F016F9049D059E069007912A0033002800310077
:401B000002F00CF906000F00A64AA74B02F006F9A64AA74B01F0B2F932003B0002F0FEF8A44AA54B01F0AAF932003B0002F0F6F8A24AA34B01F0A2F932003B0002F0EEF889
:401B4000A04AA14B01F09AF932003B0002F0E6F89E4A9F4B01F092F9320004000D003B003000390002F0DAF802000B002000290002F0D4F8029E039F04000D000498059934
:401B800032003B0001F07AF9069A079B02F0C6F822002B0001F072F932000A900B913B00300039000296039702F0B8F80022894B04000D0001F062F90A9A0B9B01F05EF9F4
:401BC00000260F0032000B000298039902F0A6F80022029003917F4B3000390002F018FB22002B0002F014FB02000B000A980B9902F00EFB049A059B02F090F832000400A3
:401C00000D00069807993B0002F088F802000B002000290001F032F904000D0002000B000298039901F02AF90026E0226A4B120630000F0002F072F8029A039B04900591DE
:401C40003000390002F0E4FA02000B002000290002F0DEFA614A604B02F060F8604A04000D00604B3000390002F058F802000B002000290001F002F90C9A0D9B01F0FEF8E3
:401C8000060048460F0002F06DFE04000D000498059932003B0001F0F1F8089A099B01F0EDF822002B0001F0E9F8002022002B000290039102F0ACFA089A099B02F0A8FA52
:401CC000049A059B02F0A4FA02000B003000390002F09EFA049005915B464246013B134300D197E100232B4C069307940098019900260B0032000F0002F08AFA029A039BC6
:401D000002F00CF8009A019B04000D000498059902F004F802000B002000290001F0AEF804000D00029803993B0032000494059501F0F4FF009001910B000200290020000F
:401D400001F09CF8284B81460F008A46994200DC3CE1264BCB18034300D0DBE104980599234A244B01F08AF8009A019B04000D004846390002F04CFA02000B0020002900A6
:401D800001F04AF83E0037E0FFFF0F000000404301FCFFFF0000F03F8E98030079B60B000000F0FFEF4E454A287ECA3F65DBC9934A86CD3F01411DA96074D13F4D268F515D
:401DC0005555D53FFFAB6FDBB66DDB3F033333333333E33F0000084009C7EE3FFD033ADCF5015B14E02F3EBEFFFF8F40000070BFFE822B654715973C002800D08AE18022C5
:401E0000E74B52039C461300361566443341E549DB195E001C001B038C461B0B13431422760DE14F66443741961B334198465346BC4300202100002B00DAA9E102000B0032
:401E40000098019902F0E4F90B000090019102000498059901F012F843461B05994600200022D24B06000F0001F058FF009A019B029003913000390002F0CAF902000B0032
:401E80000498059902F0C4F9C94ACA4B01F046FFC94A04000D00C94B3000390001F03EFF02000B002000290000F0E8FF04000D0002000B000298039900F0E0FF029A039B82
:401EC00006000F0002F0A4F902000B002000290002F09EF93200009001913B003000390001F01CFF04000D00B54AB64B01F016FFB54AB64B02F08CF922002B0001F00EFF82
:401F0000B34AB44B00F0BAFF22002B0001F006FFB14AB24B02F07CF922002B0001F0FEFEAF4AB04B00F0AAFF22002B0001F0F6FE02000B003000390002F06AF904000D0085
:401F400002000B003000390001F0E8FE8023029003910022DB052000290002F059F902000B000298039901F0B5FA009A019B04000D003000390001F0D1FE009A019B00F043
:401F80007DFF02000B002000290002F041F932003B0002F03DF902000B000020924902F037F94B465B181A15002A00DCF4E01900069A079B01F0B2FE060052E432003000BD
:401FC0002B00290001F0AAFE06004AE4874B4E0076089E4200DCBFE0854BCB1803430CD1009A019B02F014F902000B000498059900F008FF002800D101E7069807997D4A98
:402000007D4B01F08BFE7B4A7B4B01F087FE0600FFF727FC0023794C0693079466E65346002B00DBC3E4009B019C802212061E009446230063441900FFF713FC02000B00B1
:402040000020694901F046FA4AE46D4B9C4200DCAAE4654B9C4201DDFFF72CFC0022624B02F0D6F8C022674BD20504000D0001F055FE654A06000F00644B2000290001F0A9
:402080004DFE002202900391614B2000290001F045FE02000B005F485F4902F0B9F822002B0001F03BFE02000B0000205B4902F0AFF82200049005912B002000290001F0D3
:4020C0002DFE02000B000498059901F027FE544A4C4B01F023FE02000B000298039902F097F802000B0004000D003000390000F0C5FE002210003B0032000290039102F05C
:4021000087F802000B002000290002F081F804900591E1E5434A444B0698079901F0FEFD404A414B01F0FAFD0600FFF79AFB002A01D0FFF7A5FB1432D31A3A001A41110030
:4021400099408F4201D0FFF76FFB012313400222D31A9B46FFF768FB304B9E4200DD4EE60023994698467AE602000B00FFF714FC80232E4CDB05089309942D4B2D4C0022BB
:402180000C930D9480242C4BE4020692079356E443465B42984651E6424600F0FDF907E702FCFFFF01FCFFFFFFFF0F00432EE63FEF39FAFE422EE63F396CA80C615C20BE98
:4021C000D0A4BE726937663EF16BD2C541BDBB3E2CDE25AF6A56113F93BDBE166CC1663F3E5555555555C53F0000F03FFFCB904000346F3F59F3F8C21F6EA5010000F0BFAB
:40220000FEFFEF3F4715F73F44DF5DF80BAE543E0000D03F555555555555D53F0000E03FFE822B659C7500883CE4377E03B8E23F06D0CF43EBFD4C3E0000F83FF0B55646B2
:402240004D4644465F46754BF0B40A000D00190083B0060004002940994200D1BAE0002D00DC94E02D1500D1A3E06D4B12039C468023120B5B0365441A43EB0700D581E00E
:402280006B109846E30F9B189B18802216210026002764009203B818984202DC87181B1AB618E00F5B0001391B18640052080029F1D1002201929446802212062020914664
:4022C00009E09F4241D0E10FC9180138CB186400520800281ED0614651189F42F1DA8D18AC46CD0FED07BA464D4539D0DB1B8C42BF417F42DB1B641A019901388B46934410
:4023000059460191E10FC9185746CB18640052080028E0D123432BD1019B5B08414972108C466244F10702D5802109060B43414609058D181E002F003000390003B03CBC37
:4023400090469946A246AB46F0BDA1420ED88D18AC46CD0FED074D4548D09A460023CAE76546002DC2DB7D1CAA46BFE73B00AAE7019B01333ED0019A0123944613406344B3
:402380005B08CBE7E30F52009A18640078E76B005B0803432F00002BCED00025002A31D1E20A153D6405002AFAD080235B031A4223D180200023400300E00B005200591C4E
:4023C0000242FAD02020401AED1A2300C3408C401A434AE702002B00290001F09FFC32002B0000F04BFD06000F00A5E76546002DB9DAB2E70136002390E7012320205B42C0
:402400000021E1E73B000200390001F001FF02000B0001F05FF806000F008DE70000F07F01FCFFFF0000E03F49004B0819007047034B48009C4640086044C00F7047C04689
:402440000000108000207047002001497047C0460000F87FF0B5474680B4CB0F98464A4C4B005B0D1E1982B007000A00132E35DC002E57DB454B040033411F000F40074304
:402480000D00002F24D05B081C000C4020430027002807D0132E00D172E08022D202324199430A434346DE00394B11009E1934687568380022002B0000F0E0FC0090019183
:4024C0000098019922002B0001F0A2FE04000D002000290002B004BC9046F0BD332E0CDD80230400DB000D009E42F1D102000B0000F0C4FC04000D00EAE7264C0D00A446FA
:40250000012463446442DC40A446614604000142DED049080142C5D08027FF051F4188430743BFE74B005B08034304000D00002BCED00B031B0B03435A42134380221B0B96
:40254000120313404A0C5204134319004346104ADB00D3181C685D6822002B0000F08EFC009001910098019922002B0001F050FE42464B005B08D607334304001D00A7E707
:4025800080273F0689E7C04601FCFFFFFFFF0F00C8620100EDFBFFFF4B0070B55B0D14000A00002B1AD14B005B08034315D00022224B01F0B3FB224B0A009C4222DB4B00F0
:4025C0005B0D363B1F4DE318AB4220DC002B0DDD1D4C1B0522401A43110070BD1B4DAB42F0D102000B0000F049FCF6E71D00353518DA174B02009C420ADC0B00154816497A
:4026000000F032F8134A144B01F088FBE5E702000B001248124900F027F8104A104B01F07DFBDAE7084C363322401B051343190000220C4B01F072FBCFE7C0460000504300
:40264000B03CFFFFFE070000FFFF0F80FF07000050C3000059F3F8C21F6EA5019C7500883CE4377E0000903C30B54A00DB0FDB0752081A43110030BD80B582B000AF7860B4
:402680000A00BB1C1A80BB1C1A887B681A60C046BD4602B080BDC04680B582B000AF78600A00BB1C1A80BB1C1A887B681A60C046BD4602B080BDC04680B584B000AF494BE2
:4026C0001B78DBB21B02484A1278D2B21343FB60464B1B78DBB21B02454A1278D2B21343BB60BB68434A934207D1FB68072B04D1414BBB600423FB6009E0BA68D4231B0162
:402700009A4204D1FB68042B01D13B4BBB603B4BBA681A603A4BFA681A603A4B1B78DBB21B02394A1278D2B21343FB60FA6880239B019A4202D0FB68002B01D1334BFB60D4
:40274000334BFA681A60334B1B78DBB21B02324A1278D2B21343FB60FB68304A934206D0FB682F4A934202D0FB68052B01D12D4BFB602D4BFA681A602C4B1B681B097B6079
:402780002B4B1B68AA2B29D17B68012B26D9214B1B78DBB20E2B21D1264B1B78DBB29BB21B0299B2244B1B78DBB29AB2BB1C0A431A80224BBA1C12881A60214B1B78DBB2CA
:4027C0009BB21B0299B21F4B1B78DBB29AB23B000A431A801C4B3A0012881A60C046BD4604B080BD59F1FF0F58F1FF0F5FF1FF0F5EF1FF0F580B0000580D00006C002E4071
:4028000074002E405BF1FF0F5AF1FF0F0220000078002E405DF1FF0F5CF1FF0F0F0F000005050000050F000080002E40EC0F00F0E00F00F06DF2FF0F6CF2FF0F84002E4085
:402840006FF2FF0F6EF2FF0F94002E4080B582B000AF0200BB1D1A80BB1D1B881800FEF731FCC046BD4602B080BDC04680B582B000AF78607B681800FEF7FEFBC046BD465C
:4028800002B080BD80B500AF00F0ECF8C046BD4680BDC04680B500AF00F0F0F8C046BD4680BDC04680B500AF00F0E8F8044B180000F0A2F8032000F0ADF8C046BD4680BD7A
:4028C000C92A000080B500AF034B180000F080F8C046BD4680BDC046C92A000080B500AF014B1800BD4680BD0102000080B582B000AF78602B231800BD4602B080BDC0461D
:4029000080B582B000AF78602B231800BD4602B080BDC04680B582B000AF78602B231800BD4602B080BDC04680B582B000AF78602B231800BD4602B080BDC04680B582B04C
:4029400000AF78602B231800BD4602B080BDC04680B582B000AF78602B231800BD4602B080BDC04680B582B000AF78602B231800BD4602B080BDC04680B582B000AF7860EC
:402980002B231800BD4602B080BDC04680B500AF2B231800BD4680BD80B582B000AF0200FB1D1A702B231800BD4602B080BDC04680B582B000AF786039602B231800BD4627
:4029C00002B080BD80B500AFC046BD4680BDC04680B582B000AF786000F050F87B68180000F00AF8032000F015F800F03BF8C046BD4602B080BDC04680B582B000AF786076
:402A0000034B7A681A67C046BD4602B080BDC0460000002090B585B000AF0200FB1D1A700623FB600B23FC18FEF70FFD030023700B4B0B4A1268C0218A431100FA1D10781A
:402A4000FA68904002000A431A600B23FB181B781800FEF7FEFCC046BD4605B090BDC0460CE400E080B500AF034B802252011A60C046BD4680BDC04600E100E080B500AF0D
:402A8000034B802252011A60C046BD4680BDC04680E100E090B583B000AFFC1DFEF7D5FC03002370074B074A126804218A431A6030BFFB1D1B781800FEF7CBFCC046BD4630
:402AC00003B090BD10ED00E080B500AF13F038FAC046BD4680BDC046002243088B4274D303098B425FD3030A8B4244D3030B8B4228D3030C8B420DD3FF22090212BA030C7E
:402B00008B4202D31212090265D0030B8B4219D300E0090AC30B8B4201D3CB03C01A5241830B8B4201D38B03C01A5241430B8B4201D34B03C01A5241030B8B4201D30B039A
:402B4000C01A5241C30A8B4201D3CB02C01A5241830A8B4201D38B02C01A5241430A8B4201D34B02C01A5241030A8B4201D30B02C01A5241CDD2C3098B4201D3CB01C01A96
:402B8000524183098B4201D38B01C01A524143098B4201D34B01C01A524103098B4201D30B01C01A5241C3088B4201D3CB00C01A524183088B4201D38B00C01A524143087D
:402BC0008B4201D34B00C01A5241411A00D20146524110467047FFE701B5002000F0F0F802BDC0460029F7D076E7704703460B437FD4002243088B4274D303098B425FD395
:402C0000030A8B4244D3030B8B4228D3030C8B420DD3FF22090212BA030C8B4202D31212090265D0030B8B4219D300E0090AC30B8B4201D3CB03C01A5241830B8B4201D371
:402C40008B03C01A5241430B8B4201D34B03C01A5241030B8B4201D30B03C01A5241C30A8B4201D3CB02C01A5241830A8B4201D38B02C01A5241430A8B4201D34B02C01AA0
:402C80005241030A8B4201D30B02C01A5241CDD2C3098B4201D3CB01C01A524183098B4201D38B01C01A524143098B4201D34B01C01A524103098B4201D30B01C01A524122
:402CC000C3088B4201D3CB00C01A524183088B4201D38B00C01A524143088B4201D34B00C01A5241411A00D201465241104670475DE0CA0F00D04942031000D340425340E8
:402D000000229C4603098B422DD3030A8B4212D3FC22890112BA030A8B420CD3890192118B4208D3890192118B4204D389013AD0921100E08909C3098B4201D3CB01C01A68
:402D4000524183098B4201D38B01C01A524143098B4201D34B01C01A524103098B4201D30B01C01A5241C3088B4201D3CB00C01A524183088B4201D38B00C01A5241D9D25B
:402D800043088B4201D34B00C01A5241411A00D20146634652415B10104601D34042002B00D54942704763465B1000D3404201B5002000F005F802BD0029F8D016E77047D6
:402DC0007047C0468446101C62468C46191C634600E0C0461FB500F037FF002801D40021C8421FBD10B500F08BFE4042013010BD10B500F029FF002801DB002010BD012037
:402E000010BDC04610B500F01FFF002801DD002010BD012010BDC04610B500F0B1FE002801DC002010BD012010BDC04610B500F0A7FE002801DA002010BD012010BDC0467D
:402E400070B500220C4B04000D00FFF7EFFF002804D12000290001F04FFD70BD064B00222000290001F0D4F901F046FD80231B069C466044F1E7C0460000E041F8B55646CF
:402E80005F464D464446F0B40F00FD0FAA4609037C002E005F00450F490A7F0D2943C5001803BC46400A570F640DDB0F3843D2009A4500D1AAE06646A61B002E00DCFFE023
:402EC0006346002B39D10300134300D0D9E06B0709D00F232B40042B05D02B1DAB42AD416D4249191D000B0200D482E0CA4B01349C4200D1FEE00A005646C84BED081A40B3
:402F00005007640552020543120B640D002112030B0D1B056405120B1A436308C04CF60714401C43640064083443280021003CBC90469946A246AB46F8BDB74B9C42C6D0EE
:402F400080231B041843382E00DDEBE01F2E00DD1EE120239B1B9C4603006746BB40984613004746F3403B436746BA40571EBA4113430200F240EB1A9D42B6411D008A1A0B
:402F80007642911B0B0231D54A02560A002E00D1B4E0300001F028FD0300083B1F2B00DDB5E020222900D21AD1409E400A009D4032439C4200DDB1E01C1B631C1F2B00DD48
:402FC000D5E0202114002800C91A8C40D8408D400443DA40681E854111002543002476E74146314300D134E2310045466B0700D06FE756464807ED08C9080543864B9C4286
:4030000035D00A036405120B640D7FE76346E31A9B46002B00DC8BE06746002F3CD07E4FBC4200D153E780273F0438435B46382B00DCF7E00243501E82410020D2B25319C8
:403040004218AB4289411D00494289180B02CDD5714B01349C4200D13DE101206F4A6B080A4028401843D507054351082FE72B000B4300D1CBE180231B030B431A03120B5D
:4030800044E7013E002E6DD1AE1AB5429B41091A5B42C91A350075E70700174300D116E701235B429C46E3445B46002B00D0E0E0AA18AA429B4109185B4259181500C5E79C
:4030C000002E75D1661C7605760D012E00DCF3E0AE1AB0464545BF410E1A7F42F61B370200D48FE0551BAA42B641411A76428E1B9A464BE756460022002507E7280001F035
:4031000073FC20300300083B1F2B00DC49E72A002838824000259C4200DC4DE73F49E41A1140D4E60243501E8241D3B2002222E7002B00D0F3E0631C9C465B055B0D012BFB
:4031400000DC9FE0344B9C4500D1C3E0AA180918AA42804140424118CD075208154349086446B4E62C4B9C4200D0ECE6AFE611001F3CE1400C00202B00D17FE04021CB1AB4
:403180009A4015436A1E95410021254300242DE733000700203BDF403B00202E70D04027BE1BB0400243501E824113430022E2E6002C4FD0184CA44500D1ABE0802424049B
:4031C00076422143382E00DDDFE01F2E00DD43E12027BC1BA1460C004F46BC40A0462C004746F4403C434F46BD406F1EBD41F1402C43151BAA429241411A5242891A644687
:403200009A46BFE641464546314300D0BEE6002600240025F2E6C046FF070000FFFF7FFFFFFF0F801F2B59DC2027FF1ABC46070063469F405B46B9461700DF40B8464F46DA
:4032400043461F4363469A40531E9A415B463A43D840F4E60C002C435CD0F643002E55D1551BAA42A441411A6442091B9A46644688E6964FBC4200D0D8E628E6002280E7EA
:4032800000208FE70B002B43002C00D0C2E0002B00D101E10300134300D118E6AB18AB42B6410918764271180A0200D409E1884A1D00114064460AE6002C5BD10E002E43D7
:4032C00000D08AE00100114300D1C2E0010015009A46FCE56446002100258FE620235B429C46DC4463460700DF405B46BC46202B00D1ACE040235F46DB1B98400243501E0B
:403300008241634613431A00002098E66F4CA44500D057E70100150064469A46D7E5002C39D10C002C436ED0DB43002B1AD0674CA44568D0382B00DDA4E01F2B00DDAEE096
:4033400020240F00E41AA740B9462F00DF40B846A3464F46444627435C46A5406C1EA541D9403D43AD1895429B4109185B42591864466BE60C002C4315D1010011437BD025
:40338000010015009A46514CA1E50D43691E8D410021ECB22DE74D4CA44534D0802424045B422143C6E7040014434ED0ED084C072C438025C9082D03294208D0C6082E4225
:4033C00005D1D208410711430C009A463100620FC900E50011433D4C79E50600164300D175E5AE1AB0464545BF410E1A7F42F61B370200D4F4E5551BAA42B641411A7642F2
:40340000891B9A4663E50100150064465FE5002200257BE5002B3BD00300134315D0ED084B072B438025C9082D03294207D0C4082C4204D141070B002100D2081343C90088
:403440005A0F1143DD00214C41E5204C3FE5002054E700260025D1E534000F00203CE7403C00202E2BD04027BE1BB1400D43691E8D4100212C43BCE6802100260903134CAE
:403480000025BBE50D43691E8D410021EDB269E7010015000D4C1AE50100150017E51C000F00203CE7403C00202B0CD04027FB1A99400D43691E8D410021254352E7002124
:4034C000D4E71D0092E50021F3E7C046FF070000FFFF7FFFF0B556464D4644465F46F0B41D000E034C00CB0F87B0070092468146360B640D98466AD06D4B9C4235D080221B
:40350000430F12041343F6001E43C3009946694B00279C460023644402932B0368001B0BED0F51469B46400D009500D178E0604B98426CD05B46DA004B0F802109040B43EA
:4035400013439B465346D9005A4B9C46002360444246201A6A40924601901F430F2F00D9B0E05548BF00C0598746374300D088E0002399460233082700260293CDE7434624
:40358000B34649460093029B009A9246022B00D0BFE1002153460122002689461A40444B002136030C0D2405360B2643434C1B0526401E437600D2077608164348463100E8
:4035C00007B03CBC90469946A246AB46F0BD330003434FD0002E00D1BCE1300001F004FA03000B3B1C2B00DDADE11D220100D31A08393A008F408E40DA40B9461643304B61
:4036000000279C46002360444442029385E753465A4613432CD1002300219B46023397E70B4320D05B46002B00D19EE1584601F0DBF903000B3B1C2B00DD8FE10200594694
:40364000083A91408B461D21CB1A5146D9400B0059460B4351469B469140194B9C4660444042002374E7002300219B4601336FE703236DE700239946013304270026029323
:403680004BE703230C27029347E70122D51A382D00DCB0E153461A4000210023002689467EE700238026994600223603004B77E7FF07000001FCFFFFD8620100FFFF0F80D2
:4036C000F30300005E4500D972E100D16DE1019B4D46013B01930023340002935B461E020B0E1E430B020393330C994633041B0C494620000093FFF7EFF9009B3700434329
:403700000600494620009846FFF76CFA2C0C09040C43A04509D9E419731EA74200D95CE1A04500D859E1023EE4194346E41A49462000FFF7D1F90300009A80465343494600
:4037400020009B46FFF74EFA2A040904120C0A4393450DD94346D219013B974200D93AE1934500D837E102235B429C46D219E0445B46D21A4346360433439B460399180C47
:403780000B0C1D00059309045B46090C0C001B041B0C4443049159436B4368431B190D0CEB189C4203D980246402A44660441C0C09041B04090C20185D18824200D2DEE00B
:4037C00000D1D7E0161A029B9C465D1BAC459B415B42F61AB74200D106E149463000FFF77BF9009B04004343494630009846FFF7F9F92E0C09040E43B04509D9F619631E1D
:40380000B74200D9F3E0B04500D8F0E0023CF6194346F31A494618000293FFF75DF9009B06004343494602989846FFF7DBF92D0409042D0C0D43A84509D9ED19731EAF42C5
:4038400000D9D6E0A84500D8D3E0023EED192404210043463143049E059A3000ED1A0B040C0C1B0C58436643534354439A19030C9B189E4203D980225202944664441A0CAF
:4038800000041B04000C14191B18A54250D34DD001231943964A019B94466344002B00DCF3E64A0709D00F220A40042A05D00A1D8A42894149428B4411005A46D20108D5D5
:4038C0005A468C4B1A4093468022D2009446019B6344894A934200DD5BE65A46C908500708435602514601225B058146360B5B0D0A4055E680231B031E4211D05A461A424F
:403900000ED15E461E433603360B2A0089467B4B46E6032B00D1E1E0012BBBD11A40BBE61E433603360B4246744B39E6002BB1D07D194A1EAF4252D91100A542A8D1039AB6
:403940009A42A5D1A6E703003E00283B9E400023994654E601F048F8203041E603005246283B9A400021934677E6504601F03CF820305EE6029B0026AB4200D323E7039E56
:403980000299B44661448846B045B6415B467642F619B218013B0291974213D290424FD800D18EE0161A9B460DE7894500D28EE674084B46F60735005B081D434B46DB078E
:4039C00002938BE69742EDD10399029CA142E5D93E1A9B46F7E69846CAE61E00A5E6AC423ED874D0110053E70121494252E71C000EE71E002BE71F2D3CDC20230A005846F9
:403A00005B1B9840EA4099400243481E81415E461143EE404B0709D00F230B40042B05D00B00191D99429B415B42F61833023CD55346012200211A40002601238946AFE529
:403A400002235B429C46039CE344A446029B63449846A045B6417642F6190293B218B1E603988A1E41008142B6417642F619AD19039161E71F225242D31A5A46DA40130001
:403A8000202D29D040225846551BA8400143481E814107200B4318400026002809D00F2200261A401900042ABBD10B0070077602360BDB0803439946012253461A40002308
:403AC0006EE502998D42BBD89B4600267BE603989842C5D3110032E70020D7E780265B4636031E433603360B009A8946034B57E5FF030000FFFFFFFEFE070000FF070000A3
:403B0000F0B55F4656464D464446F0B41F035C00DB0F9A46194B0E034D00C90F8046360B6D0D8B4691463F0B640D9D4219D0134B9C421BD00123A54206D018003CBC904662
:403B40009946A246AB46F0BDBE42F6D1C845F4D1D34510D0002DF0D1304303005A1E9341EBE7310001230143E7D1E0E73A430123002AE2D1DEE70023DFE7C046FF0700007D
:403B8000F0B55F46444656464D46F0B41F033C0B2C4F0E034D00A3465C008446360B6D0DC90F9046640DDB0FBD422BD0254FBC422ED0002D0ED1304307008146784278411F
:403BC000002C17D15F463A4314D14B460020002B0AD006E0002C02D15846024301D099421AD00123484218433CBC90469946A246AB46F0BD0028F2D0584258410122404298
:403C00001043F1E737000743D0D002204042EBE75F461743CDD0F8E7A542E2DC05DB5E45DFD808D000205E45DED248424841012340421843D8E7C445D3D80020C445F4D3A6
:403C4000D2E7C046FF070000F0B55F464D4644465646F0B41C03240BA4462F4C0F034D005E00C90F80463F0B6D0D8B469146760DDB0FA54220D0284CA64222D0002D12D1BC
:403C8000384344424441002E20D0002C0DD05C42634101245B421C4320003CBC90469946A246AB46F0BD002E17D05B4519D05B465C4201231C43EFE7390002240143EBD10C
:403CC000D9E7614602241143E6D1D7E761460A43DBD100240028DFD0E9E761460A43E4D1E5E7B54203DD01225C421443D4E7B542CDDB6745DBD809D000246745CCD2594600
:403D00004C426141012449420C43C5E7C845CED80024C845F3D3BFE7FF070000F0B55F4656464D464446F0B40D0399464E002B0B87B00700924680469B46760DCC0F002EEF
:403D400069D06D4B9E4235D05B468022DD001204430F13432B439B46C3009846674B00279C460023664401934A4615035000D20F53462D0B400D914600D176E05E4A904214
:403D80006CD080225B0F120413435C4AED0094461D4353460022DB00604449463618701C6140029017430F2F00D9AFE05448BF00C759BF465B461F4300D088E000239B46ED
:403DC0009846023308270193CEE74946022A6AD0032A00D109E2012A00D0BBE111400022002300259046CCB200212D030A0D12052D0B1543434A1B0515401D436D00E407EB
:403E00006D0825434046290007B03CBC90469946A246AB46F0BD034352D05B46002B00D18AE1584600F0E0FD03000B3B1C2B00DD7BE11D22D31A3A0001005D46DA40083903
:403E40008D4013008F402B439B46B8462E4B00279C46002360444642019385E752462A432CD100250023022297E752462A4321D0002D00D154E1280000F0B6FD03000B3B4C
:403E80001C2B00DD46E11D21CB1A51460200D9405346083A954093400D431B4A944660444042002279E7012400220C40124B0025904699E70025002301226EE703226CE785
:403EC00000239B4698460133042701934CE703230C27019348E700238025984600242D03054B81E75D464346019A6FE75D4643462100019A6AE7C046FF07000001FCFFFF8F
:403F000018630100FFFF0F80F30300004246120C91461A0C9446424617044A461B041B0C5A43604690464A4642431000039262461C003F0C7A437C4342440192220C92460F
:403F4000019A5244904506D98246802040028046C24450460390100C049048462404240C1204121905922A0C2D042D0C68432C00824648467C4350438146200C80465743DD
:403F800057444744BA4503D9802040028046C144380C3F04B84648442404240C01900498A044404404905846000C814658460404200C8246070048465F434C4643436046C1
:403FC00060436446834650464443380C8446E4186444A34203D980235B029C46E34448463F04230C3F0C2404E419574668436F4384464D46504655434243380C81466244E7
:404000004A445B44944503D9802040028446654403983F04834604983F0C8446E344C345804140428246100484460198674484466744A344BC46A345A4419946D4446442CD
:404040008742BF41D4458041E144A04699459B417F424042C8440743120CBA18A045A4415F423B0064422343D71843467D19DB0D6D021D435B465A02059B1A43531E9A4192
:404080005B46DB0D1A4343465B021343EA0107D501225C0813402343EA07029E13436D08574AB218002A4BDD580709D00F201840042805D0181D98429B415B42ED1803006E
:4040C000E80104D54F4A15408022D200B2184E48824200DDE7E60124DB08680718436D02530580462D0B5B0D0C407DE6802259461203114208D0154206D115432D0398460B
:404100002D0B4C46414B6FE65D4615432D032D0B3E4B69E603005546283B9D400023BCE6504600F061FC2030A8E60300283B9F400023BB46984689E600F056FC203073E694
:404140000124A61A382E07DD00220C4000230025904649E6029EA3E71F2E20DC20222C001800921BF040944093400443581E83411C43F540630709D00F232340042B05D0E7
:4041800023001C1D9C4292415242AD182B021FD5012400220C4001230025904624E61F202C004042821AD440202E1CD04022961BB5402B43581E834107202343184000252B
:4041C000002809D00F2200251A401C00042AD8D1230068076D022D0B0124DB08034398460C40002300E60025E3E780220124120315432D0398462D0B0C40044BF4E5C0467E
:40420000FF030000FFFFFFFEFE070000FF070000F0B557464E464546E0B40E001100F20F9246C500420F180337037400400A4E0F7F0A3043CF4E17435A00640D520DDB0F7C
:40424000C900B24200D1E5E001267340A61AB446534500D1AFE0002E00DC0DE1002A3AD103000B4300D0E4E06B0709D00F232B40042B05D02B1DAB42AD416D427F191D00DA
:404280003B0200D488E0BB4B01349C4200D110E13A00B94B51461A4001235007ED08520264050543120B640D0B400021280012030D0D120B64052D0515436208AF4CDB075E
:4042C0002C401443640064081C4321001CBC90469946A246F0BDA74B9C42C5D080231B0418436346382B00DDFDE01F2B00DD30E1624620239B1A02009A40664690460A0001
:404300009940F24046464B1E99413243114363460200DA40691A8D429B410D00BA1A5B42D71A3B0235D57A02530A98464346002B00D1C4E0404600F057FB0300083B1F2BF9
:4043400000DDC5E020222900D21A4746D1409F400A009D403A439C4200DDC0E01C1B631C1F2B00DDE4E0202114002800C91AD8408C408D400443DA40681E8541170025434A
:40438000002471E7424663461A4300D14CE2674645466B0700D069E7012351467807ED08FA080B40054373498C4238D012036405120B640D79E7002E00DC9AE0002A47D0A3
:4043C0006C4A944200D14FE78022120410436246382A00DC08E10143481E81410022C9B24919D219A942BF410D007F42BF183A0200D442E15F4A0134944200D14EE1012062
:404400005D4A69083A4028400843D507054357089A4629E706000E4300D017E714E72900114300D1F9E1802109030A431203120B3BE701235B429846C4446346002B72D170
:40444000691A8D429B413F1A5B42FF1A0D0068E702000A4300D107E7012252429046C4446246002A00D0E6E06918A942B6413F187642F7190D00BAE7002E00D080E0621C8C
:404480005205520D012A00DCF9E06A1A91464D45B6413A1A7642921B9046120200D499E04D1BA9428941C71B49427A1A90469A463CE752460123002513400022F5E6280042
:4044C00000F092FA20300300083B1F2B00DC39E72A002838824000259C4200DC3EE7264FE41A1740C0E60143481E81410022C9B210E7002E00D0F1E0621C94465205520DC7
:40450000012A00DCA0E01B4A944500D1C5E06918A94292413F185242D2194908D5070D4357086446A0E6134B9C4200D0D9E69BE611001F3CE1400C00202B00D180E040215D
:40454000CB1A9A4015436A1E95410027254300241FE763460200203BDA406346202B71D0402366469B1B98400143481E814111430022CFE6FF070000FFFF7FFFFFFF0F8075
:40458000002C48D0CA4CA24200D1A2E07442A1468024240427434C46382C00DDDBE01F2C00DD44E14E462024A41B3E00A640A246B0464C462E00E640B446464664462643A4
:4045C0005446A5406C1EA54134002C434D46EF400D1B28E04A4643464D461A4300D0A5E6002300240025DEE61F2A5ADC66462022921B060096409146B04662460E00D64014
:40460000424616434A4691404A1E9141020060463143C240E4E63C002C435AD0F443A146002C52D14D1BA9428941C71B49427F1A14009A4675E69E4A944200D0C7E613E62E
:4046400000227FE700208FE7002C00D0C8E03B002B4300D10FE103000B4300D104E66918A9429B413F185B42DF193B0200D41AE1904B0D001F406446F6E59A4689E63A006D
:404680002A43002C5CD1002A75D102000A4300D1CAE007000D009A46E6E564460022002581E662460600203AD6406246B046202A00D1B7E040226646921B9040014342461E
:4046C000481E8141114300228AE6794CA24200D061E707000D0014009A46C5E5002C41D13C002C4378D0F443A146002C20D0704CA24271D04C46382C00DDB2E01F2C00DD60
:40470000BCE02026341BA2463C005646B4404E46A0462C00F440A446444666463443A4465446A54064466E1EB54125434C46E7406D188D4289413F184942CF19140056E635
:40474000002A2FD102000A4300D184E007000D009A46574C88E53D436F1EBD41ECB200270D1B60E7524CA24236D0744280263604A1463743BEE702000A4300D174E56A1A27
:4047800090464545B6413A1A7642921B9446120200D4F7E54D1BA9428941C71B49427F1A9A4661E502000A433AD0ED087C072C438025FA082D032A4208D0C7082F4205D191
:4047C00045072C003A009A46C9080C43670FD200E5001743364C47E507000D00140043E53A002A4343D002000A4319D0ED087C072C438025FA082D032A4207D0C6082E4251
:4048000004D147073C003200C9080C43D700620FE50017439A46264C26E50022002544E5234C21E5002049E700230025BBE54C463E00203CE6404C46B446202C31D0402437
:404840004E46A61BB7403D436C1EA54164462C4300270D1BE7E6802200231203144C0025A1E53D436F1EBD410027EDB260E707000D000F4CF8E407000D00F5E44E463C00C2
:40488000203EF440A0464C46202C0ED040244E46A41BA7403D436F1EBD4144460027254346E70027CFE70D0073E50027F2E7C046FF070000FFFF7FFF70B50E4E0C031D035B
:4048C00049005B00240B490D2D0B5B0DB14204D0084900208B4208D070BD04430120002CFAD1044900208B42F6D115432800451EA841F1E7FF0700000B0330B5134D1A0B63
:404900004B005B0DC90F0024AB4211DD104CA34210DC8024640322430E4CE41A1F2C0CDD0D48C31ADA4013005C42002900D11C00200030BD094BCC18FAE7E040084CA4462D
:4049400063449A4013000343EEE7C046FE0300001D0400003304000013040000FFFFFF7FEDFBFFFF70B5002830D0C317C4185C40C50F200000F038F8174B184A1B1AD21A18
:404980001F2A18DD164AD21A9440002224035B05240B5B0D0021100024030A0D1205240B1443104A1B0514401C436400ED0764082C43210070BD210091400A000B21081A55
:4049C000C4405B052403240B5B0DE3E70025002300240022DEE7C0461E0400003304000013040000FFFF0F801C2101231B04984201D3000C10391B0A984201D3000A0839D4
:404A00001B09984201D30009043902A2105C40187047C04604030202010101010000000000000000014B18687047C0463C1000200E4B70B500251E000D4CE41AA410A54282
:404A400004D0AB00F35898470135F8E711F086FC084B00251E00084CE41AA410A54204D0AB00F35898470135F8E770BD6863010068630100686301007063010030B5002446
:404A8000A24208D0035D651C0C5DA34201D0181B02E02C00F4E7002030BD002310B59A4203D0CC5CC4540133F9E710BD03008218934202D019700133FAE77047134A1088CB
:404AC000810703D08107890F401A001D11791030484381B25088820703D08207920F801A001D800040180A494030098980B2CA0701D0503080B2890706D504495422091F1E
:404B000009785143081880B2704700008A0C0020BC10002010B501F00BFF10BD10B501F00DFF10BD10B500F05BFA10BD10B50749044609780220002907D1204601F04EFF1B
:404B4000002802D120460AF00DFA10BD280E002070B504460120002C12D02368002B0FD0616800290CD0074D06222889208118462968FFF792FF69686068097801700020C0
:404B800070BD0000BC100020FFB585B0002768460E9D07734F481C460078002802D0082009B0F0BD10990F9801900095029105A807C800F007F90028F2D16946264603ABD7
:404BC00084460873002C19D0002115E08A00B75A082F09D990198078002805D0083FB7521878401C187005E0002914D00027B75290198770491CC9B2A942E7D3604600281A
:404C0000CED10F98002809D0109901F041FA002804D00120C4E701208446EFE701F08EFE2D480021416081600599016021888180022D07D3A1798171A17AC171A189018183
:404C4000218A418100211EE0481C19E082008B00A75AE65ABE46BE4211D26F463E80B4461E190296B678BE7001967646E6521719029EBB78B3706646A652019EBE70401C00
:404C8000A842E3D3491CA942DED3134822460C3000906846037B0799069800F01BF90028B8D168460B4C007B60700B480C3001F075FE0028AED1084907480C3107F0B0F93E
:404CC0000028A7D107F0CAF90028A3D10121217066E70000840C0020B0100020F8B5054636480F460078002802D002242046F8BD002F60D000243249002D16D02A89D00715
:404D00000DD02868002808D003881B3BE12B04D24088FB2801D81B2801D2012409E0900707D56868002804D1F7E70020088108604860002CDAD122482E8906811F481B2162
:404D4000801D01804180042101711C490020891C0870F00705D019480622801D2968FFF79CFE1749B00703D56A68144812788270124D0E46AD1D281F0D60486001F054FE53
:404D8000284601F043FE30890DF040FE30890DF031F828880DF034F830890DF0A1FF03461033FFF78BFE1F21C018890140183880A91F88809AE7012498E70000840C0020EF
:404DC000BC100020FFB58446384F1C460020BB883F78054602460646002F11D100290ED0029999420BD36146002908D0002C06D00A99002906D02E4B0B99994202D20120C2
:404E000004B0F0BD002144E0AB001F19BF78002F3BD0E35A002B38D07B43591889B22B0000F04AF8050410161C253100A7782388BC46FF27233BEB37BB4222D26346032B66
:404E40001FD322E0A388002B1FD0302B19D31CE02389002B19D0282B13D316E0A289002A13D01346134F233BBB420AD20DE0268A002A0AD033460F4F233BBB4201D296421F
:404E800003D901200EE0002001E000280AD16D1CEDB2099B9D42B7D31C2463435B1802998B42ACD89642AAD8AAE70000840C002079020000BAFF000030B47446641E2578FD
:404EC000641CAB4200D21D46635D5B00E31830BC18470000FFB583B0002469460C801F4606468C80002806D00598002803D004983043800701D0012466E0002FFBD03449CD
:404F0000049809888842F6D3FDF7DCFCFDF7C2FC00F012FC002855D100F07AFD002851D12C49084601F0E8F805042D0C4AD12A480499066081800021C18007810C98007AC7
:404F4000C00704D0684601F012FD040007D10C98007A800703D501A801F012FD0446BF1DFEB2002C20D13146059800F05DF804001AD10DF0C3FE040016D16A4610889288A0
:404F800008368518144AF1B29088D288AEB29319984207D3401B801A80B201F09DFB050007D000E0FF25012400F05EFA002D04D008E0F8B200F01CF9F6E700F081FA0749B6
:404FC0000120087000F0CAFB204607B0F0BD0000880C002015510000C8100020900C002010B503480078012801D101F017FA10BD900C002070B5084B0446DA889E88002053
:405000005518B54206D81D68AA182260DA885118D98070BD032070BDC81000200148008970470000C8100020F0B587B007460D4600208900009006916846FFF7DBFF8446B7
:4050400000285DD1304800990160002117E02E4B88001A680629115406D22C4C0419667882185670628805E0C419203CA67A8218567022891B68C018491C4280C9B2A94273
:40508000E5D300242DE0601CC2B2059025E01E4FA30039689600581840887118039604904E88B04217D938466F46FE80B6464F786E4677710297049F4F800168039F5E18F4
:4050C000767879184E700168764659184E800068029F18184770521CD2B2AA42D7D30598C4B2AC42CFD36046002809D168460699FFF780FF8446002802D105490098086077
:40510000604607B0F0BD0000940C002090630100980C00207047000010B5002809D005494A68002A05D0011F08788000105801F081FA10BD940C002010B50446FFF76EFF7E
:40514000C0B2801DA0420CD307484068002808D0A100405801F0E0F9002801D00470001D10BD002010BD0000940C0020F8B516460D460446FFF752FFC0B2801DA04203D2AE
:405180000020C0430090F8BDB2B2E9B2684601F0E9F90099481C03D0024AA000526811500098F8BD940C0020F8B50746FFF736FF801DC6B20A49002005460C680DE06178F1
:4051C000002907D06188B94202D32078FFF7B4FF002804D1241D6D1CEDB2B542EFD3F8BD940C002010B5002801D0FFF795FF10BD70B506460948002504680BE061780029CC
:4052000005D062882078121D0023FFF7AFFF241D6D1CEDB2B542F1D370BD0000940C0020FFB581B00A9F16000C4620D000F0F2F8054604281BD0002F0CD03846FFF7B4FFBC
:4052400020492A0151184860002810D03A460499FFF723FC1B4928010E504618778101980570200406D47D20C000444304E0FF2005B0F0BD6404640C00F0BAF807460428C6
:4052800007D000F04FFAA0420BD800F04BFA201A03E0204600F0AAFA0020F06035720020E6E700F03FFA009000F0B6FA00980121001B009000F0ECF802493A0151180098B0
:4052C000C860E6E7D4100020F8B5060116483418217A042903D0E068002802D017E00020F8BD00F01FFA054600F096FA00F0A0F804280CD001010C480F18F86800214519EE
:4053000000F0C6F80020F860284600F06FFA6068054D002801D0FFF765FF042020720020A8516081E060DAE7D4100020FEB500266A46304601232549050169180D7A042D8E
:4053400002D0C96800291BD000211154401CC0B20428F0D300246846005D002830D01B48210108184189476805680291002101604160042241810272C160002E02D015E0C9
:405380001354E3E700F054F804280ED001010F4808180190C6680021304600F079F801980021C160304600F021FA0126002D07D038460299A847002F02D03846FFF712FF31
:4053C000641CE4B2042CC6D3FEBD0000D41000200EB5002005216A460090118150810348694600680EF0EFFA0EBD00009C0C0020074A0020010189180B7A042B02D0C968BC
:40540000002903D0401CC0B20428F3D370470000D41000200549002002015218127A042A03D0401CC0B20428F6D37047D410002030B50A4B04200A4C00210A011219157A75
:40544000042D06D0D268002A03D09A4201D808461346491CC9B20429EFD330BDFFFF0000D41000207047000030B50020074C05460423020111190B72A5504D60401C4D81DD
:40548000C0B2CD600428F4D330BD0000D410002030B5094C00231A011219157A042D04D0D568002906D02D18D5605B1CDBB2042BF1D330BD2D1AF7E7D41000200020704798
:4054C0001CB5002469460C70142001902346054A05480EF07DFA04480068401C00D1FF2420461CBD3D5500009C0C00203EB5124A0146FF2000230124126800290DD0012909
:4055000014D0042908D104206946009308814B8110460EF058FA80B23EBD6846009304814381694610460EF049FAF4E768460093048143816946EBE79C0C002070B5458982
:405540000468416800890300FFF7B6FC08280509091E22282628002005F01EFC1EE0022908D0C8B22A4621460CF090FB2046FFF739FE13E002202A4621460CF087FB294671
:40558000204600F00DF809E000200DF01BFF05E02046FFF7CBFE01E0FDF714FA002070BD014B0022DB681847A00C002070B5448905680089022803D0032809D0FF2070BD25
:4055C0002246094C0023A46829460120A04708E0FFF7A4FA241DA2B200232946022006F0D2FB002070BD0000A00C002070470000024800214160018041807047A00C00201F
:4056000070B50C46002186B016460391012802D0022859D116E003A9012006F009FC01281BD1039D324621462846FFF736FA0095287801900220694608814E816846FFF7E4
:40564000B5FF41E0214D002B686809D0049004A9022006F0EDFB01281DD0022006B070BD002812D0298840182146FFF716FA28880024801980B228806988091D884206D138
:405680002C801348FFF792FF03E00320E6E788421AD96C6018E004986860E278A378110219430B4A698000231060E3565360032313815181A1788170E178C1706178417059
:4056C00021780170042028800020C7E7A00C0020141100203EB515460C46022803D004280CD000203EBD0091019002206946088107484A8100680EF066F907E00CF0C6FA37
:40570000044B0022DB6829462046984701203EBD9C0C0020A00C0020014AD16090607047A00C0020034801688068081A0A214843000970472011002010B5FDF7B3F848220F
:4057400004490548FFF7A9F903490120C870002010BD0000AC6301002415002010B5FDF791F810BD70B5134C2368002B08D0207B1149C20705D04008400020738868A0801D
:4057800070BD88680B4AA18880B29268814203D90A4D691A091802E0814202D2411A5118A160A080A0689842EAD30EF029F900F013F870BD20110020C0102E40FFFF0000B6
:4057C00010B508461946FFF7A7FF10BD704710B5FFF780FF10BD000003480021016041608160C1607047000020110020024610B5FF20002A0CD0FFF7EFFF064C0321207B71
:405800000843207310010A21FDF7ECF92060002010BD00002011002000B504480A21806848430209FFF7D8FF104600BD201100200248007B8007C00F7047000020110020B9
:4058400010B54B490868002802DA4A4B01221A70022290430860484800694549C00B4031096A0246C907C90F0A4259D0012000F097FA3F480E216C30FCF70EFF3E48202164
:405880008430FCF709FF3C4814219C30FCF704FF3948FF21C131A430FCF7FEFE3648FF212F31B030FCF7F8FE33483449BC30FCF7F3FE31483249AC30FCF7EEFE30492E483B
:4058C000491CB430FCF7E8FE2B482E49B830FCF7E3FE29482C49CC30FCF7DEFE26482B490830FCF7D9FE24482949A830FCF7D4FE214828498830FCF7CFFE1F4826498C30EC
:40590000FCF7CAFE1C481921C9029030FCF7C4FEFCF7D2FEFCF7E2FFC0B2022812D01FE000290BD0002101420AD0114801216030FCF7B2FE0120FCF799FF97E70121F2E7A5
:40594000FF2010BD15491648FCF7A6FE14481549001DFCF7A1FE124800210830FCF79CFE54200449C043891C0870002010BD000000F02E40B00C002000002E403203000094
:405980002F3F00003102000010520000EC160000FA12000031D000003AE300009956000080012E40F80F000070B50646581C80B245086D00002408E0304600F0C1F8105572
:4059C000000A1119A41C4870A4B2AC42F4D3D80705D0D0182038D15CC47FD454C17770BD30B50A4C002100195B1E07E0541864782502545C2C430480891C89B29942F5DB8D
:405A0000994201D1515C018030BD000000102E4010B5FF2000F0C4F90F49FF2048700E481021801D41800121417001700A490020C91C4870FFF704FF04000AD100F010F956
:405A400007210648FCF718FE044807211830FCF713FE204610BD0000B00C0020CC112E4070B5002405465B1E0AE0284600F068F8010A161971702D1D1055A41CADB2A4B299
:405A80009C42F2DB9C4203D1284600F059F8105570BD000070B500210A4D5B1E0AE0541864782602545C344346193480001D891C80B289B29942F2DB994202D1515C401913
:405AC000018070BD00102E40F0B50599091FCFB200217E1E0BE0541864782502545C2C43164D45192C80001D891C80B289B2B142F1DBFC0712D01C78515C24020F4A0C4309
:405B000081180C809C785D78001D210280B2294384182180001D80B2D9780CE059781A7809021143054A84182180001DD9789B78090280B2194380180180F0BD00102E4004
:405B4000014940180088704700102E4010B50B490020487000F084F8002000F047F9002000F034F907210648FCF786FD044807211830FCF781FD002010BD0000B30C0020F7
:405B8000CC112E4010B50B46062812D006DC01280CD0032801D1FFF7D9FF10BD0A28FCD00B28FAD105480078107010BDFFF730FF10BD1146184600F035F910BDB60C002073
:405BC000F8B5244DAC6A0127A007234E002816DA307806280ED1286A384328621F480069F903084381B21D481030FCF755FD042000F0D6F8174802212830FCF73DFDE007C9
:405C000018D000F063FF01280FD1002000F0B0FF062000F0C5F81049FF20C91E48707078002802D1686B384368630A4801212830FCF722FDE0050BD53078042802D105200D
:405C400000F0AEF80348FF2101312830FCF714FDF8BD000040F02E40B30C002000002E4010B503212348FCF717FD0120FCF7EEFD20483038406A204C80076178800F89003D
:405C800001431C480C38FCF707FD6078002808D0401E022181401820FDF78EF8C000083800E0B82081B21548FCF7F6FC1348032109021438FCF7F0FC10481149B830FCF7C6
:405CC000EBFC612189010F48FCF7E6FC0D480321001FFCF7E1FC0C490C48FCF7DDFC0B480B496038FCF7D8FC084801218838FCF7D3FC10BD70F02E40B60C0020D8102E40DB
:405D000090890000041E2E40FF0F000058122E40209000000849087806280BD148780749002803D1486B400840004863C86A01221043C86270470000B30C002040F02E4051
:405D40000148007870470000B30C002000B50300FFF7B2F8080D050D0B070507090D012000BD032000BD042000BD022000BDFF2000BD0000074A9168D26889B2064B92B26B
:405D8000994204D105498A4201D1012100E000210170704780002E4033D000003FE3000010B50446FCF776FD072C01D9FF2C01D102480470FCF766FD10BD0000B30C0020AA
:405DC0000149487070470000B00C002010B5064A012805D01921C9021046FCF75DFC10BD1D21C902F8E7000090002E4010B50A4A141D012808D009491046FCF74DFC084921
:405E00002046FCF749FC10BD04491046891CFCF743FC0349491DF3E788002E4031D000003AE3000070B50C460546FCF757FDC0B202280E49287804D0FF2810D04C280CD80E
:405E400010E0FF2809D10A4AD0680004800F032801D0087807E09069000A553803E00878207070BD4F382070087070BDB20C002000002E40F0B50122002834D0002932D0D8
:405E80000424420600D00524792342065B06D21800D0641C034600221EE00C2516466E43124D00277519AF72104F002ABB51696007D0661EB24209D10D4E86197606760E9D
:405EC00005E05E06760E8027BE1B00E080269B198919521C2E81D2B2A242DED303480549006B002288611046F0BD0000AC13002079020000BC0C002018B5002069460870DB
:405F00000A48006900280ED0132149014018047E684604704F21C900054800F059F8A04201D0012018BD002018BD0000BC0C002030110020074900200C2242435218927ADF
:405F4000012A05D0401CC0B20628F5D30020704701207047AC130020F8B50E000446154609D0194F19497868A04202D94018A04201D38D4201D90120F8BD31462046FEF7D0
:405F80007DFD00281ED02A4631462046FEF785FDE8B200210C224A43D21913895568EE18A6420BD90126641B1B1B9672834209DA1469C01A044AC0B220329676491CC9B220
:405FC0000629E7D30020F8BDAC13002079020000034610B50020024604E09C5C2018521CC0B292B28A42F8D310BD000070B500F05FF8084C064A216907480D46FEF74DFDFC
:4060000005492846FFF736FFFFF776FF207070BD79020000BC0C002030110020002070470020054A002902D0012902D002E0906000E0D06000207047BC0C002070B5084C36
:40604000154608460549E26889182A46FEF725FDE0684019E06028B270BD000030110020BC0C00203EB50A226946FFF7E7FF044606480A2200686946FEF700FD002802D015
:406080000020C0433EBD20463EBD0000C00C0020002802D0044A914201D2FF20704703494A6108610020704779020000BC0C0020024800218160C16070470000BC0C00200B
:4060C00070B5074C15460548A26880182A46FFF743FFA0684019A06028B270BD30110020BC0C002010B503490A220968FFF7E8FF10BD0000C00C002010B50F4A002313608D
:406100000E4A13600E4B18600E4801600E49012008600E490860000290600E490C4808600D4914300860FF381538506000F0BCF800F0CAF9002010BDF00C0020D80C0020CE
:40614000040D0020080D0020F40C0020E40C0020F4140020E80C0020FC0C0020014610B50020002910D0094B1A689C685118A14209D25868196080188A0704D08A07920F87
:40618000891A091D196010BD002010BDD80C0020F8B50024164E671E321F3D463168136806E01422624310328A58521C1BD0641C9C42F6D36A1C14D02C46142254432246C7
:4061C0000C3288500C214843FFF7C8FF3168002808510AD031680020103408517068401C70602846F8BD2546E4E73846F8BD0000E80C0020F3B50026F64381B000281BDBD0
:406200001E490968884217D80299002914D01B4F142204463F1D54432546396810354859401C09D0FCF736FB38682F1F4159C359994203DBFCF726FB3046FEBD21460831BB
:406240000091465801590C20704308180C220299FEF723FC0948761C001D0068C159B14200D100260549009A091D865008684159491C4151FCF706FB0020FEBDE40C002089
:40628000002803DB07490968884202D90020C043704704491422091D096850431030085870470000E40C0020F0B500200D4A451E0346171F50600FE0142601467143146836
:4062C0000E1DA3510C461668083433511668083435511468401C635039688842ECD30020F0BD0000E80C0020F3B50026F64381B0002841DB2349096888423DD8029900291D
:406300003AD0204F142204463F1D54432546396810354859401C2FD0FCF7BCFA3868415900292BD0211D009146580C21005971430F46C1190C220298FEF7AFFB1148002166
:40634000001D0068761C00590C34C0190160416081600C48001D00680159B14200D100260849009A091D865008684159491E4151FCF788FA0020FEBD3046FEBDFCF782FABA
:40638000FAE70000E40C0020FEB504460D4600201E49089E0860471E009001900290002C11D0486885420ED2002A0CD0002E0AD0642E08D808460C3001681C2068430C180D
:4063C000207A002801D03846FEBD0120226020721846FFF7DDFE6060401C13D06681A6810A4827610C3067610179A94200D205710021684601810A462846029B00F040F801
:406400002846FEBD00202072DDE70000F00C002038B50124009400F039F838BDFEB50027164EFF433D4600240EE01C20316860430818017A002906D04068FFF721FF0028D8
:4064400001D0254603E0641C3079A042EDDA681C12D01C2130684D434419FCF71BFA69466068FFF741FF0546FCF70CFA002DD9D1216868468847D5E7FEBD0000FC0C00208E
:4064800038B50024009400F001F838BD1FB500220C49541E0A60002811DB496888420ED808491C220C31096850430818406801A9FFF7A0FE401C02D0002004B010BD2046B2
:4064C000FBE70000F00C0020F0B50021114A4D1E174611710C3F0B46BD6016E008461C2460431668041D355114680646235014680836A3551468361DA353044616680A3476
:40650000335318301468491C255078688142E5D30020F0BDFC0C002038B500210091002811DB0F49097888420DDA0D4D04010C3529680859002807D0201D0818694600F01D
:406540006FF9002801D0002038BDFCF7A3F928680F34015D491E0155FCF794F9009838BD0C0D0020F7B582B0002502986E1E06602E48D21C024017462D4A2C4610460C38CD
:406580000178106805E02301C358002B0FD0641CE4B28C42F7D3711C28D03401211D40180191039900F02AF900281FD101E02646F1E71F48016820460C300F521C4803996D
:4065C000026820460E30115419480399026820460F3011540398784300F0A0F8144900280968085102D00024009011E001251AE00F48016801980818009900F02CF90028A4
:4066000001D0012502E00098C0190090641CE4B203988442ECD3002D05D10298066004480179491C0171284605B0F0BDFCFF0000180D0020F8B50D4600216A468C46118066
:40664000002839DB23490978884235DA214B04010C3319680A59002A2ED020460C300B5A801C0E5C184670438018954224D3854222D2002006E007465F43BF18AF4206D08A
:40668000401CC0B2B042F6D36046002814D0114E271DC8190C366A46294600F006F900280AD168460088012808D030682946C01900F0D1F8002803D00120F8BD0020F8BD52
:4066C000FCF7E8F830680F34015D491C0155FCF7D9F8F3E70C0D0020F8B50F46002400F031F8002817D10C4900220B460C334A600EE021011D680E466A501D680C36AA5395
:40670000B61C1D680F31AA551D68641C6A54E4B2BC42EED31A71F8BD0C0D002000280BD0C01C074A81085068890053884118994203D89368516018187047002070470000E4
:406740000C0D0020F8B5064600200F4D009029700C0121466846FEF74DFC00280CD129460C3100980860301B001F84B221466846FEF740FC002801D0FF20F8BD6C800098FA
:40678000A8600020F8BD00000C0D0020F8B5002827DB19490978884223DA174C05010C342168485900281CD028460C30085A009028460E300E5C401C0E5420682F1DC0193E
:4067C00000F064F800280CD12068002445590EE0094829460C300068C01900F03CF8002801D00120F8BD00982D18641CE4B2B442EED30020F8BD00000C0D002030B50D46F0
:4068000004000BD0A800FFF789FF6060002805D000202570C0436080002030BD012030BD70B50D46040005D0002D03D00220205E002801DA012070BDFCF72CF80221615EA8
:4068400060688900405828606088401E6080FCF719F8002070BD70B50D46040007D0002D05D002212078615E401E814201DB012070BDFCF70FF86088401C00B2608061687D
:4068800080000D50FBF7FEFF002070BD10B5040009D0227800216068FEF708F90020C0436080002010BD012010BDF0B500231D46002802D00224045F0AE00120F0BD4668B2
:4068C0009F00F6598E4201D1012503E05B1CDBB29C42F4DA15700020F0BD00000148007870470000200D00207CB505460024FEF715F9A8796946087000A8062229460130DD
:40690000FEF7CBF80021684604F00CFD0C2806D0072806D01F2806D0122806D006E0022404E0042402E0272400E0012420467CBD01480121417270472C16002010B500F0C2
:40694000A5F9FFF7FDF9FFF701FA10BD70B504460025FEF7E3F8002C06D0A079012803D8214602F0A9FC00E00125284670BD01460120002902D0502008800020704700007B
:4069800001460120002905D003485422007850430880002070470000220D002010B502460D49FE204870032410460DF02FFB002810D10DF0D3FA00280CD105F095FA002896
:4069C00008D100F059FB002804D104F051FF002800D10024204610BD200D002070B50025044600280ED0A07901280BD8FEF796F8A0790028204602D002F0ECFF03E002F02F
:406A0000C1FF00E00125284670BD0000014610B50120002904D006220248FEF73EF8002010BD00002C0D002001460120002903D0087802490870002070470000220D00201B
:406A400070B592B00E4605460024FEF767F800F01FFD002806D0002D0ED0EA7F1F2A03D9012409E002242EE000A829460130FEF714F8E87F69460870002E0FD0002C22D1B0
:406A8000F27F1F2A01D901241DE008A831460130FEF703F8F07F08A9087001E0002C12D10020002D04D010A9684600F033FD0120002E04D010A908A800F0D0FD01E0002856
:406AC00001D000F0A1FC204612B070BD0148007A704700002C16002038B504460120002C20D0617801291DD800290BD0FF25E535FEF714F80C4828180088C0B2207007280B
:406B000003D00EE0FF25CD35F2E70020694608706846FFF72FF969460878012801D108202070002038BD000000102E40014A002192681047200D002008B500226B461A70E9
:406B400026280CD0094A342852680BD0352805D1900703D50021352005F0A2FA08BD19462620F9E7D007F9D03420F5E7200D002001490872704700002C160020F8B50446C3
:406B80000120002C26D06178012902D92278092A20D8002905D0FF25E5352078092803D004E0FF25CD35F8E708202070FDF7B6FF2078114F114E08280DD00020FFF716F944
:406BC00070780128207810D00D4969180880FE2070700020F8BD0120FFF708F90720B8810549203188800120F2E7B8810248217820308180EBE70000C0112E40200D0020F6
:406C000000102E4070B50E46050001D0002400E00C4C002C11D0E28A500609D5D107C90F022002F06BFFE08A40218843E08204E0D107C90F012002F061FF3146284602F07A
:406C400049FC70BD8C150020F8B50546002004460D4E009013E022466946284600F0C2FF0098002801D00DF0B3F9A878214602F08BFAA878214602F079FA641CE4B2308A77
:406C8000A042E8D8F8BD00005816002038B51E4CFFF756F8042813D0052811D0062812D003282AD007280AD100206946087002460120FEF767FFFFF743F80128FBD138BDD2
:406CC00000F077FB38BD02F0B5FA00F072FB02F015FB8007800F0228F4D10C4841880029F0D05B21095D0029ECD101210170A07D0140022002F002FF38BD02F09FFA0120C3
:406D0000FFF74EF838BD00008C150020460D0020F8B50646002402F05FFF0546304602F075FF03460A480021068A0DE001228A401046174628401F40002803D0002F01D1BE
:406D4000224394B2491CC9B28E42EFD82046F8BD581600201CB50020694648706846FFF7BBFE01AA69460A20FEF70CFF6946042008561CBD70B50D4601F01AFB04000BD0A8
:406D80002079002808D0FDF7C9FEE178A0782A4602F026FC002070BD022070BD0148007870470000641500204030C07E002800D00120704700B500F001F800BD90214843C8
:406DC0000749084A40186030417F491CC9B24177D289914201D300214177C8B2704700006C1500205816002013B501F0E1FA04000BD001F07EFE002807D0214601AA0A314A
:406E00000620FEF7BFFE00201CBD02201CBD000010B50C4601F0CCFA00280AD001F069FE002806D0224604490A20FEF7ABFE002010BD022010BD00004D150020F3B581B0AC
:406E4000074601460026029802F0BEFE0446002F01D0002500E0154D002D21D0284601F0DDFA032C04D13946029802F009FF06463846029902F07AF9032C06D0002C10D019
:406E80000121384601F0D0FB03E03146384603F0FDF8284602F05EF80221284602F074F8FEBD3846029902F061F9FEBD8C15002010B5044600F066FA002804D103F0B0FD79
:406EC000002801D00C2010BD2078611C02F08AFCFF2801D01F2010BD02F0D0FCFF280AD02178621C02F0D0F8044821780068026B601C904710BD072010BD00006C0D002018
:406F000010B503F08DFD002801D00C2010BD02F04BFC03480068C06A8047002010BD00006C0D002070B50D46044610210CF090FF1021601806460CF08BFF334610221946B7
:406F4000204603F09BFD102130460CF081FF02202870204604F0C2FB70BD0000F8B504464078217802028006870FE0781143A67809050002090D0643084601F019FA0021EB
:406F80000546F2B2002812D0002C10D0022F0ED0032F0CD0002A0AD00279092A07D0002A05D0134A5A23527E1B5C9A4207D82889002104F0C8FA20460DF00AF8FF21002915
:406FC00014D10C48224600682946436930469847C0B2FF280AD128464030817EF2B2491C8176FF232146284600F0E3F8F8BD000024150020880D00200020704710B504465C
:4070000003F00EFD002801D00C2010BD2078611C02F0E8FBFF2808D002F020FB044821780068426B601C904710BD1F2010BD00006C0D002010B500F06BF904F019FC002069
:4070400010BD10B5044600786178E2780843A17811430843217908436179084305D003F0D1FC002803D00C2010BD122010BD204602F0B0FC002010BD10B5FBF72FFC02F02F
:40708000CDFD044803F038FD02F0F2FA012000F003F810BD34150020F1B586B003A8009005A8019028489F22817A114081726846FDF74EFD002845D169460989C90705D09C
:4070C000224806990068C2686846904769460989890706D5002835D11D480068816A0698884700282ED11B4E0025757075737571F575357675767575B570F570B5713746F2
:40710000F5730120D03738731F20F880FF2130467972A0300176457600F0BCFA00242046069901F091FC002803D1641C2406240EF5D0FD720749BD72B573C0310D704D70AF
:407140004D600D7207B0F0BD24150020880D00206C0D00206C15002070B505460E46084602F03AFD0446304602F050FD0121A9400A46224001400A4301D0012070BD002073
:4071800070BD10B50446084602F040FD0121A140014201D0012010BD002010BD10B5FEF7CFFD032804D102F049F80120FEF7F8FD10BDFEB51C4616460F46054601F0CAFEC9
:4071C000A878FFF7F7FD02460190334639460094284600F00DF8002808D1A8780199FFF711FDFF2C02D138460CF0F2FEFEBD0000FFB585B005460E980C46FF2810D02B4934
:40720000C00009680A5840180179C0795278814201D9012601E09006860F6846038108E06078A1788006860FE0780002014368460181284601F068FC070007D021462846AC
