:400000000040002011000000250400002504000080B500AF00F00AFA80B500AF234B12221A6000F079FF224B181C01F0C9F8012000F082FF302000F015FE1E4B1E4A1A603A
:400040001E4B8022D2051A601D4B1D4A126802210A431A601B4B1C4A1A601C4B00221A601B4B1B4A126808218A431A60FA23DB00181C00F043FE174B181C00F0F1FE164BC0
:40008000802212061A60154B8022D2021A60144B0820191C00F07CFE082000F09FFE074B8022D2051A60BD4680BDC04630001040001BB70004010B40060000800C020B40D5
:4000C00078002E407C002E402D3E000064F02E406CF02E40DC05000008010B4000010B408910000080B582B000AF72B6354B00221A60FB1D00221A7023E0FB1D1A78131C25
:400100005B009B185B00304A9B183B603B681A78597809020A43997809040A43DB781B061343191C3B681A795B791B0213439BB2081C191C00F0FEF9FB1D1A78FB1D0132C7
:400140001A70FB1D1B78012BD7D9204BEE2212061A601F4B992212041A601E4B992212041A601D4B992212041A601C4A1B4B1B78DBB202210B43DBB21370194A184B1B787F
:40018000DBB23C218B43DBB214210B43DBB21370124A124B1B78DBB216210B43DBB21370104BD82212041A600F4B8022D2021A600E4B30221A60FFF72FFF00F0CBF9BD46CA
:4001C00002B080BD6CF02E40003B01000000024000500F4010500F4020500F4000700F4001700F4008000440080104400802044010B5064C2378002B07D1054B002B02D053
:40020000044800E000BF0123237010BD2004002000000000F43A010008B5084B002B03D00748084900E000BF07480368002B00D108BD064B002BFBD09847F9E7000000000E
:40024000F43A010024040020C80000200000000090B583B000AF62B61B4B181C00F0B8F9012000F085FF96235B00181C00F0D4FD002000F07DFFBC1D00F03AF8031C2380BE
:40028000124B9B680522DA74104B9B68BA1D0021525E121292B2D2B2DA750C4B9B68BA1D1288D2B21A76094B9A68084BDB68101C191C05F00DFD04F07BFAFA235B00181CE8
:4002C00000F0AAFDCCE7C046D1020000FC00002080B582B000AF786039607B68012B00D003E0002000F0CCF9C046BD4602B080BDF0B585B000AF0023BB600023FB600FE075
:40030000012000F0ADFD00F039F9031C5A425341DBB21A1CBB689B18BB60FB680133FB60FB68374A9342EBDDBB68181C354902F097FA031C7B60786804F090F90A1C011C78
:400340000023314C081C111C1A1C231C00F048FF031C0C1C181C211C2C4A2D4B03F034FB031C0C1C1D1C261C786804F077F90A1C011C00238024E405081C111C1A1C231C59
:4003800000F02EFF031C0C1C181C211C214A224B03F01AFB031C0C1C281C311C1A1C231C03F0ACFD031C0C1C1D1C261C7A68131C9B019B18DB00181C04F050F9031C0C1CEA
:4003C000281C311C1A1C231C02F098FB031C0C1C181C211C114A124B02F090FB031C0C1C1A1C231CBC1C101C191C02F069FB031C2380BB1C1B881BB2181CBD4605B0F0BD98
:400400007F841E00204E0000000008409A9999999999F13F6666666666660E40D7A3703D0AD7E33F80B500AFFEE7C04680B586B000AF224B7B61224B3B61204B7B6135E0AB
:400440003B691B68FB603B695B68BB603B699B683B6000237B600CE0FB681A68BB681A60BB680433BB60FB680433FB607B6804337B607A683B689A42EED13B69DB683B60C9
:4004800000237B6008E0BB6800221A60BB680433BB607B6804337B607A683B689A42F2D13B6910333B617B69013B7B617B69002BC6D104F033F9FFF7CBFEFEE7010000001F
:4004C0007040010080B582B000AF154B144A126801218A431A6000237B600FE07B68032B04D8104B7A689200D35800E00E4B0F4A796889008B507B6801337B607B682F2BBA
:40050000ECD9FFF7EFFD0A4B00221A60044B044A126801210A431A60BD4602B080BDC04600001040000000002504000000000020C000002080B582B000AF786039607A6849
:400540003B68101C00211A1C04F026F9BD4602B080BDC04680B500AF054B03221A60054B03221A60044B00221A60BD4680BDC0463000304030003140000E3F4080B500AFA5
:40058000044B1B68402213409B09DBB2181CBD4680BDC0460401044080B500AF064B00221A70064B00221A70054B00221A7000F009F8BD4680BDC0468B1D0020841D002026
:4005C0008A1D002080B500AF00F048FBBD4680BDB0B58CB002AF78602623FB1801221A80204B1B78002B04D1FFF7D6FF1D4B01221A707B68002B2ED00C23FA181A4B111CDD
:400600001A1C1823081C111C1A1C04F0BCF82623FC1816481649A6231A010C23FD18062300932B1C04F0DAF8031C2380114B7A681A602623FB181B88002B0CD10E4B012212
:400640001A702623FC180D4B181C0D210A220EF087FE031C23802623FB181B88181CBD460AB0B0BD3C0400200C3B0100B50900002013002018130020821D00202C3C0100DF
:4006800090B585B000AF021CFB1D1A70FB1D1B78022B04D90E23FB1801221A804DE02A4B1B78042B44D1294B1B78DBB21A1C042313403DD1FB1D1B78002B0DD1244B00228B
:4006C0001A82234B5B68C822D2001A80204B5B68C822D2005A8010E0FB1D1B78012B0CD11B4B96221A821A4B5B68C822D2001A80174B5B688022D2015A80164BFA1D1278C1
:400700001A700E23FC18124B181C0CF09DFF031C23800E23FB181B88002B08D10B4B1B78DBB204221343DAB2084B1A7005E004E00E23FB180422FF321A800E23FB181B88D4
:40074000181CBD4605B090BD821D00208B1D0020FC0000208A1D002080B584B000AF78600A1CFB1C1A700023BB60BB68002B20D07B689A79BB681A700F23FB1800221A700F
:4007800012E00F23FB181B780133BA68D3180F22BA18127879688A5C1A700F23FB181A780F23FB1801321A700F23FB181B78052BE7D9BD4604B080BD80B582B000AF7860CD
:4007C0007B681B789AB27B6801331B789BB21B029BB213439BB2181CBD4602B080BDC04690B585B000AF78600F23FB1800221A707B689B890922934237D17B681A1D7B6809
:400800000F217C18101C00211A1C40230EF0C0FD031C23700F23FB181B78002B1DD17B685B68181CFFF7C8FF031C1A1C022313409BB2002B08D0104B1B68822251007A6847
:40084000081C111C984708E00B4B1B680622FF32111C7A68081C111C9847084B1B78DBB201229343DAB2054B1A700F23FB181B78181CBD4605B090BD181300208B1D0020F9
:4008800090B585B000AF78600F23FC187B68181CFFF7A6FF031C2370144B1B78DBB21A1C012313401FD10F23FB181B78002B16D00823FB1812229A707B689A890823FB18C8
:4008C0001A800823FB180F22BA181278DA707B680822BA181868111C0DF0C4FF03E07B6818680EF025F8BD4605B090BD8B1D002080B582B000AF7860BD4602B080BDC046E9
:4009000080B500AF034B00225A70024B00221A70BD4680BD881D002080B582B000AF7860BD4602B080BDC04680B500AFBD4680BD80B584B000AF78600E23FB1800221A70B1
:400940007B689B79002B1CD10F23FB1800221A7012E00F23FB181B787A68D35C002B04D00E23FB1801221A700BE00F23FB181A780F23FB1801321A700F23FB181B78052BE0
:40098000E7D90E23FB181B78181CBD4604B080BD80B582B000AF021CBB1D1A80BD4602B080BDC04680B582B000AF7860BD4602B080BDC04680B584B000AF021C3960FB1D0D
:4009C0001A70984B1B78DBB201221343DAB2954B1A70FB1D1B78712B00D908E19A00924BD3181B689F460C23FB1807221A700C23FB1800225A700C23FB18181C05F0D9F9C8
:400A00000C23FB1807221A700C23FB1801225A700C23FB18181C05F0CCF9844B1B68181CFFF786FF031E11D0804B1B68181C03F0C3FE7E4B1B68181C0021FFF78DFE7B4B41
:400A40001B68181C0121FFF787FE19E0784B1A78784B1A70784B1A78764B5A70774B1A78744B9A70734B181C03F0A6FE714B181C0021FFF771FE6F4B181C0121FFF76CFE1B
:400A800000200CF0D9FC6E4B04221A70B0E03B68181CFFF741FFABE03B681A78694B1A70A6E0604B1B78DBB21A1C2023134007D1654B1B78102B03D1634B0522DA7097E064
:400AC00096E03B68181CFFF76DFF91E03B68181CFFF768FF5A4B02221A7089E0584B04221A7085E0564B1B78022B34D04D4B1B78DBB21A1C012313402DD04A4B1B78DBB2B2
:400B00001A1C042313400BD04D4B03221A70454B1B78DBB204229343DAB2424B1A701AE0404B1B78DBB21A1C082313400BD0444B04221A703B4B1B78DBB208229343DAB2EF
:400B4000384B1A7007E03E4B1B78032B03D13C4B04221A704CE04BE03B681B88181CFFF717FF45E0394A3B68111C1A1C0223081C111C1A1C03F007FE344B1B785A00344B12
:400B8000D318344A111C1A1C0223081C111C1A1C03F0F9FDFFF7C8FE2AE0FFF7B1FE27E03B685B88162B05D80E23FB183A6852881A8003E00E23FB1817221A803B680E2297
:400BC000BA1811881A8800231204120C1B0C1B041343181C0DF052FE0AE03B68181CFFF74FFE05E03B68181CFFF782FE00E0C0460C4B1B78DBB21A1C112313400FD0094BF1
:400C00001B78DBB201229343DAB2064B1A70124B1B68FA1D11783A68081C111C9847BD4604B080BD8B1D0020803D0100180100207CF1FF0F100100207DF1FF0F7BF1FF0F8D
:400C4000821D0020841D002080010020881D0020003C0100801D00201813002080B500AFBD4680BD90B58BB000AF78602723FC1800F0AFFA031C2370184B1A680C23FB184E
:400C80001A60174B1A680C23FB185A607B68033B144AD35C1A1C0C23FB189A60124B1A680C23FB18DA601C23FB18104A1A600C23FA181C23FB185A600D4B1C22BA181A600A
:400CC0000C4B0D4A1A600A4B1B682723FB181B78181C00F082FABD460BB090BD08010B4000010B40483F010030001040B6EA000008001040040010401700008080B584B065
:400D000000AF78600023FB60154B154A126801210A431A60134B144A1A60144B134A1268802109020A431A607B68002B12D01023FB600CE0012000F093F800F019F8031E85
:400D400002D00023FB6005E07B68013B7B607B68002BEFD1FB68181CBD4604B080BDC04660F02E4078002E400220000010002E4080B582B000AF054B1B68012213407B6067
:400D80007B68181CBD4602B080BDC0460C002E4080B584B000AF021C3960FB1D1A7080239B05FB60FB1D1B781F2B02D9002000F029F8FB1D1B7810339B00FA68D3181B6841
:400DC000BB60FB1D1B7810339B00FA68D3183A681A60BB68181CBD4604B080BD80B582B000AF021CFB1D1A70054BFA1D12781F210A40012191400A1C1A60BD4602B080BDC5
:400E000000E100E080B582B000AF021CFB1D1A7001BEBD4602B080BD80B582B000AF786009E00C4B1B68181C00F0CAF97B680A4A944663447B607A6880231B029A42F0D8F9
:400E4000064B1B687A685343181C00F0B9F9BD4602B080BD900100200080FFFF8801002080B582B000AF021CBB1D1A80BB1D1B88044A12785343181C00F0A2F9BD4602B083
:400E800080BDC0468C01002080B500AF0E4B0E4A126801218A431A600B4B0B4A126802218A431A60094B094A126830218A4310210A431A60054B054A126807218A430121D4
:400EC0000A431A60BD4680BD00F02E4000FF2E4080B500AF0E4B0E4A126802218A431A600C4B0C4A126807218A4302210A431A60084B084A126830218A4320210A431A605C
:400F0000034B034A126801210A431A60BD4680BD00F02E4000FF2E4080B500AFFFF7B4FF044B044A1268802109060A431A60BD4680BDC04600F02E4080B584B000AF7860F9
:400F40000C4B1B6801221340FB607B68002B02D0012B03D005E0FFF797FF06E0FFF7B8FF03E00020FFF74EFFC046FB68181CBD4604B080BD00F02E4090B583B000AFFC1D6E
:400F800000F027F9031C2370074B074A1268C02109020A431A60FB1D1B78181C00F01DF9BD4603B090BDC04600010B4080B500AF054B1A68C0231B02134001D0012300E087
:400FC0000023181CBD4680BD00010B4090B583B000AFFC1D00F0FDF8031C23700C4B0C4A12680C490A408021C9010A431A60084B074A126807490A40802109020A431A6014
:40100000FB1D1B78181C00F0E8F8BD4603B090BD00010B40FF3FFFFF90B585B000AF78600B23FC1800F0D5F8031C2370FFF7BEFF031E04D00123FB60FFF7C8FF01E00023DC
:40104000FB607B680D4A13407B600D4B0C4A12680C4911407A680A431A60094B1B68FB68012B01D1FFF788FF0B23FB181B78181C00F0B3F8BD4605B090BDC04604040400C7
:4010800010020B40FBFBFBFF80B500AF334B1B68042213401FD0324B1B680422134017D0304B1B6804221340DA432D4B1B681A402B4B1A602B4B1B68042293431A1C294BBE
:4010C0001A60294B1B68002B02D0274B1B6898470420FFF7A1FF214B1A688023DB00134022D01F4B1A688023DB00134017D01D4B1A688023DB001340DA43194B1B681A4086
:40110000174B1A60174B1B68184A1A40154B1A60154B5B68002B02D0134B5B6898478023DB00181CFFF778FF0C4B1A688023DB02134011D00A4B1A688023DB02134006D00C
:40114000094B9B68002B02D0074B9B6898478023DB02181CFFF760FFBD4680BD10020B4094010020680400206C040020FFFBFFFF80B584B000AF021CFB1D1A700E4B1B68C4
:40118000DAB20F23FB1802218A431A70FB1D1B78DB18DBB202221340D9B20F23FB180F22BA1812780A431A70034B0F22BA1812781A60BD4604B080BD00020440000000007F
:4011C0000230800803D00138FDD1C046C046C0467047EFF3108072B6704780F310887047F0B546465746C0B48FB01F1C02900391161C00F0A3F9041C0D1CC84B0094019559
:4012000098461B785BB2013305D0301C391C00F0DFFF002806D1009801990FB00CBC90469A46F0BD0298039900F0D2FF8246002831D1301C391C0022002301F013FC0028A6
:40124000E9D001230493B64B04AD6B60534600222B62029B039CAB60EC60B24B2E616F61AA61EB6143461B785BB25A1C0ED0022B0CD0281C00F0DAFF002800D180E02B6A6E
:40128000002B03D003F044FA2B6A0360AB69EC6900930194BFE7029803990022002301F0E1FB002822D0301C391C0022002301F0D9FB041E2CD001230493994B04AD6B608A
:4012C00000232B62029B039CAB60EC6000230024AB61EC6143461B782E616F615BB2002BC7D000228F4BAA61EB61CFE7201C291C00F064FF8246002847D0201C291C00223A
:40130000002301F0AFFB002866D10094019582E7301C391C00F052FF002800D17BE7301C391C0022002301F0A3FB002800D172E7012304937A4B04AD6B602C62029B039C33
:40134000AB60EC6043461B782E616F61002B75D100230024AB61EC61281C00F067FF002872D02B6A002B91D08CE700200021021C0B1C01F0EBFEA861E961022C00D078E7E2
:4013800003F0C6F92123036079E70298039900F015FF0028B1D0301C391C00F00FFF0028ABD0291C201C00F013FF04AD002850D1012304935A4B28626B60029B039CAB60D6
:4013C000EC6043461C782E616F61002CCDD100230024AB61EC614CE70298039900F0EEFE00940195002800D115E7301C391C00F0E5FE00940195002800D10CE7042304930F
:40140000474B04AD6B6000232B62029B039CAB60EC6000230024AB61EC6143461B782E616F615BB2022B04D0281C00F0FFFE002897D103F06DF92223036092E700203A4954
:40144000A861E961022B87D103F062F92123036087E703230493324B2E616F616B6053462B62029B039CAB60EC6043461B785BB2002B1CD102980399E0222C4B1206AA6101
:40148000EB610022002301F0F3FA002830D143461B785BB2022B05D0281C00F0C7FE002800D0ECE603F034F922230360E7E60022029803991E4BAA61EB610022002301F0C3
:4014C000D7FA0028E3D000221A4B301C391C02F07BFA061C0F1C00F0B1FE321C3B1C01F0C1FA0028D3D100220F4BAA61EB61CEE70022104B301C391C02F066FA061C0F1C63
:4015000000F09CFE321C3B1C01F0ACFA0028BED1E022094B1206AA61EB61B8E7B6030020783F01000000F03F0000F0FFFFFFEF470000F07F0000E03FFFFFEFC7F0B5564664
:401540004D4644465F46F0B41C1C131C67008DB07F0800930194061C0D1C80468946A2463B4331D0614B6C0064089C4228DC25D09F4225DC5D4B9F4200D176E000239B4613
:401580004B46002B00DA74E0002A2CD1574B9F4200D18AE0564B9F425FD08023DB059A4501D100F0D1FB534B9A451CD14B46002B19DB301C291C00F007FD07E000280CD031
:4015C0004D4BE01830430AD1002049490DB03CBC90469946A246AB46F0BDA742CADD474800F026FEF2E7301C291C00F0E3FD0B1C4146021C00291ED0E90F0139884659467C
:401600004046014366D03E498F4200DC88E03D498F4201DC00F0E0FB3B4B9C4200DC82E35346002B00DC82E338483949021C0B1C02F0CAF9CAE7002C04D02D48A900890809
:401640008142D9D15146002900DABBE34946002900DA6FE3101C191CB8E75346002B01DA00F020FC301C291CB0E7002A00D185E7A6E7284B9F422ADC234B9F4200DC83E72B
:4016800025493815884201DC00F027FC234B00991B1AD940081C9840904200D074E70123194001335B1A9B466EE7134BE018064300D189E7144B9C4200DC75E35346002BF6
:4016C00000DA34E3009B019C181C211C7EE702239B4659E7301C291C321C2B1C02F00EFC021C0B1C01F032FD70E7C0460000F07F0000F03F0000E03F000010C0B03F010044
:401700000000E0410000F043FFFFEF3F9C7500883CE4377EFFFF3F431304000033040000E94900208C4209DC101C191C0022E74B02F04AF9021C35200C1C4042E44D21157A
:40174000AC4661448A462403E24DE349240B824425438C4200DC3CE3E0498C4201DC00F021FC01218C46DE49E2448C46002400216544CB009946161C2F1CDA4B301C4B4451
:401780001A685B68291C069607970892099302F0B5FB089A099B061C0F1C0698079901F0ADF9021C0B1C0020CA4901F0CFFC021C0B1C301C391C0A920B9302F005F90A1CBB
:4017C000011C131C0491059200220292039380236D109B051D43802300201B03EB1819190D1C041C02980399221C2B1C02F0ECF8021C0B1C301C391C02F080FB089A099B7C
:40180000061C0F1C201C291C02F078FB021C0B1C0698079902F072FB021C0B1C0298039902F0D2F8021C0B1C301C391C02F066FB0A9A0B9B02F0C8F8049A059B06900791BB
:40184000101C191C02F0C0F8041C0D1C221C2B1C02F0BAF8A44A061C0F1C201C291CA34B02F0B2F8A24AA34B01F048F9221C2B1C02F0AAF8A04AA14B01F040F9221C2B1CFB
:4018800002F0A2F89E4A9F4B01F038F9221C2B1C02F09AF89C4A9D4B01F030F9221C2B1C02F092F89A4A9B4B01F028F9021C0B1C301C391C02F088F8049A059B041C0D1CFB
:4018C0000298039901F01AF9069A079B02F07CF8221C2B1C01F012F9029B039C061C0F1C1A1C181C211C231C02F06EF80A1C011C894B08910992111C002201F0FFF8321CEE
:401900003B1C01F0FBF800240D1C02980399221C2B1C02F059F8221C2B1C029003910698079902F051F80022069007917A4B201C291C02F0E3FA089A099B02F0DFFA021C69
:401940000B1C301C391C02F0D9FA049A059B02F03BF8021C0B1C0698079901F0CFF8061C0F1C02980399321C3B1C01F0C7F80024E022201C1206694B0D1C02F025F8684A4C
:4019800006900791674B201C291C02F01DF8029A039B04900591201C291C02F0AFFA021C0B1C301C391C02F0A9FA5F4A5B4B02F00BF8021C0B1C0498059901F09FF85B4BD3
:4019C0004B441A685B6801F099F8061C50460F1C02F044FE041C0D1C06980799544B4B441A685B6804920593321C3B1C01F086F8049A059B01F082F8221C2B1C01F07EF8A9
:401A00000020221C2B1C0290039102F077FA049A059B02F073FA069A079B02F06FFA021C0B1C301C391C02F069FA049005915B464246013B134300D0B1E100233D4C069377
:401A40000794009B019C0026181C211C231C321C02F054FA029A039B01F0B6FF049A059B0D1C271C041C0098019901F0ADFF021C0B1C201C291C01F041F8029A039B0090FC
:401A80000191301C391C01F09FFF041C0D1C009801992B1C221C01F031F8274B82468946994200DC58E1254B4B44034300D001E200980199224A234B01F020F8221C061CE4
:401AC0000F1C2B1C40E0C046FFFF0F000000404301FCFFFF0000F03F8E98030079B60B000000F0FFA03F0100EF4E454A287ECA3F65DBC9934A86CD3F01411DA96074D13F83
:401B00004D268F515555D53FFFAB6FDBB66DDB3F033333333333E33F0000084009C7EE3FF5015B14E02F3EBEFD033ADC903F0100803F01000000F0BFFFFF8F40000070BF39
:401B4000FE822B654715973C5046494602F0D6F9021C0B1C301C391C00F09EFF4E46002800D0A7E1E74B3615F11880235B0398460B41191CE448494484464F007F0DBC4475
:401B80006646E248002230410E1C864340460903090B08434946331CCE0FDD49C91B0841011C704241408946201C291C02F0A6F9041C0D1C009801992B1CB144221C00F0B4
:401BC0009DFF4B461B05984600200022D14B061C0F1C01F0F9FE221C029003912B1C301C391C02F08BF9021C0B1C0098019902F085F9C94AC94B01F0E7FEC94A041C0D1C25
:401C0000301C391CC74B01F0DFFE021C0B1C201C291C00F073FF041C0D1C02980399221C2B1C00F06BFF029A039B061C0F1C02F065F9021C0B1C201C291C02F05FF9321C68
:401C4000009001913B1C301C391C01F0BDFE041C0D1CB54AB54B01F0B7FEB54AB54B02F04DF9221C2B1C01F0AFFEB34AB34B00F045FF221C2B1C01F0A7FEB14AB14B02F023
:401C80003DF9221C2B1C01F09FFEAF4AAF4B00F035FF221C2B1C01F097FE021C0B1C301C391C02F02BF9041C0D1C221C2B1C301C391C01F089FE8023029003910022201CAF
:401CC000291CDB0502F01AF9021C0B1C0298039901F03CFA009A019B041C0D1C301C391C01F072FE009A019B00F008FF021C0B1C201C291C02F002F9321C3B1C02F0FEF82A
:401D00000B1C021C9249002002F0F8F843465C182315002B00DC4FE1021C231C0698079901F052FE52E45346002B00DA7CE4002000214BE487498C46594664440C4300D08D
:401D4000C4E0101C191CC9E4301C291C321C2B1C01F03AFEFFF73AFC7F4B4E0076089E4200DC17E17D4B4B4403430CD1221C2B1C02F0C4F8021C0B1C0098019900F082FE58
:401D8000002800D1EEE606980799754A754B01F01BFE734A734B01F017FEFFF717FC00236B4C069307944CE65346002BBFDA009B019C80221206181C9446231C6344191C4D
:401DC000FFF704FC0020624901F0C0F9021C0B1C3CE400240021CCE463498C42A3DD5C498C4201DDFFF71CFC101C191C0022584B02F084F8C0225D4BD205041C0D1C01F096
:401E0000E3FD5B4A061C0F1C201C291C594B01F0DBFD221C029003912B1C201C291C01F0D3FD002204900591534B201C291C01F0CBFD021C0B1C5148514902F05FF8221CD2
:401E40002B1C01F0C1FD021C0B1C00204D4902F055F8021C0B1C0498059901F0B5FD4A4A424B01F0B1FD021C0B1C0298039902F045F8041C0D1C221C2B1C301C391C00F047
:401E80003DFE0022101C3B1C321C0290039102F035F8021C0B1C201C291C02F02FF804900591C4E5321C2B1C0020294901F04EF9FFF78CFB06980799344A354B01F084FD73
:401EC000324A334B01F080FDFFF780FB5946101C01296CD0191CFFF779FB002A01D0FFF782FB3A1C091A0A41131C8B40BB4201D0FFF750FB012313400222D31A9B46FFF79F
:401F000049FBC04602FCFFFF01FCFFFFFFFF0F0013040000432EE63FEF39FAFE422EE63F396CA80C615C20BED0A4BE726937663EF16BD2C541BDBB3E2CDE25AF6A56113F3D
:401F400093BDBE166CC1663F3E5555555555C53F0000F03F000010C0FFCB904000346F3F59F3F8C21F6EA501FEFFEF3F4715F73F44DF5DF80BAE543E0000D03F55555555E9
:401F80005555D53F0000E03FFE822B659C7500883CE4377E0B4B9E4200DDE3E500239846994611E680240121E402FFF7E2FB802109065918FFF70AFB4A4600F0E1F9021C01
:401FC0000B1CABE60000E03FF0B556464D4644465F46754BF0B40A1C0E1C191C83B0051C041C3140994200D1B7E0002E00DC93E0311500D1A0E06D4B1203CE188023120B6F
:402000005B031A43F30700D577E0731052009846E30FD318802216210027002564009203A818984202DC85181B1ABF18E00F5B0001391B18640052080029F1D100220192DB
:402040009446802212062020924609E0AB4247D0E10F5B0001385B186400520800281ED0614689189D42F1DA8E18B446CE0FF607A94656452ED05B1B8C42AD416D425B1BB1
:40208000641A01995B008B469344594601380191E10F4D465B18640052080028E0D1234330D1019B5B0842497A108C466244F90702D5802109060B4341460E05B1181D1CAA
:4020C0000E1C281C311C03B03CBC90469946A246AB46F0BD6646002ECDDB6E1CB146CAE7A14208D88E18B446CE0FF607564541D099460023C4E71D1CAAE7E30F5200D218FD
:40210000640082E7019B01333AD0019A01239446134063445B08C6E773005B080343D0D00021002E33D1E20A15396405002AFAD080235B031A4226D1802000234003520003
:4021400001330242FBD001252020ED1AC01A4919251CC5409C402A434DE72A1C331C281C311C01F031FC2A1C331C00F0C7FC051C0E1CA6E76646002EAFDA0023A9467FE771
:40218000013700238FE7202001250023DFE72A1C331C281C311C01F0B1FE021C0B1C00F0D5FF051C0E1C8CE70000F07F01FCFFFF0000E03F49004B08191C7047034B4800CB
:4021C0009C4640086044C00F7047C046000010800A1C031C024330B50220002A00D130BD80221206914216D00C4A04208C180C4A9442F4D90B4C0C199442F0D90A4A49003A
:40220000490803209142EAD9064A00209142E6D158425841E3E7002BE1D0EFE70000F0FFFFFFDF7F0000F07FFFFF0F0000207047002001497047C0460000F87FF0B547467D
:4022400080B44B004A4A5B0D9D1882B0071C0C1CCE0F132D39DC002D59DB464F021C2F413B1C0B4003439C46B84667460B1C002F25D043465B081A1C0A401043002700282D
:4022800008D0132D00D16FE099438023DB022B4119430C1C3849F6008E19231C346875683A1C201C291C00F029FC0090019100980199221C2B1C01F021FE021C0B1C101C7E
:4022C000191C02B004BC9046F0BD332D0BDD0B1C8021021CC9008D42F1D1211C00F00EFC021C0B1CEBE7254A9D1801235B42EB409C460B1C6146021C0142E0D04B08034275
:40230000C8D08027FF052F4198430743C2E74C0064080443021C0B1C002CD0D00903090B01434A4211438022090B12035B0C11405B04021C194310480B1CF10041180C682F
:402340004D68201C291C00F0D9FB0090019100980199221C2B1C01F0D1FD4B005B08F6071E43021C331CAAE780273F068CE7C04601FCFFFFFFFF0F00B83F0100EDFBFFFF76
:40238000F8B5314F161C3B1C0B40041C0D1C0A1C1B1520D14B005B0803431BD000222B4B01F012FB2A4B041C0D1C0A1C9E4222DB0F403F153B1C2749363B9B198B4211DD0C
:4023C000221C2B1C2448254900F056F8224A234B01F0FAFAF8BD22498B4222D01D499B198B42EDDC002B0BDD1E491B050A401343201C191CEEE71C4A1C4B01F0E5FAE9E705
:40240000191C353113DA1A4B9E42D9DC221C2B1C1548164900F030F8134A144B01F0D4FAD8E7291C221C2B1C00F068FBD2E70D4936330A401B051343201C191C00220D4B47
:4024400001F0C2FAC6E7C0460000F07F00005043B03CFFFFFE0700009C7500883CE4377EFF070000FFFF0F8059F3F8C21F6EA50150C300000000903C30B54A00DB0F52087F
:40248000DB071343191C30BD80B582B000AF78600A1CBB1C1A80BB1C1A887B681A60BD4602B080BD80B582B000AF78600A1CBB1C1A80BB1C1A887B681A60BD4602B080BD28
:4024C00080B582B000AF304B1B78DBB21B022F4A1278D2B213437B602D4B1B78DBB21B022C4A1278D2B213433B603B682A4A934207D17B68072B04D1284B3B6004237B606E
:4025000009E03A68D4231B019A4204D17B68042B01D1224B3B60224B3A681A60214B7A681A60214B1B78DBB21B02204A1278D2B213437B607A6880239B019A4202D07B680B
:40254000002B01D11A4B7B601A4B7A681A601A4B1B78DBB21B02194A1278D2B213437B607B68174A934206D07B68164A934202D07B68052B01D1144B7B60144B7A681A6066
:40258000BD4602B080BDC046D9F0FF0FD8F0FF0FDFF0FF0FDEF0FF0F580B0000580D00006C002E4074002E40DBF0FF0FDAF0FF0F0220000078002E40DDF0FF0FDCF0FF0FCB
:4025C0000F0F000005050000050F000080002E4080B582B000AF021CBB1D1A80BB1D1B88181CFEF73DFCBD4602B080BD80B582B000AF78607B68181CFEF70EFCBD4602B083
:4026000080BDC04680B500AF00F066F8BD4680BD80B500AF00F06AF8BD4680BD80B500AF00F064F8044B181C00F024F8032000F02DF8BD4680BDC0463527000080B500AFF2
:40264000024B181C00F004F8BD4680BD3527000080B582B000AF786000F048F87B68181C00F008F8032000F011F800F035F8BD4602B080BD80B582B000AF7860024B7A68E4
:402680001A67BD4602B080BD0000002090B585B000AF021CFB1D1A700623FB600B23FC18FEF797FD031C23700A4B0A4A1268C0218A43111CFA1D1078FA689040021C0A4363
:4026C0001A600B23FB181B78181CFEF786FDBD4605B090BD0CE400E080B500AF024B802252011A60BD4680BD00E100E080B500AF024B802252011A60BD4680BD80E100E049
:4027000090B583B000AFFC1DFEF763FD031C2370074B074A126804218A431A6030BFFB1D1B78181CFEF759FDBD4603B090BDC04610ED00E080B500AF11F0C8F9BD4680BDE4
:40274000002243088B4274D303098B425FD3030A8B4244D3030B8B4228D3030C8B420DD3FF22090212BA030C8B4202D31212090265D0030B8B4219D300E0090AC30B8B42E8
:4027800001D3CB03C01A5241830B8B4201D38B03C01A5241430B8B4201D34B03C01A5241030B8B4201D30B03C01A5241C30A8B4201D3CB02C01A5241830A8B4201D38B02A9
:4027C000C01A5241430A8B4201D34B02C01A5241030A8B4201D30B02C01A5241CDD2C3098B4201D3CB01C01A524183098B4201D38B01C01A524143098B4201D34B01C01A1E
:40280000524103098B4201D30B01C01A5241C3088B4201D3CB00C01A524183088B4201D38B00C01A524143088B4201D34B00C01A5241411A00D20146524110467047FFE779
:4028400001B5002000F0FCF802BDC0460029F7D003B5FFF775FF0EBC4243891A1847C04603460B437FD4002243088B4274D303098B425FD3030A8B4244D3030B8B4228D333
:40288000030C8B420DD3FF22090212BA030C8B4202D31212090265D0030B8B4219D300E0090AC30B8B4201D3CB03C01A5241830B8B4201D38B03C01A5241430B8B4201D3D2
:4028C0004B03C01A5241030B8B4201D30B03C01A5241C30A8B4201D3CB02C01A5241830A8B4201D38B02C01A5241430A8B4201D34B02C01A5241030A8B4201D30B02C01AE6
:402900005241CDD2C3098B4201D3CB01C01A524183098B4201D38B01C01A524143098B4201D34B01C01A524103098B4201D30B01C01A5241C3088B4201D3CB00C01A524129
:4029400083088B4201D38B00C01A524143088B4201D34B00C01A5241411A00D201465241104670475DE0CA0F00D04942031000D34042534000229C4603098B422DD3030A25
:402980008B4212D3FC22890112BA030A8B420CD3890192118B4208D3890192118B4204D389013AD0921100E08909C3098B4201D3CB01C01A524183098B4201D38B01C01AB0
:4029C000524143098B4201D34B01C01A524103098B4201D30B01C01A5241C3088B4201D3CB00C01A524183088B4201D38B00C01A5241D9D243088B4201D34B00C01A524161
:402A0000411A00D20146634652415B10104601D34042002B00D54942704763465B1000D3404201B5002000F00BF802BD0029F8D003B5FFF715FF0EBC4243891A1847C04692
:402A40007047C0468446101C62468C46191C634600E0C0461FB500F051FF002801D40021C8421FBD10B500F095FE4042013010BD10B500F043FF002801DB002010BD01207C
:402A800010BDC04610B500F039FF002801DD002010BD012010BDC04610B500F0BFFE002801DC002010BD012010BDC04610B500F0B5FE002801DA002010BD012010BDC046CB
:402AC00038B500220C4B041C0D1CFFF7EFFF002804D1201C291C01F08BFD38BD064B0022201C291C01F00AFA01F082FD80231B069C466044F1E7C0460000E041F0B5454685
:402B000057464E4694464C000A03C90FE0B488460E1C1903470FC500480A6146490F01436046520A1743C0005A00640D520DDB0F8446984500D1A7E0A01A002800DC01E132
:402B4000002A3DD163460B4300D0D4E06B0700D188E00F232B40042B00D183E02A1DAA42AD4180236D427F191B043B404646151C002B00D17CE0CC4B01349C4200D1FDE065
:402B80003A1CCA4BED081A405007640552020543120B640D002112030B0D1B056405120B1A436308C24CF60714401C43640064083443281C211C1CBC90469946A246F0BD0D
:402BC000B94B9C42C2D080231B041943382800DDECE01F2800DD21E120220E1C6346121A9640C340334366469640321C561EB24113430A1CC240EB1A9D42B6411D1CBA1AE7
:402C00007642971B3B0200D497E07A02560A002E00D1B6E0301C01F05DFD031C083B1F2B00DDB7E09E40371C28262A1C361AF240161C9D403E439C4200DDB2E01C1B621CA1
:402C40001F2A00DDD8E01F23291C1C1B331CA540A340D1406C1EA541D64019430D43371C002473E780231B043B40464600D082E78D4BED0878070543FA089C4232D0120300
:402C80006405120B640D85E7A31A002B00DC94E0002A3CD0844A944200D157E7802212041143382B00DC05E163461943481E81410022C8B24019A8429B41051CD2195B42CE
:402CC000D7183B0239D5784B01349C4200D14CE10120764A6B083A4028401843D5070543570833E72B1C134348D080231B031A431203120B4EE70138002878D16346EE1A03
:402D0000B5429B417A1A5B42D71A351C7AE7021C0A4300D11AE7013B002B00D0F2E04019A8429B41CA195B42D718051CC9E7131C334300D118E1171C351C46466B0700D086
:402D400007E795E700287AD1621C5205520D012A00DCFBE06246AA1A9542B6419146781A7242861A320200D493E06246551BAC458041CF1B40423E1A984648E7002200250C
:402D800008E7281C01F0A6FC2030031C083B1F2B00DC47E7283885402E1C00259C4200DC4CE7424AE41A1640371CCFE6634619434B1E99410022CBB21DE7002B00D0F2E026
:402DC000601C43055B0D012B00DCA4E0364B984200D121E163465C19AC429B41CF195B42FA186408D50725435708041CAEE62E4B9C4200D0EAE6A9E6211C331C1F39CB4036
:402E0000191C202A00D182E03F231C1BA64035436E1EB54100270D4300248EE7031C0E1C203BDE40202874D040231B1A99400B1C62461343591E8B4100223343DBE6002CAB
:402E400050D0194CA24200D1A8E08024240440422743382800DDD9E01F2800DD39E120243E1C241AA640B0462E1CA146C640444626434C46A5406C1EA541C74035436046B6
:402E8000451BCF1BAC45894149427F1A141C9846B8E64B464D46334300D0B8E60026002700240025E4E6C046FF070000FFFF7FFFFFFF0F801F2B5BDC2022081CD21A90401D
:402EC000814660469246D8404A4610438146524660469040021C501E8241484610430A1CDA40E7E63C1C2C4358D0C043002851D16046451BAC458041CF1B40423F1A141C97
:402F000098467FE68F4A944200D0CAE61EE600267DE700238CE73B1C2B43002C00D0BDE0002B00D1F5E063460B4300D10EE663465B19AB428041CA19404217183A0200D4A1
:402F4000FCE0814A1D1C17400134FFE53A1C2A43002C51D1002A00D085E062460A4303D00F1C65469846F1E50026002700257FE6181C0A1C2038C240202B00D1A7E04020B1
:402F8000C01A8140081C63461843411E8841104300228FE66B4CA24200D05AE70F1C6546141C9846D2E5002C3AD1381C284371D0DB43002B18D0634882426BD0382B00DDA3
:402FC0009DE01F2B00DDA7E020203C1CC01A8440A1462C1C8246DC404846044350468540681E8541DF402543654465459B417F185B42FF18141C64E6002A19D162460A435D
:4030000077D00F1C654698464E4C9FE53D436F1EBD410027EDB232E7041C0027002527E64848824236D0802000045B420743C5E762460A4349D08024ED087807FA08240334
:403040002843224209D0CE08264206D162464F07381CD20810439846321CD200470F1743C500384C72E562460A4300D16EE56246AE1AB5429241781A5242821A100200D4CB
:4030800055E66246551BAC458041CA1B4042171A98465BE50F1C6546141C57E5002B34D063460B4311D08024ED087807FA08240328432242D1D0CB082342CED162464F0786
:4030C000381CD20810431A1CC7E71E4C3EE5002059E7041C3E1C203CE640341C20282BD04026301A87403D436F1EBD4100272543C5E680270026FF03124C0025B8E53D43C4
:403100006F1EBD410027EDB26EE70F1C65460D4C1CE50F1C654619E51C1C381C203CE040041C202B0CD04020C31A9F403D436F1EBD410027254357E70027D4E71D1CFCE5A6
:403140000027F3E7FF070000FFFF7FFFF0B55F4656464D464446F0B40F0387B098464D003B0BCC0F061C924681469B466D0D01946BD0664B9D4235D080275B467F031F43E3
:40318000F3009946624BFF00400F9C4607430023BB46002665440093424617035000D20F53463F0B400D904600D172E0574A904267D080235B031F435346554A5B0FFF00E6
:4031C0001F43944653460021DB0060444246624092462D1A0E430F2E00D9A1E04D48B600805987465B461E4300D076E000239B469946023308260093CEE799464346BB4619
:4032000001930091009B022B6BD1019B9A46002153460122002789461A403C4B00213F030C0D24053F0B27433B4C1B0527401F437F00D2077F0817434846391C07B03CBCA1
:4032400090469946A246AB46F0BD03433ED05B46002B00D19CE1584601F03CFA2823311C1B1A021C5F46D940083A97400B1C96403B439B46B1460023284D00262D1A009333
:403280008AE7524603213A43A0D10027002302219CE752463A4315D0002F00D185E1381C01F018FA021C28215046891A131CC8405146083B99409F400B1C074317480021F2
:4032C000801A83E70027002301217FE700239B4699460133042600935EE703230C2600935AE7032B00D13CE2012B00D0BFE11A1C019B1A4000210023002789468EE70023FC
:403300008027994600223F03004B87E7FF07000001FCFFFFC83F0100FFFF0F800DFCFFFFBB4500D951E100D14CE14A46039200225C469046013D180E3F0238431B020193B4
:40334000030C994603041B0C4946061C201C1F1C0093FFF7F5F9021C7A4302904946201C171CFFF773FA039B09041B0C19438F420CD9029B8919013B8E4200D952E18F42B8
:4033800000D84FE1029B8919023B0293CC1B201C4946FFF7D5F9009F834647434946201CFFF754FA039A0B041404240C23439F420DD95A469B19013A9E4200D930E19F4222
:4033C00000D82DE10222524294469B19E344029ADB1B17045A463A439346019C170C220C101C04925A4611042204120C141C090C7C4305924A43414347436118100C091842
:403400008C4203D980204002844667440C0C12040804120C3C198118A34200D2E5E000D1DFE01F1B43465C1AA04592415242BF1AB74200D10EE1381C4946FFF781F9009B34
:40344000029043434946381C9846FFF7FFF9230C0F041F43B8450CD9029BBF19013BBE4200D9FBE0B84500D8F8E0029BBF19023B02934346FF1A4946381CFFF761F9009B36
:40348000039043434946381C9846FFF7DFF924040904240C214388450CD9039B8919013B8E4200D9DCE0884500D8D9E0039B8919023B03934346C91A029B039A1B04059C31
:4034C0001A43100C13049146221C049F1B0C5A4344437B437843E318170CDB199C4203D980246402A44660441C0C12041B04120C00199B18814200D296E000D1FCE04A46CD
:4035000001231A4391469B4BEB18002B00DC99E04A4652070AD00F2249460A40042A05D00431494592418946524293445A46D20106D55A46904B1A4080239346DB00EB18AD
:403540008E4A934200DD62E64A465946D208490711435A4689465702514601225B053F0B5B0D0A405AE680205A460003024208D0074206D107433F0399463F0B4246804B27
:403580004CE65F4607433F033F0B221C7C4B45E601F0A0F8031C2030272800DC5EE6083B9E400023B346994665E6504601F092F8021C2032272A00DC75E6574608388740B3
:4035C00000237BE6994500D2AFE65A46594654084A46C8075208024303924A46D2079046A9E60027884500D31CE7019F5A46BC46E044B845BF417F42BF19FF18013ABE42EE
:4036000006D2BC425FD800D19FE03F1B934609E7B742FAD1019B4345F3D9371B934601E79346D4E60293B1E64A468919013A8E4218D99146814200D061E7019A9A4200D05D
:403640005DE760E74F4F7F1B382F13DD012253461A404FE601235B42994654E7029308E7039327E788423CD874D0914647E7019B9A4648E71F2F44DC434B4A469C465B4601
:403680006544FA40AB4013434A46AA40151C6A1E95415A46FA402B43171C5A0709D00F221A40042A05D01A1D9A429B415B42FF18131C3A023ED55346012200211A4000271B
:4036C00001238946AAE502235B429C46019AE3449446E04490459B415B429B19DF193F1BA0E6019F4A467C00BC42BF417F42BF19023AC91901949CE7002B95D1002201924B
:403700009BE75A46214B5B1BDA40202F27D0204B9C465B466544AB4049460B43591E8B411343072200271A4007D00F2200271A40042AB8D17A077F023F0BDB0813439946DF
:40374000012253461A40002368E54145BBD89346002767E6019C9C42C3D391466DE70023DAE780275B463F031F433F033F0B019A034B53E5FF030000FFFFFFFEFE070000A2
:40378000FF07000002FCFFFF1E040000E2FBFFFF3E040000F0B55F464D4644465646F0B41F035C00DB0F99461B4B0E034D00C90F8446360B6D0D8B4690463F0B640D9D4278
:4037C0000CD0154B9C4210D00123A54214D0181C3CBC90469946A246AB46F0BD311C01230143F4D10C4B9C42EED13A430123002AEDD10123A542EAD1BE42E8D1C445E6D143
:40380000CB4506D0002DE2D13043031C581E8341DDE70023DBE7C046FF070000F0B5574645464E46E0B40F034E00C90F8A4632491D035C0084463F0B760D90462D0B640D37
:40384000DB0F8E420FD08C4239D0002E10D13843414241418946002C27D12A4325D1002000290ED108E0391C01432ED1B44226D0002C0BD09A450DD05346594201231943E8
:40388000081C1CBC90469946A246F0BD2A43F3D09A45F1D1A642EFDC1ADA504641424841012341421943081CEBE74A46002AE1D058425841012241421143081CE1E7291CE6
:4038C000114302D1002EC2D0D4E702204042D8E7AF42D1D809D00020AF42D2D2504641424841012340421843CBE7C445C4D80020C445F3D3C5E7C046FF070000F0B55F46B0
:403900004D46444656468046F0B4061C0803000B84462C484C001F035D00C90F640D8B4691463F0B6D0DDB0F844212D0854225D0002C14D161460E4370424641002D35D0AC
:40394000002E21D058425841012143420B43181C0EE06146022031430AD1A5420ED0002D12D13A4310D15B46594201231943081C3CBC90469946A246AB46F0BD391C022009
:403980001143F5D1002CD5D09B45ECD1AC42EADC05DBBC45E7D80FD00020BC45E8D2584641424841414201200843E1E73A43C7D10020002EDCD1D6E7C845D4D80020C8455D
:4039C000EDD3D5E7FF070000F0B55F4656464D464446F0B4051C061C080387B099464F00030BCC0F92469B467F0D019467D06C4B9F4236D080205B4640031843C0006B0F3A
:403A00001843684B83469C4600239846EE00674400934B4649461D03C90F5B0052462D0B5B0D894600D16EE05D498B4264D080205C4940038C4600210543ED00500F054309
:403A4000D20063444846FF187B1C9A46009B604002900B430F2B00D9ACE053489B00C3589F465B461D4300D082E00823009300239B46023300269846CBE7029B0193434627
:403A8000022B59D1012400250026019B1C40444B00212D030A0D12052D0B1543434A1B0515401D436D00E4076D082543301C291C07B03CBC90469946A246AB46F0BD2B4329
:403AC0004ED05B46002B00D185E1584600F002FE021C2823291C9B1A161C5846D940083EB0400B1CB54003439B462E1C0023304F0093BF1A98468CE7514629432ED1002582
:403B0000002202219EE75146294323D0002D00D154E1281C00F0DEFD031C28215046C91A1A1CC8405146083A914095400A1C05431F480021C31A85E7032B00D1C2E1012BD8
:403B400000D06DE14446019B00251C40E4B2002300269DE700250022012173E7032171E70423009300239B4601330026984650E70C230093093B98464BE7802500242D03A2
:403B80000026074B84E74B46AB46161C0193884675E7029BAB46161C019388466FE7C046FF07000001FCFFFF08400100FFFF0F800DFCFFFF330C3604360C9C46331C140C48
:403BC0001204120C53439846634653439946634663430193331C41466343090C4B445B18994505D9802040028146019949440191190C039141460904090C1B045B180493E0
:403C00002B0C9846331C2D04290C4B43604600934346654658435E43009B4D431B0C9946AE194E448446B54203D980235B029946CC44350C2B1C0398634484460593009BA6
:403C400036041B041B0CF3189C446046039058460504060C280C84465043351C81466046654344434846000C8346724314195C44A24203D98022520293465D44220CAD1861
:403C80004A461204120C24044046A41862464A437143464360460096464670438046100C84468844E044414505D9802149028C4600996144009101980399844661449942DD
:403CC0009B415B4299460598434684461204120C1B049B1863449C46AB4683429B4140460A19CC44A2428941E344CC45B6415C46000C8046494276425B42641833439844A3
:403D00008C428941AB459B4149425B4219430D1C009B4544EE187602E50D2E43B346049B56021E43731E9E415B46D20D324366021643DB010AD50123334076081E435B4624
:403D4000DB071E435B465B089B465746634BFB18002B5ADD720709D00F223240042A05D0321DB242B6417642B344161C5A46D20106D55A465A4B1A4080239346DB00FB18F1
:403D8000584A934234DD0124029B00251C400026554B7DE680205B460003034208D0054206D105432D032D0B4C46161C4E4B6FE65D4605432D032D0B4B4B69E6504600F070
:403DC00089FC031C2033272B00DCA6E65546083885400022ACE6281C00F07CFC021C2032272A00DC75E6083885400026AB467DE65A46F608520716435A4601245502029A93
:403E00005B052D0B5B0D144042E6384DED1B382D0ADD0124029B00251C400026002337E6019B5746029391E71F2D25DC304B321C9C466744BE405B46BB40371CEA407E1EE8
:403E4000B74113433B431E1C5B46EB401D1C730709D00F233340042B05D0331DB342B6417642AD191E1C2B0220D50124029B00251C40002601230BE65A461E4BDB1BDA408E
:403E8000131C202D1CD01C4A94465A466744BA40171C3E43721E96411E4307230025334007D00F2300253340042BD6D16B076D022D0B0124F6081E43029B1C400023E7E5DB
:403EC0000027E6E780255B4601242D031D43019B2D0323401C1C2D0B034BD9E5FF030000FFFFFFFEFE070000FF07000002FCFFFF1E040000E2FBFFFF3E040000F0B54D46AD
:403F000044465F465646F0B40E1C111C3203520A470F1743C5001A035800DB0F9946520A4B0F83B01A43CB000193CF4B7400F60F640DB046400D984200D1E8E00123494665
:403F400059400B1C9E4200D1B1E0261A002E00DC1CE1002842D1131C01990B4300D0E6E06B0700D18EE00F232B40042B00D189E02A1DAA42AD418023012641466D427F19A0
:403F80001B043B400E40151C002B00D183E0B64B01349C4200D116E13A1CB44BED081A405007640552020543120B640D002112030B0D1B056405120B1A436308AC4CF6076E
:403FC00014401C43640064083443281C211C03B03CBC90469946A246AB46F0BDA24B9C42BED080231B041A43382E00DD03E11F2E00DD3FE12020831B9946131C49468B4031
:404000009C46019B6046F34003430198F2408840011C481E81410B43EB1A9D4280411D1CBA1A4042171A3B0200D4A8E07A02560A002E00D1CAE0301C00F04CFB031C083B55
:404040001F2B00DDCBE02822291C121AD1409E400A1C9D4032439C4200DDC8E01C1B671C1F2F00DDEDE01F23291C1C1B131CA540A340F9406C1EA541FA4019430D43171CC0
:4040800000246DE78023012642461B043B401640002B00D07BE7744BED0878070543FA089C423BD012036405120B640D7EE7231A9A46002B00DCA5E0002844D06A488442B5
:4040C00000D14DE78020000402435346382B00DC1CE1019B1A43511E8A41D1B200224919A94280410D1CD219404217183B0246D55D4B01349C4200D169E101205B4A6B08EB
:404100003A4028401843D5070543570828E7131C01990B4300D111E74B4613E72B1C134351D080231B031A431203120B3EE7013E002E00D080E0691A8D429B41BA1A5B42D6
:40414000D71A0D1C6FE7101C019B184300D107E701235B429C46E2445346002B00D002E1019BD2195919A9429B415B42D7180D1CBCE76346034300D128E1071C65466B078C
:4041800000D0F0E6012643461E4084E7002E00D081E0601C4005400D012800DC07E10199681A84466545B641B81A7642861B300200D4A1E08C464D1BAC458941D21B4942E0
:4041C000561A984634E700220025EFE6281C00F081FA2030031C083B1F2B00DC33E7021C283A95402A1C00259C4200DC36E71F4FE41A1740B4E6019B1A43511E8A41D3B2ED
:40420000002209E7002B00D001E1601C43055B0D012B00DCB0E0144B984200D11EE1019BD2195919A9429B415B42D2184908D5070D435708041C93E60B4B9C4200D0D3E649
:404240008EE6211C131C1F39CB40191C202F00D18EE03F231C1BA24015436A1E954100270D4300248BE7C046FF070000FFFF7FFFFFFF0F80331C101C203BD840202E79D060
:4042800040239B1B9A40131C019A1343591E8B4100220343C0E6002C53D0C74CA04200D1B0E0802471428946240427434946382900DDCDE01F2900DD59E120243E1C611A4B
:4042C0008E408A46B04649462E1CCE405146B4468D4064464646494626436C1EA541CF4035430199D71B8C464D1BAC4592415242BF1A041C984696E663466546334300D0B5
:4043000096E60026002700240025C4E61F2B61DC2020C31A9B46131C59468B4051469946019BCB409C464B46604603439C465B46019999406346481E814119435346DA4051
:40434000CDE63C1C2C435DD0F1438946002955D10199D21B8C464D1BAC4589414942571A041C98465FE69448844200D0ADE6F7E5002271E7002387E73B1C2B43002C00D0DC
:40438000DAE0002B00D113E1131C01990B4300D1E6E54919A9429B41D2195B42D7183B0200D421E1854B0D1C1F40041CD8E5381C2843002C40D1002800D083E0101C01999B
:4043C000084303D0171C0D1C9846C9E500260027002560E65046131C2038C340181C5346202B00D1C1E0402351465B1A9A40019911434A1E91410022014370E66E4CA0428C
:4044000000D053E7171C019D041C9846A8E5002C28D13C1C2C4300D18AE0DB439A46002B00D082E0019BD2199C4665449D42894149425718041C59E600285BD1101C019966
:40444000084300D1A4E0171C0D1C98465A4C87E53D436F1EBD410027EDB242E7041C0027002518E6544CA04262D0534680245B429A46240427435346382B00DD8EE01F2B5B
:4044800000DD9DE02024E31A9B463B1C59468B40514699462B1CCB409C464B46644623439C465B469D4063466C1EA541CF401D43019BBF189C4665449D4292415242BF1871
:4044C000041C13E6101C0199084300D148E5681A844685428041BE1A4042301A060200D447E68C464D1BAC458941D21B4942571A984635E5101C0199084334D08024780705
:40450000ED08FF0824032843274208D0D608264205D1C90852070A43101C371C9846FF00420F1743C500244C1AE5234CA042A2D1171C019D041C13E5002B35D0131C019938
:404540000B4310D080247807ED08FF08240328432742E4D0D3082342E1D1C90852070A43101C1F1CDBE7144CFAE400223FE74C463E1C203CE6404946341C202932D0402629
:40458000761AB7403D436F1EBD4100272543A8E680270026FF03084C00257CE53D436F1EBD410027EDB283E7171C019D024CD7E4171C019DD4E4C046FF070000FFFF7FFF7D
:4045C00054463B1C203CE3401C1C5346202B0DD0402351465B1A9F403D436F1EBD410027254365E70027CDE70D1CC8E50027F3E70B0330B5134C1A0B4B00051C5B0DC90F49
:404600000020A34210DD104883420EDC80200F4C40030243E41A1F2C0ADD0D48C31ADA40131C48424340581830BD0A4BC818FBE7281CE040084CA44663449A40131C03433A
:40464000EFE7C046FE0300001D0400003304000013040000FFFFFF7FEDFBFFFF38B5041E16D0C50F00D04442201C00F033F8174B1B1A0A2821DC021C211C153291400A1CB7
:404680000B21081AC4405B052403240B5B0D03E000250023002400220021101C24030A0D1205240B14430A4A1B0514401C436400ED0764082C43211C38BD0B3884405B05FE
:4046C0002403240B5B0D0022E6E7C0461E040000FFFF0F801C2101231B04984201D3000C10391B0A984201D3000A08391B09984201D30009043902A2105C40187047C0467A
:4047000004030202010101010000000000000000014B18687047C046180400200E4B70B500251E1C0D4CE41AA410A54204D0AB00F35898470135F8E70FF088FC084B00251D
:404740001E1C084CE41AA410A54204D0AB00F35898470135F8E770BD5840010058400100584001006040010030B50024944208D0035D651C0C5DA34201D0181B02E02C1CA7
:40478000F4E7002030BD002310B5934203D0CC5CC4540133F9E710BD031C8218934202D019700133FAE7704710B501F059FA10BD10B500F0ADF810BD10B5074904460978CE
:4047C0000220002907D1204601F06BFA002802D1204608F01BFF10BD92020020FFB51E4F81B00646397800200A9D1C46002902D0082005B0F0BD0299002900D10120002E05
:4048000027D0002C25D00028F3D101F029FA032D05D9A0894008A081A07B4000A0732B4622460399029800F019F80028E1D17D7001F01EFA0028DCD130467E6006F0D4F887
:404840000028D6D106F0EAF80028D2D101213970CFE70120CDE7000098010020FFB5002481B01D460F460646002806D00398002803D030463843800701D001243CE0032D5C
:40488000FBD91F488742F8D3FDF7D8FEFDF7C0FE00F098FA00282DD100F0F4FB002829D11849084600F0C6FD0004000C22D13046154E3060B7800020F0803581AD1DEFB24E
:4048C0003946039800F066F804000ED1B088F2880837801AF9B280B201F09CF8002801D0012407E0E8B200F00DF900F025F907490120087000F078FA204605B0F0BD0000CA
:40490000D8080000114A00007C040020A001002010B503480078012801D100F01DFF10BDA001002070B5084B0446DA889E8800205518B54206D21D68AA182260DA88511884
:40494000D98070BD032070BD7C04002001480089704700007C04002030B50C4B04461B7A01209C4210D20A4D2B68002B0CD0A000002902D0C3185B8B0B80002A03D0296836
:404980004018407E1070002030BD00007C040020A4010020F3B582B00C4600208900009001916846FFF7BEFF164D00992960002826D1002317E09A002968062B8B5406D2C6
:4049C000114E9619777851184F70718806E0029E9619203EB77A51184F7031892E6892195B1C5180DBB2A342E5D3002808D168460199FFF797FF002802D1044A0099116018
:404A000004B0F0BDA401002080400100A80100207047000010B5002809D005494A68002A05D0011F08788000105800F0A1FF10BDA401002010B50446FFF788FFC0B2801D05
:404A40000749A04202D24868002808D04968A000085800F0FFFE002801D00470001D10BDA4010020F8B516460D460446FFF76EFFC0B2801DA04203D20020C0430090F8BD8F
:404A8000B2B2E9B2684600F00BFF0099481C03D0024AA000526811500098F8BDA4010020F1B50027FFF752FF801DC6B20B48002504680FE0607800280AD06188009881424C
:404AC00003D32078FFF7B6FF0746002F04D1241D6D1CEDB2B542EDD33846F8BDA401002010B50446FFF732FFC1B200208C4202D2A01DFFF79FFF10BD10B5002801D0FFF7F7
:404B000089FF10BD70B506460948002504680BE06178002905D062882078121D0023FFF7A1FF241D6D1CEDB2B542F1D370BD0000A4010020002070471CB5002469460C7094
:404B4000142001902346054A05480CF093FB04480068401C00D1FF2420461CBDB54B0000AC0100203EB5124A0146FF2000230124126800290DD0012914D0042908D104201C
:404B80006946009308814B8110460CF06EFB80B23EBD6846009304814381694610460CF05FFBF4E768460093048143816946EBE7AC01002070B5458904684168008903004A
:404BC00000F026F806240408081D2124002004F0E1FE1BE0022908D0C8B22A4621460AF035FE2046FFF788FF10E002202A4621460AF02CFE2946204600F018F806E00020CD
:404C00000CF02CF802E020460CF0BAFB002070BD30B47446641E2578641CAB4200D21D46635D5B00E31830BC18470000014B0022DB681847B001002070B544890568008985
:404C4000022803D0032809D0FF2070BD2246094C0023A46829460120A04708E0FFF7A4FD241DA2B200232946022005F0A0FD002070BD0000B00100207047000002480021EA
:404C80004160018041807047B001002070B50C46002186B016460391012802D0022859D116E003A9012005F0DAFD01281BD1039D324621462846FFF766FD009528780190CC
:404CC0000220694608814E816846FFF7B5FF41E0214D002B686809D0049004A9022005F0BEFD01281DD0022006B070BD002812D0298840182146FFF746FD28880024801982
:404D000080B228806988091D884206D12C801348FFF792FF03E00320E6E788421AD96C6018E004986860E278A378110219430B4A698000231060E35653600323138151816E
:404D4000A1788170E178C1706178417021780170042028800020C7E7B0010020880400203EB515460C46022803D004280CD000203EBD0091019002206946088107484A819E
:404D800000680CF072FA07E00AF060FD044B0022DB6829462046984701203EBDAC010020B0010020014AD16090607047B0010020034801688068081A0A214843000970479B
:404DC0009404002010B5FDF729FC542204490548FFF7D9FC03490120C870002010BD00009C400100D405002010B5FDF70BFC10BD70B5134C2368002B08D0207B1149C2077D
:404E000005D04008400020738868A08070BD88680B4AA18880B29268814203D90A4D691A091802E0814202D2411A5118A160A080A0689842EAD300F015F80CF033FA70BDC1
:404E400094040020C0102E40FFFF000010B508461946FFF7A7FF10BD704710B5FFF780FF10BD000003480021016041608160C160704700009404002010B502000DD0FFF72C
:404E8000F1FF074C0321207B0843207310010A21FDF7DCFC2060002010BDFF2010BD00009404002000B504480A21806848430209FFF7D8FF104600BD940400200248007BF2
:404EC0008007C00F704700009404002070B545490868CA0410430860434AD06853051843D0600868002802DA404B01221A700222904308603B480E216C30FDF7D3FA3948FE
:404F000001216030FDF7CEFA394C3A4D21462846FDF7C8FA374838496C38FDF7C3FA0A20FDF764FB33487C380069C30B2D484030026A134254D0012000F028FA2146284662
:404F4000FDF7B0FA2B4820210830FDF7ABFA294814212030FDF7A6FA2648FF21C1312830FDF7A0FA2348FF212F313430FDF79AFA204822494030FDF795FA1E482049303052
:404F8000FDF790FA1E491B48491C3830FDF78AFA18481C493C30FDF785FA16481A495030FDF780FA134819497438FDF77BFA114817492C30FDF776FA0E4816490C30FDF7E1
:404FC00071FA0C4814491030FDF76CFA09481921C9021430FDF766FAFDF772FA002070BDFF2070BD00F02E4000020B40C0010020556500007C002E4092C900003203000054
:405000002F3F00003102000010520000EC160000FA12000031D000003AE3000070B50646581C80B245086D00002408E0304600F07FF81055000A1119A41C4870A4B2AC4232
:40504000F4D3D80705D0D0182038D15CC47FD454C17770BD30B50A4C002100195B1E07E0541864782502545C2C430480891C89B29942F5DB994201D1515C018030BD00003E
:4050800000102E4010B5FF2000F080F90F49FF2048700E481021801D41800121417001700A490020C91C4870FFF710FF04000AD100F0CCF807210648FDF7E6F90448072168
:4050C0001830FDF7E1F9204610BD0000C0010020CC112E4030B504465B1C1804450C002308E0204600F024F8241D59005B1CA4B250529BB2AB42F4D330BD000070B500216E
:405100000A4D5B1E0AE0541864782602545C344346193480001D891C80B289B29942F2DB994202D1515C4019018070BD00102E40014940180088704700102E40014A801812
:405140000180704700102E4010B50B490020487000F07CF8002000F03FF9002000F02CF907210648FDF790F9044807211830FDF78BF9002010BD0000C3010020CC112E4064
:4051800010B50B46062812D006DC01280CD0032801D1FFF7D9FF10BD0A28FCD00B28FAD105480078107010BDFFF76CFF10BD1146184600F02DF910BDC6010020F8B5204D75
:4051C000AC6A0127A0071F4E002816DA307806280ED1286A384328621B480069F903084381B219481030FDF75DF9042000F0CEF8134802212830FDF747F9E00711D00620F6
:4052000000F0C4F80F49FF20C91E48707078002802D1686B38436863094801212830FDF733F9E0050BD53078042802D1052000F0ADF80348FF2101312830FDF725F9F8BDE3
:4052400040F02E40C301002000002E4010B503212348FDF727F90120FDF7BAF920483038406A204C80076178800F890001431C480C38FDF717F96078002808D0401E022167
:4052800081401820FDF7D2FBC000083800E0B82081B21548FDF706F91348032109021438FDF700F910481149B830FDF7FBF8452189010F48FDF7F6F80D480321001FFDF700
:4052C000F1F80C490C48FDF7EDF80B480B496038FDF7E8F8084801218838FDF7E3F810BD70F02E40C6010020D8102E4090890000041E2E40FF0F000058122E402090000018
:405300000849087806280BD148780749002803D1486B400840004863C86A01221043C86270470000C301002040F02E400148007870470000C301002000B50300FFF768FC27
:40534000080D050D0B070507090D012000BD032000BD042000BD022000BDFF2000BD0000074A9168D26889B2064B92B2994204D105498A4201D1012100E00021017070473D
:4053800080002E4033D000003FE3000010B50446FDF73EF9072C01D9FF2C01D102480470FDF730F910BD0000C30100200149487070470000C001002010B5064A012805D05D
:4053C0001921C9021046FDF76DF810BD1D21C902F8E7000090002E4010B50A4A141D012808D009491046FDF75DF808492046FDF759F810BD04491046891CFDF753F803496E
:40540000491DF3E788002E4031D000003AE300000078074AFF2803D04C2804D9553803E01078087070474F380870107070470000C201002010B50F4A002313600E4A136045
:405440000E4B18600E4801600E49012008600E490860000290600E490C4808600D4914300860FF381538506000F0BCF800F0CAF9002010BDE4010020CC010020F80100207B
:40548000FC010020E8010020D8010020A4050020DC010020F0010020014610B50020002910D0094B1A689C685118A14209D25868196080188A0704D08A07920F891A091D8F
:4054C000196010BD002010BDCC010020F8B50024164E671E321F3D463168136806E01422624310328A58521C1BD0641C9C42F6D36A1C14D02C461422544322460C3288505E
:405500000C214843FFF7C8FF3168002808510AD031680020103408517068401C70602846F8BD2546E4E73846F8BD0000DC010020F3B50026F64381B000281BDB1E490968F1
:40554000884217D80299002914D01B4F142204463F1D54432546396810354859401C09D0FDF756F838682F1F4159C359994203DBFDF748F83046FEBD2146083100914658F3
:4055800001590C20704308180C220299FFF7FBF80948761C001D0068C159B14200D100260549009A091D865008684159491C4151FDF728F80020FEBDD8010020002803DBA1
:4055C00007490968884202D90020C043704704491422091D096850431030085870470000D8010020F0B500200D4A451E0346171F50600FE014260146714314680E1DA35101
:405600000C461668083433511668083435511468401C635039688842ECD30020F0BD0000DC010020F3B50026F64381B0002841DB2349096888423DD8029900293AD0204FA6
:40564000142204463F1D54432546396810354859401C2FD0FCF7DCFF3868415900292BD0211D009146580C21005971430F46C1190C220298FFF787F811480021001D00682C
:40568000761C00590C34C0190160416081600C48001D00680159B14200D100260849009A091D865008684159491E4151FCF7AAFF0020FEBD3046FEBDFCF7A4FFFAE70000DD
:4056C000D8010020FEB504460D4600201E49089E0860471E009001900290002C11D0486885420ED2002A0CD0002E0AD0642E08D808460C3001681C2068430C18207A002810
:4057000001D03846FEBD0120226020721846FFF7DDFE6060401C13D06681A6810A4827610C3067610179A94200D205710021684601810A462846029B00F040F82846FEBD66
:4057400000202072DDE70000E401002038B50124009400F039F838BDFEB50027164EFF433D4600240EE01C20316860430818017A002906D04068FFF721FF002801D02546A9
:4057800003E0641C3079A042EDDA681C12D01C2130684D434419FCF73BFF69466068FFF741FF0546FCF72EFF002DD9D1216868468847D5E7FEBD0000F001002038B5002451
:4057C000009400F001F838BD1FB500220C49541E0A60002811DB496888420ED808491C220C31096850430818406801A9FFF7A0FE401C02D0002004B010BD2046FBE70000AE
:40580000E4010020F0B50021114A4D1E174611710C3F0B46BD6016E008461C2460431668041D355114680646235014680836A3551468361DA353044616680A34335318306D
:405840001468491C255078688142E5D30020F0BDF001002038B500210091002811DB0F49097888420DDA0D4D04010C3529680859002807D0201D0818694600F06DF9002841
:4058800001D0002038BDFCF7C3FE28680F34015D491E0155FCF7B6FE009838BD00020020F7B582B0002502986E1E06602E48D21C024017462D4A2C4610460C380178106804
:4058C00005E02301C358002B0FD0641CE4B28C42F7D3711C28D03401211D40180191039900F028F900281FD101E02646F1E71F48016820460C300F521C480399026820465D
:405900000E30115419480399026820460F3011540398784300F0A0F8144900280968085102D00024009011E001251AE00F48016801980818009900F02AF9002801D001254B
:4059400002E00098C0190090641CE4B203988442ECD3002D05D10298066004480179491C0171284605B0F0BDFCFF00000C020020F8B50D4600216A468C461180002839DB05
:4059800023490978884235DA214B04010C3319680A59002A2ED020460C300B5A801C0E5C184670438018954224D3854222D2002006E007465F43BF18AF4206D0401CC0B2C5
:4059C000B042F6D36046002814D0114E271DC8190C366A46294600F004F900280AD168460088012808D030682946C01900F0CFF8002803D00120F8BD0020F8BDFCF708FEF8
:405A000030680F34015D491C0155FCF7FBFDF3E700020020F8B50F46002400F033F8002817D10C4900220B460C334A600EE021011D680E466A501D680C36AA53B61C1D68CB
:405A40000F31AA551D68641C6A54E4B2BC42EED31A71F8BD00020020014610B5002000290CD0C91C064B8A08596892005C888A18A24202D898685A60401810BD002010BD11
:405A800000020020F8B5044600200D4E009031700D01748029466846FEF744FF00280DD131460C3100980860601B001F81B26846FEF738FF0099B160002800D0FF20F8BDF3
:405AC00000020020F8B5002827DB19490978884223DA174C05010C342168485900281CD028460C30085A009028460E300E5C401C0E5420682F1DC01900F064F800280CD1AE
:405B00002068002445590EE0094829460C300068C01900F03CF8002801D00120F8BD00982D18641CE4B2B442EED30020F8BD00000002002030B50D4604000BD0A800FFF7A7
:405B40008BFF6060002805D000202570C0436080002030BD012030BD70B50D46040005D0002D03D00220205E002801DA012070BDFCF74EFD0221615E606889004058286058
:405B80006088401E6080FCF73DFD002070BD70B50D46040007D0002D05D002212078615E401E814201DB012070BDFCF731FD6088401C00B26080616880000D50FCF722FD7C
:405BC000002070BD10B5040009D0227800216068FEF7E2FD0020C0436080002010BD012010BDF0B500231D46002802D00224045F0AE00120F0BD46689F00F6598E4201D1DD
:405C0000012503E05B1CDBB29C42F4DA15700020F0BD00000148007870470000140200207CB505460024FEF7BFFDA8796946087000A8062229460130FEF7A5FD002168463C
:405C400004F006F90C2804D0072804D01F2804D004E0022402E0042400E0272420467CBD10B500F001F9FFF761FBFFF765FB10BD10B503240BF0FEFF002810D10BF0A2FF80
:405C800000280CD104F03AFE002808D100F0AEFA002804D104F036FB002800D10024204610BD70B50025044600280ED0A07901280BD8FEF779FDA0790028204602D002F013
:405CC00025FE03E002F0DAFD00E00125284670BD70B592B00E4605460024FEF765FD02F0B9FA00280AD000F0E8FB002806D0002D0ED0EA7F1F2A03D9012409E002242EE060
:405D000000A829460130FEF73EFDE87F69460870002E0FD0002C22D1F27F1F2A01D901241DE008A831460130FEF72DFDF07F08A9087001E0002C12D10020002D04D010A9A2
:405D4000684600F0F3FB0120002E04D010A908A800F070FC01E0002801D000F06DFB204612B070BD38B504460120002C20D0617801291DD800290BD0FF25E535FEF714FD74
:405D80002846FFF7D5F9C0B22070072803D00EE0FF25CD35F2E70020694608706846FFF7DFFA69460878012801D108202070002038BD70B504460120002C1FD06178012957
:405DC00002D92278092A19D8002905D0FF25E5352078092803D004E0FF25CD35F8E707202070FEF7E1FC2078082808D00020FFF7F3FA21782846FFF7A1F9002070BD012018
:405E0000FFF7EAFA0721F5E770B50D46040001D0002000E00548002802D0012101F0A6FF2946204602F088FA70BD00004806002038B505460020044600902246694628469D
:405E400000F06CFE0098002801D00BF0F5FEA878214602F0ADF8A878214602F09CF8641CE4B2052CE9D338BD38B5FFF75FFA042819D0052817D006281AD0032842D007283D
:405E80000AD100206946087002460120FFF778F9FFF74CFA0128FBD138BDFCF731FCFFF745FA0128F8D0FFF741FA0128F5D138BD02F0E6F805E0FCF723FCFFF737FA012858
:405EC00003D0FFF733FA0128F5D1A12424012046FFF72EF901220E4983079B0F0A70022BE5D149880029E2D0104301462046FFF725F92046FFF71CF9410849002046FFF726
:405F00001DF938BD02F0C0F80120FFF73FFA38BD1A020020F8B50646002402F0FBFD0546304602F00FFE00210346012632468A40174610462F401840002F03D0002801D11B
:405F4000224394B2491CC9B20529EFD32046F8BD1CB50020694648706846FFF703FF01AA69460A20FFF70CF96946042008561CBD10B50C4601F076F9002809D001790029E9
:405F800006D0C1788078224602F084FA002010BD022010BD0148007870470000140600204030C07E002800D00120704700B500F001F800BD88214843064940186030417F70
:405FC000491CC9B24177052901D300214177C8B2704700002806002013B501F043F904000BD001F096FC002807D0214601AA0A310620FFF7C5F800201CBD02201CBD00003F
:4060000010B50C4601F02EF900280AD001F081FC002806D0224604490A20FFF7B1F8002010BD022010BD0000FD050020F3B581B0074601460026029802F064FD0446002F4E
:4060400001D0002500E0154D002D21D0284601F03FF9032C04D13946029802F07DFD06463846029901F097FF032C06D0002C10D00121384601F01AFA03E03146384602F03E
:406080001FFF284601F058FE0221284601F06EFEFEBD3846029901F07EFFFEBD4806002070B50446002503F00DFB002801D00C2070BD2078611C02F0E7FAFF2802D01F25AE
:4060C000284670BD02F034FBFF2804D02178621C01F0D6FEF4E70725F2E710B503F0F2FA002801D00C2010BD02F0A6FA002010BD70B50D46044610210BF0DEFC10216018A7
:4061000006460BF0D9FC334610221946204603F005FB102130460BF0CFFC02202870204604F048F870BD70B504464078217802028006850FE0781143A67809050002090D24
:406140000643084601F08EF8002812D0022D10D0032D0ED0002E08D00179092909D0002907D0214600F0A1F870BD0089002103F056FF20460BF060FD70BD0020704770B569
:406180000446002503F09EFA002801D00C2070BD2078611C02F078FAFF2802D002F0BAF900E01F25284670BD10B504F0ABF800F0F6F8002010BD10B5044600786178E278DC
:4061C0000843A17811430843217908436179084305D003F069FA002803D00C2010BD122010BD204602F092FB002010BD10B5044803F0D2FA02F098F900F004F8002010BD76
:40620000E4050020F8B5114D00266E706E736E716E76AE76EE766E75AE70EE70AE712F46EE730120B03778723F2078719B20B87100F00AFA0024204601F032FB641C240662
:40624000240EF8D03E72FE71AE73F8BD2806002070B505460E46084602F05CFC0446304602F070FC0121A9400A46224001400A4301D0012070BD002070BD10B50446084653
:4062800002F060FC0121A140014201D0012010BD002010BD10B5FFF749F8032804D101F0F3FE0120FFF772F810BD70B5044600790D4609281CD000281AD020464030817E33
:4062C000491C8176204601F037FDA078FFF76EFE064602462946204600F00CF8002806D1A0783146FFF790FD28460BF0A5FC70BD0846FAE7F7B5054648780C468006870F44
:40630000C8788978000282B0014368468180284601F00AFB060007D021462846049A00F091FB304605B0F0BD384600F039FC0746034601AA2946204600F0CAFA68468088CA
:40634000231DC0B20090A878FF22049901F0AEFF684680883B46C2B2A878049902F052FBDFE770B5002500242846FFF7D3FD060010D03046E040C007C00F07D02146284692
:4063800001F0FDFD21462846FFF750FE641CE4B2052CEED36D1C2D062D0EE4D070BD10B502F0C2F8FFF72EFF0BF0AEFC002010BDF8B5002400F081F80123012800D1012456
:4063C000104F00203E4620360425082203E0002801D0002100E031460979002907D001290BD002290BD0114681402143CCB2401C0006000EEBD07C70F8BD1C43F7E72C439E
:40640000F5E700002806002010B5FFF7D1FF10BD10B50B4681791943817103D08078114602F0B4FA10BD10B582798A43827102D1807802F0C3FA10BD70B5FF25D5350224AD
:406440002846FEF775FE0C4A9178002901D0022906D1137852789A18282A01D9032402E0032900D101244105490DE00201432846FEF764FE70BD00001602002010B500F0EC
:4064800022F8002807D0012805D0032801D0042801D0002010BD012010BD014610B50020C90701D000F009F810BD014610B50020C90701D000F001F810BD10B52020FEF7E9
:4064C00037FE000A10BD10B51820FEF731FE410501D5042010BD4007800F10BD38B5044640060CD5684601F0D5FD0220FFF78CFF072002F035F96846007801F03FF9200691
:4065000013D5FFF7E0FF01280FD1684601F0C2FD6846007800F09AFA072002F021F9012001F072FC0220FFF76FFF38BD10B5034A0178117002F023F9002010BD1602002020
:4065400010B50446FFF7B9FF002801D00C2010BDA27B01211848002A827801D00A4301E05208520082706279012A0FD0C17849084900C170207901280CD06188208802F002
:406580000DFF2080207904280BD00DE0C2780A43C270EFE7E01D02F0A1F90848808C208002E0E01D02F09AF9054920798870204602F0F4F8002010BD28060020D4050020D3
:4065C0001602002038B50478FFF777FF844201D10C2038BD002C18D0072069460870FFF74DFF012807D10121684600F08DF8012801D0092038BD6846007802F0B1F8FFF71C
:406600001BFF02F0F8F8012010E0FFF737FF012806D1684601F03EFD6846007800F04AFA072002F09DF802F0DDF80220FFF7ECFE002038BD10B5034A0178517002F07EF9AC
:40664000002010BD1602002038B568460BF08AFA002801D01F2038BD01210098C90201804180002505714571857107214173857302F094F8009C202200212046FEF78CF870
:4066800025702A460021601CFEF786F8204602F076F8204602F052F900980BF0CDFA042200210248FEF778F8002038BD160200200346084800B5834209D8184600F0D2FDAE
:4066C000002804D00089984201D1012000BD002000BD0000FF0E0000074A9179491C8906890E917138220A4092014907090E1143084302490840704728060020FF0E0000D7
:40670000C006C00E70470000F8B507460E4600240D4803E0002C01D0002500E005462979002905D0641C2406240EF3D00020F8BD204601F0B5F82E712046FFF7CDFF28818F
:406740003C700120F8BD00004806002010B503F019F80222002100F003F801F08DFE10BD10B5094B40074907000F090F185A595A40185043C0086421FCF768F8002800D167
:40678000012080B210BD0000F0400100F7B53D20405C88B016460C46002829D030786946087200252046FFF7FBFB012800D00125204603A938300191009023460327A17E27
:4067C00034332A46206A03F001F802A8089900900B46019120463A4603A9243002F080FF02466846007A3070204601F045F810460BB0F0BDFFB587B00C4605461078694616
:4068000008723D20005D1746002826D000262046FFF7C6FB012800D00126204603A93830019100902346A17E34333246206A02F0CDFF02A80090291D019120462B1D03A98F
:4068400024300A9A02F04CFF02006846007A388002D1204601F010F810460BB0F0BDF7B53C20405C88B015460C4600280CD0287869460872002806D000262046FFF790FBB0
:40688000012803D003E01F200BB0F0BD0126204603A938300191009023460327E17E34333246E06902F092FF02A8089900900B46019120463A4603A9243002F043FF0246D2
:4068C0006846007A2870204600F0E0FF1046DBE7FFB505463C20405C87B016460C46002810D0084601F020F801280BD0308869460883002809D000272046FFF751FB012861
:4069000005D005E000200BB0F0BD0220FBE70127204602A93830019100902346E17E34333A46E06902F052FF06A80090291D019120462B1D02A924300A9A02F003FF024670
:406940006846008B30806846008BA870000AE870204600F09BFF1046D5E770B50D460446FFF71EFB01280AD0E87AA97A00020143A07801F049FC012808D0002070BD00221C
:406980002421204602F054FC242070BD28214C200155204600F09AFB282070BD002801D0002000E003484030C07F012800D0002070470000480600200146002049070ED543
:4069C0000021084B03E0002901D0002200E01A461279022A04D0491C0906090EF3D0704701207047480600200146002049070ED50021084B03E0002901D0002200E01A46C1
:406A00001279022A04D0491C0906090EF3D07047012070474806002010B5044680346068002803D00BF01CF90020606010BD403041707047403081707047403001707047B5
:406A40000171704792001018C166704770B53C2501F0F4F8040004D020460021433001F08DFB2946204600F0C0FB002C02D0A07801F076F870BD000010B5002801D00020A7
:406A800000E00348002802D0008903F00FFB10BD4806002010B5002801D0002000E00448002804D00179072901D100F041F810BD4806002010B501F0C1F8002802D08078A9
:406AC00001F04EF810BD00207047000070B50546008A00281ED010491122897A1140C90618D5294640314A8A098A521C4A4392B2D10800D10121540801E0621A94B2A042DC
:406B0000FBD9FFF787F8012804D1298AA878224601F060FC70BD0000D405002000230B60052A04D292001018C26E0A60C366704738B5044600200090A079002814D140202C
:406B4000015D052901D00E290ED168460BF01AF8002809D12046009902F052FB03481021C28A2046FFF754FC38BD0000D405002010B50B4604460146184602F021F800280D
:406B800002D020460BF062F810BD13B5044601AA11460620FEF7F4FA6846818861811CBD002800D10220704770470000F8B504462346401D543300909A1EA078911E01F01F
:406BC00078FA25464035A88A298A8000FBF73EFE401E81B2688A884203D96982A07801F052FF20460021433001F0C8FA8020FEF79FFAE88102F0C6FDE989891C8AB261791C
:406C0000FFF7AEFD01F038FC02F0BCFD2A8A6179FFF7A6FD074601F021FC688A00280BD0FF26F1363046FEF783FA0321090201433046FEF783FA02E0002001F012FFFF20BA
:406C40006130FEF775FA6E8A002E0BD070431049FBF7ECFE0004000C01D0401C80B20D49488002E00B4800214180288A704381B2A07801F071FE2837B9B2204602F092FBD3
:406C8000E98AA07801F0C0FDA07801F0A7F9F8BD710200001A0200207FB504468034616805460E46183108226846FDF76CFD31462031082202A8FDF766FD102168460AF0AA
:406CC000FBFE6068102108300AF0F6FE60682B46083024331022694602F020FD7FBD10B504460821FFF79FFB10212046FFF79BFB207905281FD006281DD008281AD1218908
:406D0000002003F04BF9072020712046FFF748F9014620464030012913D00E21017000210176204600F028FF2046FFF775FE2046FFF7CCFE10BD20890122002103F012F91B
:406D4000E1E70521EAE70000FFB581B01F4604460821FFF768FB10212046FFF764FB2079082803D0092804D0042203E00422012501E009220025204600F0C2FD264600208A
:406D80004036307022712046FFF746FE0398002D02D0012808D00BE001280AD120890022029903F0DFF804E02189029803F0F6F8012700203076012F04D0204600F0DCFEA5
:406DC00005B0F0BD02983073204602F05DFA054605480121C28A2046FFF71AFB002DEFD109202071ECE70000D405002070B50C460546FFF7D5F8012809D108212846FFF746
:406E000012FB0023012221462846FFF79DFF70BD10B5044600F074FD2046FFF7FDFD00214034217010BD70B505461A24FFF7B8F8012809D108212846FFF7F5FA0023012299
:406E400021462846FFF780FF70BD0000F8B50446002000900E4668460AF094FE002801D00D20F8BD8420005908212030009D00F0F4F920460421383000F0EFF9002E02D1CF
:406E8000204600F07BFD2946204602F049F90E480821C28A2046FFF7BBFA204600F0D3FE25464035002808D0204600F023F8002801D0092028700020F8BD082028702046F2
:406EC00000F03AFFF7E70000D4050020014610B540310A460978082906D0092907D00A2901D100F091F810BD0B20107010BD00F001F810BD70B504460079254640350528C6
:406F000005D0062803D008280FD00C2070BD03220621204602F08CF90D480821C28A2046FFF776FA1120287010E006202873204602F0AAF90646AA8A0A2042430121204628
:406F4000FFF766FA002E01D109202071002070BDD405002038B504460020009068460AF011FE002801D00D2038BD2046009D00F08BF908202071204600F000FD29462046AA
:406F800002F000F900213D2001550F2040210855204600F0D1FE002038BD00B5024600F0AFFC10214032117000BD10B50446FEF7F7FF012809D04020005D112805D1002387
:406FC0001A4606212046FFF7BFFE10BD10B5FFF786FE10BD38B504460021684600910AF0D1FD00280CD12046009902F042F905480821C28A2046FFF70BFA0D204034207034
:4070000038BD0000D405002038B504460021684600910AF0B7FD002801D00D2038BD2046009902F01BF905480821C28A2046FFF7EFF90C2040342070002038BDD4050020B9
:4070400000787047F8B50025002801D0002400E01A4C002C28D0204600F05BFC002823D0207903281CD005281CD026464036B18AA07801F07FFCB078012815D10021204698
:4070800001F0BBFD274680373868002802D00AF0E7FD3D600020B0702079072805D007E0042000E006202071F8BD2046FFF70EFD0221204600F05AFEF8BD0000480600205F
:4070C00010B54C22115400F046F810BD10B50446FF21FFF7A8F909202071A07801F07AFC10BD000038B5FF216A461180002801D0002400E0064C002C08D011460620FEF71E
:407100003FF8684601882046FFF73FFD38BD00004806002010B504468079002809D022214C200155FF212046FFF77DF9204600F012F810BD10B5037902464032002B03D0C0
:407140001173092B02D003E0002100E02221117300F001F810BDFEB504460089002701902781207926464036002817D0012815D002280AD112E002AA6946204601F00EFDF2
:40718000002807D100980AF061FD204601F02EFD0028F0D02046FEF74BFEB776254680352868002802D00AF05BFD2F606868002802D00AF055FD6F60317B002902D00198F4
:4071C00000F044F8A078002100F01CFF2046FFF7BDFAA07801F002F8A07800F0C1FC0B20FFF712F900F000FCFEBD70B50E46054602F0C4FA044606702846FEF7D1FE0146C4
:4072000001204140204661700C3000F0A0FF002D10D02889608028464030C1782171002E10D169796171018AE180418A2181808A608107E01820FDF77BFFC005C00F2071AA
